{
  "_format": "hh-sol-artifact-1",
  "contractName": "mapd",
  "sourceName": "contracts/ZD.sol",
  "abi": [
    {
      "inputs": [],
      "stateMutability": "nonpayable",
      "type": "constructor"
    },
    {
      "anonymous": false,
      "inputs": [
        {
          "indexed": true,
          "internalType": "address",
          "name": "owner",
          "type": "address"
        },
        {
          "indexed": true,
          "internalType": "address",
          "name": "approved",
          "type": "address"
        },
        {
          "indexed": true,
          "internalType": "uint256",
          "name": "tokenId",
          "type": "uint256"
        }
      ],
      "name": "Approval",
      "type": "event"
    },
    {
      "anonymous": false,
      "inputs": [
        {
          "indexed": true,
          "internalType": "address",
          "name": "owner",
          "type": "address"
        },
        {
          "indexed": true,
          "internalType": "address",
          "name": "operator",
          "type": "address"
        },
        {
          "indexed": false,
          "internalType": "bool",
          "name": "approved",
          "type": "bool"
        }
      ],
      "name": "ApprovalForAll",
      "type": "event"
    },
    {
      "anonymous": false,
      "inputs": [
        {
          "indexed": true,
          "internalType": "address",
          "name": "previousOwner",
          "type": "address"
        },
        {
          "indexed": true,
          "internalType": "address",
          "name": "newOwner",
          "type": "address"
        }
      ],
      "name": "OwnershipTransferred",
      "type": "event"
    },
    {
      "anonymous": false,
      "inputs": [
        {
          "indexed": true,
          "internalType": "address",
          "name": "from",
          "type": "address"
        },
        {
          "indexed": true,
          "internalType": "address",
          "name": "to",
          "type": "address"
        },
        {
          "indexed": true,
          "internalType": "uint256",
          "name": "tokenId",
          "type": "uint256"
        }
      ],
      "name": "Transfer",
      "type": "event"
    },
    {
      "inputs": [
        {
          "internalType": "address",
          "name": "to",
          "type": "address"
        },
        {
          "internalType": "uint256",
          "name": "tokenId",
          "type": "uint256"
        }
      ],
      "name": "approve",
      "outputs": [],
      "stateMutability": "nonpayable",
      "type": "function"
    },
    {
      "inputs": [
        {
          "internalType": "address",
          "name": "owner",
          "type": "address"
        }
      ],
      "name": "balanceOf",
      "outputs": [
        {
          "internalType": "uint256",
          "name": "",
          "type": "uint256"
        }
      ],
      "stateMutability": "view",
      "type": "function"
    },
    {
      "inputs": [
        {
          "internalType": "uint256",
          "name": "tokenId",
          "type": "uint256"
        }
      ],
      "name": "getApproved",
      "outputs": [
        {
          "internalType": "address",
          "name": "",
          "type": "address"
        }
      ],
      "stateMutability": "view",
      "type": "function"
    },
    {
      "inputs": [],
      "name": "getCurrentTokenId",
      "outputs": [
        {
          "internalType": "uint256",
          "name": "tokenIdCurrent",
          "type": "uint256"
        }
      ],
      "stateMutability": "view",
      "type": "function"
    },
    {
      "inputs": [
        {
          "internalType": "address",
          "name": "owner",
          "type": "address"
        },
        {
          "internalType": "address",
          "name": "operator",
          "type": "address"
        }
      ],
      "name": "isApprovedForAll",
      "outputs": [
        {
          "internalType": "bool",
          "name": "",
          "type": "bool"
        }
      ],
      "stateMutability": "view",
      "type": "function"
    },
    {
      "inputs": [],
      "name": "name",
      "outputs": [
        {
          "internalType": "string",
          "name": "",
          "type": "string"
        }
      ],
      "stateMutability": "view",
      "type": "function"
    },
    {
      "inputs": [],
      "name": "owner",
      "outputs": [
        {
          "internalType": "address",
          "name": "",
          "type": "address"
        }
      ],
      "stateMutability": "view",
      "type": "function"
    },
    {
      "inputs": [
        {
          "internalType": "uint256",
          "name": "tokenId",
          "type": "uint256"
        }
      ],
      "name": "ownerOf",
      "outputs": [
        {
          "internalType": "address",
          "name": "",
          "type": "address"
        }
      ],
      "stateMutability": "view",
      "type": "function"
    },
    {
      "inputs": [],
      "name": "renounceOwnership",
      "outputs": [],
      "stateMutability": "nonpayable",
      "type": "function"
    },
    {
      "inputs": [
        {
          "internalType": "address",
          "name": "to",
          "type": "address"
        },
        {
          "internalType": "string",
          "name": "uri",
          "type": "string"
        }
      ],
      "name": "safeMint",
      "outputs": [
        {
          "internalType": "uint256",
          "name": "tokenIdMinted",
          "type": "uint256"
        }
      ],
      "stateMutability": "nonpayable",
      "type": "function"
    },
    {
      "inputs": [
        {
          "internalType": "address",
          "name": "from",
          "type": "address"
        },
        {
          "internalType": "address",
          "name": "to",
          "type": "address"
        },
        {
          "internalType": "uint256",
          "name": "tokenId",
          "type": "uint256"
        }
      ],
      "name": "safeTransferFrom",
      "outputs": [],
      "stateMutability": "nonpayable",
      "type": "function"
    },
    {
      "inputs": [
        {
          "internalType": "address",
          "name": "from",
          "type": "address"
        },
        {
          "internalType": "address",
          "name": "to",
          "type": "address"
        },
        {
          "internalType": "uint256",
          "name": "tokenId",
          "type": "uint256"
        },
        {
          "internalType": "bytes",
          "name": "data",
          "type": "bytes"
        }
      ],
      "name": "safeTransferFrom",
      "outputs": [],
      "stateMutability": "nonpayable",
      "type": "function"
    },
    {
      "inputs": [
        {
          "internalType": "address",
          "name": "operator",
          "type": "address"
        },
        {
          "internalType": "bool",
          "name": "approved",
          "type": "bool"
        }
      ],
      "name": "setApprovalForAll",
      "outputs": [],
      "stateMutability": "nonpayable",
      "type": "function"
    },
    {
      "inputs": [
        {
          "internalType": "bytes4",
          "name": "interfaceId",
          "type": "bytes4"
        }
      ],
      "name": "supportsInterface",
      "outputs": [
        {
          "internalType": "bool",
          "name": "",
          "type": "bool"
        }
      ],
      "stateMutability": "view",
      "type": "function"
    },
    {
      "inputs": [],
      "name": "symbol",
      "outputs": [
        {
          "internalType": "string",
          "name": "",
          "type": "string"
        }
      ],
      "stateMutability": "view",
      "type": "function"
    },
    {
      "inputs": [
        {
          "internalType": "uint256",
          "name": "tokenId",
          "type": "uint256"
        }
      ],
      "name": "tokenURI",
      "outputs": [
        {
          "internalType": "string",
          "name": "",
          "type": "string"
        }
      ],
      "stateMutability": "view",
      "type": "function"
    },
    {
      "inputs": [
        {
          "internalType": "address",
          "name": "from",
          "type": "address"
        },
        {
          "internalType": "address",
          "name": "to",
          "type": "address"
        },
        {
          "internalType": "uint256",
          "name": "tokenId",
          "type": "uint256"
        }
      ],
      "name": "transferFrom",
      "outputs": [],
      "stateMutability": "nonpayable",
      "type": "function"
    },
    {
      "inputs": [
        {
          "internalType": "address",
          "name": "newOwner",
          "type": "address"
        }
      ],
      "name": "transferOwnership",
      "outputs": [],
      "stateMutability": "nonpayable",
      "type": "function"
    }
  ],
  "bytecode": "0x60806040523480156200001157600080fd5b506040518060400160405280600681526020017f4d696e74515200000000000000000000000000000000000000000000000000008152506040518060400160405280600681526020017f4d696e745152000000000000000000000000000000000000000000000000000081525081600090816200008f919062000412565b508060019081620000a1919062000412565b505050620000c4620000b8620000ca60201b60201c565b620000d260201b60201c565b620004f9565b600033905090565b6000600760009054906101000a900473ffffffffffffffffffffffffffffffffffffffff16905081600760006101000a81548173ffffffffffffffffffffffffffffffffffffffff021916908373ffffffffffffffffffffffffffffffffffffffff1602179055508173ffffffffffffffffffffffffffffffffffffffff168173ffffffffffffffffffffffffffffffffffffffff167f8be0079c531659141344cd1fd0a4f28419497f9722a3daafe3b4186f6b6457e060405160405180910390a35050565b600081519050919050565b7f4e487b7100000000000000000000000000000000000000000000000000000000600052604160045260246000fd5b7f4e487b7100000000000000000000000000000000000000000000000000000000600052602260045260246000fd5b600060028204905060018216806200021a57607f821691505b60208210810362000230576200022f620001d2565b5b50919050565b60008190508160005260206000209050919050565b60006020601f8301049050919050565b600082821b905092915050565b6000600883026200029a7fffffffffffffffffffffffffffffffffffffffffffffffffffffffffffffffff826200025b565b620002a686836200025b565b95508019841693508086168417925050509392505050565b6000819050919050565b6000819050919050565b6000620002f3620002ed620002e784620002be565b620002c8565b620002be565b9050919050565b6000819050919050565b6200030f83620002d2565b620003276200031e82620002fa565b84845462000268565b825550505050565b600090565b6200033e6200032f565b6200034b81848462000304565b505050565b5b8181101562000373576200036760008262000334565b60018101905062000351565b5050565b601f821115620003c2576200038c8162000236565b62000397846200024b565b81016020851015620003a7578190505b620003bf620003b6856200024b565b83018262000350565b50505b505050565b600082821c905092915050565b6000620003e760001984600802620003c7565b1980831691505092915050565b6000620004028383620003d4565b9150826002028217905092915050565b6200041d8262000198565b67ffffffffffffffff811115620004395762000438620001a3565b5b62000445825462000201565b6200045282828562000377565b600060209050601f8311600181146200048a576000841562000475578287015190505b620004818582620003f4565b865550620004f1565b601f1984166200049a8662000236565b60005b82811015620004c4578489015182556001820191506020850194506020810190506200049d565b86831015620004e45784890151620004e0601f891682620003d4565b8355505b6001600288020188555050505b505050505050565b61303480620005096000396000f3fe608060405234801561001057600080fd5b50600436106101165760003560e01c8063715018a6116100a2578063b88d4fde11610071578063b88d4fde146102cd578063c87b56dd146102e9578063d204c45e14610319578063e985e9c514610349578063f2fde38b1461037957610116565b8063715018a61461026b5780638da5cb5b1461027557806395d89b4114610293578063a22cb465146102b157610116565b806323b872dd116100e957806323b872dd146101b557806342842e0e146101d157806356189236146101ed5780636352211e1461020b57806370a082311461023b57610116565b806301ffc9a71461011b57806306fdde031461014b578063081812fc14610169578063095ea7b314610199575b600080fd5b61013560048036038101906101309190611d8e565b610395565b6040516101429190611dd6565b60405180910390f35b610153610477565b6040516101609190611e81565b60405180910390f35b610183600480360381019061017e9190611ed9565b610509565b6040516101909190611f47565b60405180910390f35b6101b360048036038101906101ae9190611f8e565b61054f565b005b6101cf60048036038101906101ca9190611fce565b610666565b005b6101eb60048036038101906101e69190611fce565b6106c6565b005b6101f56106e6565b6040516102029190612030565b60405180910390f35b61022560048036038101906102209190611ed9565b6106f7565b6040516102329190611f47565b60405180910390f35b6102556004803603810190610250919061204b565b61077d565b6040516102629190612030565b60405180910390f35b610273610834565b005b61027d610848565b60405161028a9190611f47565b60405180910390f35b61029b610872565b6040516102a89190611e81565b60405180910390f35b6102cb60048036038101906102c691906120a4565b610904565b005b6102e760048036038101906102e29190612219565b61091a565b005b61030360048036038101906102fe9190611ed9565b61097c565b6040516103109190611e81565b60405180910390f35b610333600480360381019061032e919061233d565b61098e565b6040516103409190612030565b60405180910390f35b610363600480360381019061035e9190612399565b6109ce565b6040516103709190611dd6565b60405180910390f35b610393600480360381019061038e919061204b565b610a62565b005b60007f80ac58cd000000000000000000000000000000000000000000000000000000007bffffffffffffffffffffffffffffffffffffffffffffffffffffffff1916827bffffffffffffffffffffffffffffffffffffffffffffffffffffffff1916148061046057507f5b5e139f000000000000000000000000000000000000000000000000000000007bffffffffffffffffffffffffffffffffffffffffffffffffffffffff1916827bffffffffffffffffffffffffffffffffffffffffffffffffffffffff1916145b80610470575061046f82610ae5565b5b9050919050565b60606000805461048690612408565b80601f01602080910402602001604051908101604052809291908181526020018280546104b290612408565b80156104ff5780601f106104d4576101008083540402835291602001916104ff565b820191906000526020600020905b8154815290600101906020018083116104e257829003601f168201915b5050505050905090565b600061051482610b4f565b6004600083815260200190815260200160002060009054906101000a900473ffffffffffffffffffffffffffffffffffffffff169050919050565b600061055a826106f7565b90508073ffffffffffffffffffffffffffffffffffffffff168373ffffffffffffffffffffffffffffffffffffffff16036105ca576040517f08c379a00000000000000000000000000000000000000000000000000000000081526004016105c1906124ab565b60405180910390fd5b8073ffffffffffffffffffffffffffffffffffffffff166105e9610b9a565b73ffffffffffffffffffffffffffffffffffffffff161480610618575061061781610612610b9a565b6109ce565b5b610657576040517f08c379a000000000000000000000000000000000000000000000000000000000815260040161064e9061253d565b60405180910390fd5b6106618383610ba2565b505050565b610677610671610b9a565b82610c5b565b6106b6576040517f08c379a00000000000000000000000000000000000000000000000000000000081526004016106ad906125cf565b60405180910390fd5b6106c1838383610cf0565b505050565b6106e18383836040518060200160405280600081525061091a565b505050565b60006106f26008610fe9565b905090565b60008061070383610ff7565b9050600073ffffffffffffffffffffffffffffffffffffffff168173ffffffffffffffffffffffffffffffffffffffff1603610774576040517f08c379a000000000000000000000000000000000000000000000000000000000815260040161076b9061263b565b60405180910390fd5b80915050919050565b60008073ffffffffffffffffffffffffffffffffffffffff168273ffffffffffffffffffffffffffffffffffffffff16036107ed576040517f08c379a00000000000000000000000000000000000000000000000000000000081526004016107e4906126cd565b60405180910390fd5b600360008373ffffffffffffffffffffffffffffffffffffffff1673ffffffffffffffffffffffffffffffffffffffff168152602001908152602001600020549050919050565b61083c611034565b61084660006110b2565b565b6000600760009054906101000a900473ffffffffffffffffffffffffffffffffffffffff16905090565b60606001805461088190612408565b80601f01602080910402602001604051908101604052809291908181526020018280546108ad90612408565b80156108fa5780601f106108cf576101008083540402835291602001916108fa565b820191906000526020600020905b8154815290600101906020018083116108dd57829003601f168201915b5050505050905090565b61091661090f610b9a565b8383611178565b5050565b61092b610925610b9a565b83610c5b565b61096a576040517f08c379a0000000000000000000000000000000000000000000000000000000008152600401610961906125cf565b60405180910390fd5b610976848484846112e4565b50505050565b606061098782611340565b9050919050565b60008061099b6008610fe9565b90506109a76008611452565b6109b18482611468565b6109bb8184611486565b6109c56008610fe9565b91505092915050565b6000600560008473ffffffffffffffffffffffffffffffffffffffff1673ffffffffffffffffffffffffffffffffffffffff16815260200190815260200160002060008373ffffffffffffffffffffffffffffffffffffffff1673ffffffffffffffffffffffffffffffffffffffff16815260200190815260200160002060009054906101000a900460ff16905092915050565b610a6a611034565b600073ffffffffffffffffffffffffffffffffffffffff168173ffffffffffffffffffffffffffffffffffffffff1603610ad9576040517f08c379a0000000000000000000000000000000000000000000000000000000008152600401610ad09061275f565b60405180910390fd5b610ae2816110b2565b50565b60007f01ffc9a7000000000000000000000000000000000000000000000000000000007bffffffffffffffffffffffffffffffffffffffffffffffffffffffff1916827bffffffffffffffffffffffffffffffffffffffffffffffffffffffff1916149050919050565b610b58816114f3565b610b97576040517f08c379a0000000000000000000000000000000000000000000000000000000008152600401610b8e9061263b565b60405180910390fd5b50565b600033905090565b816004600083815260200190815260200160002060006101000a81548173ffffffffffffffffffffffffffffffffffffffff021916908373ffffffffffffffffffffffffffffffffffffffff160217905550808273ffffffffffffffffffffffffffffffffffffffff16610c15836106f7565b73ffffffffffffffffffffffffffffffffffffffff167f8c5be1e5ebec7d5bd14f71427d1e84f3dd0314c0f7b2291e5b200ac8c7c3b92560405160405180910390a45050565b600080610c67836106f7565b90508073ffffffffffffffffffffffffffffffffffffffff168473ffffffffffffffffffffffffffffffffffffffff161480610ca95750610ca881856109ce565b5b80610ce757508373ffffffffffffffffffffffffffffffffffffffff16610ccf84610509565b73ffffffffffffffffffffffffffffffffffffffff16145b91505092915050565b8273ffffffffffffffffffffffffffffffffffffffff16610d10826106f7565b73ffffffffffffffffffffffffffffffffffffffff1614610d66576040517f08c379a0000000000000000000000000000000000000000000000000000000008152600401610d5d906127f1565b60405180910390fd5b600073ffffffffffffffffffffffffffffffffffffffff168273ffffffffffffffffffffffffffffffffffffffff1603610dd5576040517f08c379a0000000000000000000000000000000000000000000000000000000008152600401610dcc90612883565b60405180910390fd5b610de28383836001611534565b8273ffffffffffffffffffffffffffffffffffffffff16610e02826106f7565b73ffffffffffffffffffffffffffffffffffffffff1614610e58576040517f08c379a0000000000000000000000000000000000000000000000000000000008152600401610e4f906127f1565b60405180910390fd5b6004600082815260200190815260200160002060006101000a81549073ffffffffffffffffffffffffffffffffffffffff02191690556001600360008573ffffffffffffffffffffffffffffffffffffffff1673ffffffffffffffffffffffffffffffffffffffff168152602001908152602001600020600082825403925050819055506001600360008473ffffffffffffffffffffffffffffffffffffffff1673ffffffffffffffffffffffffffffffffffffffff16815260200190815260200160002060008282540192505081905550816002600083815260200190815260200160002060006101000a81548173ffffffffffffffffffffffffffffffffffffffff021916908373ffffffffffffffffffffffffffffffffffffffff160217905550808273ffffffffffffffffffffffffffffffffffffffff168473ffffffffffffffffffffffffffffffffffffffff167fddf252ad1be2c89b69c2b068fc378daa952ba7f163c4a11628f55a4df523b3ef60405160405180910390a4610fe4838383600161165a565b505050565b600081600001549050919050565b60006002600083815260200190815260200160002060009054906101000a900473ffffffffffffffffffffffffffffffffffffffff169050919050565b61103c610b9a565b73ffffffffffffffffffffffffffffffffffffffff1661105a610848565b73ffffffffffffffffffffffffffffffffffffffff16146110b0576040517f08c379a00000000000000000000000000000000000000000000000000000000081526004016110a7906128ef565b60405180910390fd5b565b6000600760009054906101000a900473ffffffffffffffffffffffffffffffffffffffff16905081600760006101000a81548173ffffffffffffffffffffffffffffffffffffffff021916908373ffffffffffffffffffffffffffffffffffffffff1602179055508173ffffffffffffffffffffffffffffffffffffffff168173ffffffffffffffffffffffffffffffffffffffff167f8be0079c531659141344cd1fd0a4f28419497f9722a3daafe3b4186f6b6457e060405160405180910390a35050565b8173ffffffffffffffffffffffffffffffffffffffff168373ffffffffffffffffffffffffffffffffffffffff16036111e6576040517f08c379a00000000000000000000000000000000000000000000000000000000081526004016111dd9061295b565b60405180910390fd5b80600560008573ffffffffffffffffffffffffffffffffffffffff1673ffffffffffffffffffffffffffffffffffffffff16815260200190815260200160002060008473ffffffffffffffffffffffffffffffffffffffff1673ffffffffffffffffffffffffffffffffffffffff16815260200190815260200160002060006101000a81548160ff0219169083151502179055508173ffffffffffffffffffffffffffffffffffffffff168373ffffffffffffffffffffffffffffffffffffffff167f17307eab39ab6107e8899845ad3d59bd9653f200f220920489ca2b5937696c31836040516112d79190611dd6565b60405180910390a3505050565b6112ef848484610cf0565b6112fb84848484611660565b61133a576040517f08c379a0000000000000000000000000000000000000000000000000000000008152600401611331906129ed565b60405180910390fd5b50505050565b606061134b82610b4f565b600060066000848152602001908152602001600020805461136b90612408565b80601f016020809104026020016040519081016040528092919081815260200182805461139790612408565b80156113e45780601f106113b9576101008083540402835291602001916113e4565b820191906000526020600020905b8154815290600101906020018083116113c757829003601f168201915b5050505050905060006113f56117e7565b9050600081510361140a57819250505061144d565b60008251111561143f578082604051602001611427929190612a49565b6040516020818303038152906040529250505061144d565b611448846117fe565b925050505b919050565b6001816000016000828254019250508190555050565b611482828260405180602001604052806000815250611866565b5050565b61148f826114f3565b6114ce576040517f08c379a00000000000000000000000000000000000000000000000000000000081526004016114c590612adf565b60405180910390fd5b806006600084815260200190815260200160002090816114ee9190612cab565b505050565b60008073ffffffffffffffffffffffffffffffffffffffff1661151583610ff7565b73ffffffffffffffffffffffffffffffffffffffff1614159050919050565b600181111561165457600073ffffffffffffffffffffffffffffffffffffffff168473ffffffffffffffffffffffffffffffffffffffff16146115c85780600360008673ffffffffffffffffffffffffffffffffffffffff1673ffffffffffffffffffffffffffffffffffffffff16815260200190815260200160002060008282546115c09190612dac565b925050819055505b600073ffffffffffffffffffffffffffffffffffffffff168373ffffffffffffffffffffffffffffffffffffffff16146116535780600360008573ffffffffffffffffffffffffffffffffffffffff1673ffffffffffffffffffffffffffffffffffffffff168152602001908152602001600020600082825461164b9190612de0565b925050819055505b5b50505050565b50505050565b60006116818473ffffffffffffffffffffffffffffffffffffffff166118c1565b156117da578373ffffffffffffffffffffffffffffffffffffffff1663150b7a026116aa610b9a565b8786866040518563ffffffff1660e01b81526004016116cc9493929190612e69565b6020604051808303816000875af192505050801561170857506040513d601f19601f820116820180604052508101906117059190612eca565b60015b61178a573d8060008114611738576040519150601f19603f3d011682016040523d82523d6000602084013e61173d565b606091505b506000815103611782576040517f08c379a0000000000000000000000000000000000000000000000000000000008152600401611779906129ed565b60405180910390fd5b805181602001fd5b63150b7a0260e01b7bffffffffffffffffffffffffffffffffffffffffffffffffffffffff1916817bffffffffffffffffffffffffffffffffffffffffffffffffffffffff1916149150506117df565b600190505b949350505050565b606060405180602001604052806000815250905090565b606061180982610b4f565b60006118136117e7565b90506000815111611833576040518060200160405280600081525061185e565b8061183d846118e4565b60405160200161184e929190612a49565b6040516020818303038152906040525b915050919050565b61187083836119b2565b61187d6000848484611660565b6118bc576040517f08c379a00000000000000000000000000000000000000000000000000000000081526004016118b3906129ed565b60405180910390fd5b505050565b6000808273ffffffffffffffffffffffffffffffffffffffff163b119050919050565b6060600060016118f384611bcf565b01905060008167ffffffffffffffff811115611912576119116120ee565b5b6040519080825280601f01601f1916602001820160405280156119445781602001600182028036833780820191505090505b509050600082602001820190505b6001156119a7578080600190039150507f3031323334353637383961626364656600000000000000000000000000000000600a86061a8153600a858161199b5761199a612ef7565b5b04945060008503611952575b819350505050919050565b600073ffffffffffffffffffffffffffffffffffffffff168273ffffffffffffffffffffffffffffffffffffffff1603611a21576040517f08c379a0000000000000000000000000000000000000000000000000000000008152600401611a1890612f72565b60405180910390fd5b611a2a816114f3565b15611a6a576040517f08c379a0000000000000000000000000000000000000000000000000000000008152600401611a6190612fde565b60405180910390fd5b611a78600083836001611534565b611a81816114f3565b15611ac1576040517f08c379a0000000000000000000000000000000000000000000000000000000008152600401611ab890612fde565b60405180910390fd5b6001600360008473ffffffffffffffffffffffffffffffffffffffff1673ffffffffffffffffffffffffffffffffffffffff16815260200190815260200160002060008282540192505081905550816002600083815260200190815260200160002060006101000a81548173ffffffffffffffffffffffffffffffffffffffff021916908373ffffffffffffffffffffffffffffffffffffffff160217905550808273ffffffffffffffffffffffffffffffffffffffff16600073ffffffffffffffffffffffffffffffffffffffff167fddf252ad1be2c89b69c2b068fc378daa952ba7f163c4a11628f55a4df523b3ef60405160405180910390a4611bcb60008383600161165a565b5050565b600080600090507a184f03e93ff9f4daa797ed6e38ed64bf6a1f0100000000000000008310611c2d577a184f03e93ff9f4daa797ed6e38ed64bf6a1f0100000000000000008381611c2357611c22612ef7565b5b0492506040810190505b6d04ee2d6d415b85acef81000000008310611c6a576d04ee2d6d415b85acef81000000008381611c6057611c5f612ef7565b5b0492506020810190505b662386f26fc100008310611c9957662386f26fc100008381611c8f57611c8e612ef7565b5b0492506010810190505b6305f5e1008310611cc2576305f5e1008381611cb857611cb7612ef7565b5b0492506008810190505b6127108310611ce7576127108381611cdd57611cdc612ef7565b5b0492506004810190505b60648310611d0a5760648381611d0057611cff612ef7565b5b0492506002810190505b600a8310611d19576001810190505b80915050919050565b6000604051905090565b600080fd5b600080fd5b60007fffffffff0000000000000000000000000000000000000000000000000000000082169050919050565b611d6b81611d36565b8114611d7657600080fd5b50565b600081359050611d8881611d62565b92915050565b600060208284031215611da457611da3611d2c565b5b6000611db284828501611d79565b91505092915050565b60008115159050919050565b611dd081611dbb565b82525050565b6000602082019050611deb6000830184611dc7565b92915050565b600081519050919050565b600082825260208201905092915050565b60005b83811015611e2b578082015181840152602081019050611e10565b60008484015250505050565b6000601f19601f8301169050919050565b6000611e5382611df1565b611e5d8185611dfc565b9350611e6d818560208601611e0d565b611e7681611e37565b840191505092915050565b60006020820190508181036000830152611e9b8184611e48565b905092915050565b6000819050919050565b611eb681611ea3565b8114611ec157600080fd5b50565b600081359050611ed381611ead565b92915050565b600060208284031215611eef57611eee611d2c565b5b6000611efd84828501611ec4565b91505092915050565b600073ffffffffffffffffffffffffffffffffffffffff82169050919050565b6000611f3182611f06565b9050919050565b611f4181611f26565b82525050565b6000602082019050611f5c6000830184611f38565b92915050565b611f6b81611f26565b8114611f7657600080fd5b50565b600081359050611f8881611f62565b92915050565b60008060408385031215611fa557611fa4611d2c565b5b6000611fb385828601611f79565b9250506020611fc485828601611ec4565b9150509250929050565b600080600060608486031215611fe757611fe6611d2c565b5b6000611ff586828701611f79565b935050602061200686828701611f79565b925050604061201786828701611ec4565b9150509250925092565b61202a81611ea3565b82525050565b60006020820190506120456000830184612021565b92915050565b60006020828403121561206157612060611d2c565b5b600061206f84828501611f79565b91505092915050565b61208181611dbb565b811461208c57600080fd5b50565b60008135905061209e81612078565b92915050565b600080604083850312156120bb576120ba611d2c565b5b60006120c985828601611f79565b92505060206120da8582860161208f565b9150509250929050565b600080fd5b600080fd5b7f4e487b7100000000000000000000000000000000000000000000000000000000600052604160045260246000fd5b61212682611e37565b810181811067ffffffffffffffff82111715612145576121446120ee565b5b80604052505050565b6000612158611d22565b9050612164828261211d565b919050565b600067ffffffffffffffff821115612184576121836120ee565b5b61218d82611e37565b9050602081019050919050565b82818337600083830152505050565b60006121bc6121b784612169565b61214e565b9050828152602081018484840111156121d8576121d76120e9565b5b6121e384828561219a565b509392505050565b600082601f830112612200576121ff6120e4565b5b81356122108482602086016121a9565b91505092915050565b6000806000806080858703121561223357612232611d2c565b5b600061224187828801611f79565b945050602061225287828801611f79565b935050604061226387828801611ec4565b925050606085013567ffffffffffffffff81111561228457612283611d31565b5b612290878288016121eb565b91505092959194509250565b600067ffffffffffffffff8211156122b7576122b66120ee565b5b6122c082611e37565b9050602081019050919050565b60006122e06122db8461229c565b61214e565b9050828152602081018484840111156122fc576122fb6120e9565b5b61230784828561219a565b509392505050565b600082601f830112612324576123236120e4565b5b81356123348482602086016122cd565b91505092915050565b6000806040838503121561235457612353611d2c565b5b600061236285828601611f79565b925050602083013567ffffffffffffffff81111561238357612382611d31565b5b61238f8582860161230f565b9150509250929050565b600080604083850312156123b0576123af611d2c565b5b60006123be85828601611f79565b92505060206123cf85828601611f79565b9150509250929050565b7f4e487b7100000000000000000000000000000000000000000000000000000000600052602260045260246000fd5b6000600282049050600182168061242057607f821691505b602082108103612433576124326123d9565b5b50919050565b7f4552433732313a20617070726f76616c20746f2063757272656e74206f776e6560008201527f7200000000000000000000000000000000000000000000000000000000000000602082015250565b6000612495602183611dfc565b91506124a082612439565b604082019050919050565b600060208201905081810360008301526124c481612488565b9050919050565b7f4552433732313a20617070726f76652063616c6c6572206973206e6f7420746f60008201527f6b656e206f776e6572206f7220617070726f76656420666f7220616c6c000000602082015250565b6000612527603d83611dfc565b9150612532826124cb565b604082019050919050565b600060208201905081810360008301526125568161251a565b9050919050565b7f4552433732313a2063616c6c6572206973206e6f7420746f6b656e206f776e6560008201527f72206f7220617070726f76656400000000000000000000000000000000000000602082015250565b60006125b9602d83611dfc565b91506125c48261255d565b604082019050919050565b600060208201905081810360008301526125e8816125ac565b9050919050565b7f4552433732313a20696e76616c696420746f6b656e2049440000000000000000600082015250565b6000612625601883611dfc565b9150612630826125ef565b602082019050919050565b6000602082019050818103600083015261265481612618565b9050919050565b7f4552433732313a2061646472657373207a65726f206973206e6f74206120766160008201527f6c6964206f776e65720000000000000000000000000000000000000000000000602082015250565b60006126b7602983611dfc565b91506126c28261265b565b604082019050919050565b600060208201905081810360008301526126e6816126aa565b9050919050565b7f4f776e61626c653a206e6577206f776e657220697320746865207a65726f206160008201527f6464726573730000000000000000000000000000000000000000000000000000602082015250565b6000612749602683611dfc565b9150612754826126ed565b604082019050919050565b600060208201905081810360008301526127788161273c565b9050919050565b7f4552433732313a207472616e736665722066726f6d20696e636f72726563742060008201527f6f776e6572000000000000000000000000000000000000000000000000000000602082015250565b60006127db602583611dfc565b91506127e68261277f565b604082019050919050565b6000602082019050818103600083015261280a816127ce565b9050919050565b7f4552433732313a207472616e7366657220746f20746865207a65726f2061646460008201527f7265737300000000000000000000000000000000000000000000000000000000602082015250565b600061286d602483611dfc565b915061287882612811565b604082019050919050565b6000602082019050818103600083015261289c81612860565b9050919050565b7f4f776e61626c653a2063616c6c6572206973206e6f7420746865206f776e6572600082015250565b60006128d9602083611dfc565b91506128e4826128a3565b602082019050919050565b60006020820190508181036000830152612908816128cc565b9050919050565b7f4552433732313a20617070726f766520746f2063616c6c657200000000000000600082015250565b6000612945601983611dfc565b91506129508261290f565b602082019050919050565b6000602082019050818103600083015261297481612938565b9050919050565b7f4552433732313a207472616e7366657220746f206e6f6e20455243373231526560008201527f63656976657220696d706c656d656e7465720000000000000000000000000000602082015250565b60006129d7603283611dfc565b91506129e28261297b565b604082019050919050565b60006020820190508181036000830152612a06816129ca565b9050919050565b600081905092915050565b6000612a2382611df1565b612a2d8185612a0d565b9350612a3d818560208601611e0d565b80840191505092915050565b6000612a558285612a18565b9150612a618284612a18565b91508190509392505050565b7f45524337323155524953746f726167653a2055524920736574206f66206e6f6e60008201527f6578697374656e7420746f6b656e000000000000000000000000000000000000602082015250565b6000612ac9602e83611dfc565b9150612ad482612a6d565b604082019050919050565b60006020820190508181036000830152612af881612abc565b9050919050565b60008190508160005260206000209050919050565b60006020601f8301049050919050565b600082821b905092915050565b600060088302612b617fffffffffffffffffffffffffffffffffffffffffffffffffffffffffffffffff82612b24565b612b6b8683612b24565b95508019841693508086168417925050509392505050565b6000819050919050565b6000612ba8612ba3612b9e84611ea3565b612b83565b611ea3565b9050919050565b6000819050919050565b612bc283612b8d565b612bd6612bce82612baf565b848454612b31565b825550505050565b600090565b612beb612bde565b612bf6818484612bb9565b505050565b5b81811015612c1a57612c0f600082612be3565b600181019050612bfc565b5050565b601f821115612c5f57612c3081612aff565b612c3984612b14565b81016020851015612c48578190505b612c5c612c5485612b14565b830182612bfb565b50505b505050565b600082821c905092915050565b6000612c8260001984600802612c64565b1980831691505092915050565b6000612c9b8383612c71565b9150826002028217905092915050565b612cb482611df1565b67ffffffffffffffff811115612ccd57612ccc6120ee565b5b612cd78254612408565b612ce2828285612c1e565b600060209050601f831160018114612d155760008415612d03578287015190505b612d0d8582612c8f565b865550612d75565b601f198416612d2386612aff565b60005b82811015612d4b57848901518255600182019150602085019450602081019050612d26565b86831015612d685784890151612d64601f891682612c71565b8355505b6001600288020188555050505b505050505050565b7f4e487b7100000000000000000000000000000000000000000000000000000000600052601160045260246000fd5b6000612db782611ea3565b9150612dc283611ea3565b9250828203905081811115612dda57612dd9612d7d565b5b92915050565b6000612deb82611ea3565b9150612df683611ea3565b9250828201905080821115612e0e57612e0d612d7d565b5b92915050565b600081519050919050565b600082825260208201905092915050565b6000612e3b82612e14565b612e458185612e1f565b9350612e55818560208601611e0d565b612e5e81611e37565b840191505092915050565b6000608082019050612e7e6000830187611f38565b612e8b6020830186611f38565b612e986040830185612021565b8181036060830152612eaa8184612e30565b905095945050505050565b600081519050612ec481611d62565b92915050565b600060208284031215612ee057612edf611d2c565b5b6000612eee84828501612eb5565b91505092915050565b7f4e487b7100000000000000000000000000000000000000000000000000000000600052601260045260246000fd5b7f4552433732313a206d696e7420746f20746865207a65726f2061646472657373600082015250565b6000612f5c602083611dfc565b9150612f6782612f26565b602082019050919050565b60006020820190508181036000830152612f8b81612f4f565b9050919050565b7f4552433732313a20746f6b656e20616c7265616479206d696e74656400000000600082015250565b6000612fc8601c83611dfc565b9150612fd382612f92565b602082019050919050565b60006020820190508181036000830152612ff781612fbb565b905091905056fea26469706673582212204b42d2a58f95d381e452681b6f9b01d3b104780bef395aaf5172aa47edbaf6a564736f6c63430008110033",
  "linkReferences": {},
  "deployedLinkReferences": {}
}