{
  "_format": "hh-sol-artifact-1",
  "contractName": "Products",
  "sourceName": "contracts/Products.sol",
  "abi": [
    {
      "inputs": [],
      "stateMutability": "nonpayable",
      "type": "constructor"
    },
    {
      "inputs": [
        {
          "internalType": "uint256",
          "name": "_id",
          "type": "uint256"
        },
        {
          "internalType": "string",
          "name": "_ipfsLink",
          "type": "string"
        }
      ],
      "name": "addProduct",
      "outputs": [],
      "stateMutability": "nonpayable",
      "type": "function"
    },
    {
      "inputs": [
        {
          "internalType": "uint256",
          "name": "_id",
          "type": "uint256"
        }
      ],
      "name": "getProductDetails",
      "outputs": [
        {
          "internalType": "string",
          "name": "",
          "type": "string"
        }
      ],
      "stateMutability": "view",
      "type": "function"
    },
    {
      "inputs": [],
      "name": "getProductId",
      "outputs": [
        {
          "internalType": "uint256",
          "name": "",
          "type": "uint256"
        }
      ],
      "stateMutability": "view",
      "type": "function"
    },
    {
      "inputs": [],
      "name": "maxProductID",
      "outputs": [
        {
          "internalType": "uint256",
          "name": "",
          "type": "uint256"
        }
      ],
      "stateMutability": "view",
      "type": "function"
    },
    {
      "inputs": [
        {
          "internalType": "uint256",
          "name": "",
          "type": "uint256"
        }
      ],
      "name": "products",
      "outputs": [
        {
          "internalType": "string",
          "name": "",
          "type": "string"
        }
      ],
      "stateMutability": "view",
      "type": "function"
    },
    {
      "inputs": [
        {
          "internalType": "uint256",
          "name": "_id",
          "type": "uint256"
        },
        {
          "internalType": "string",
          "name": "_ipfsLink",
          "type": "string"
        }
      ],
      "name": "updateProduct",
      "outputs": [],
      "stateMutability": "nonpayable",
      "type": "function"
    }
  ],
  "bytecode": "0x608060405234801561001057600080fd5b506000600181905550610beb806100286000396000f3fe608060405234801561001057600080fd5b50600436106100625760003560e01c806323cd950a14610067578063522ae8b6146100835780636813b53b1461009f5780637ac87732146100cf5780637acc0b20146100ed57806390f2f29b1461011d575b600080fd5b610081600480360381019061007c91906105dc565b61013b565b005b61009d600480360381019061009891906105dc565b610201565b005b6100b960048036038101906100b49190610638565b6102b3565b6040516100c691906106e4565b60405180910390f35b6100d761039c565b6040516100e49190610715565b60405180910390f35b61010760048036038101906101029190610638565b6103a6565b60405161011491906106e4565b60405180910390f35b610125610446565b6040516101329190610715565b60405180910390f35b60008190506000815111610184576040517f08c379a000000000000000000000000000000000000000000000000000000000815260040161017b9061077c565b60405180910390fd5b60008310156101c8576040517f08c379a00000000000000000000000000000000000000000000000000000000081526004016101bf906107e8565b60405180910390fd5b8160008085815260200190815260200160002090816101e79190610a14565b50600180546101f69190610b15565b600181905550505050565b6000819050600081511161024a576040517f08c379a00000000000000000000000000000000000000000000000000000000081526004016102419061077c565b60405180910390fd5b600154831061028e576040517f08c379a000000000000000000000000000000000000000000000000000000000815260040161028590610b95565b60405180910390fd5b8160008085815260200190815260200160002090816102ad9190610a14565b50505050565b60606001548211156102fa576040517f08c379a00000000000000000000000000000000000000000000000000000000081526004016102f190610b95565b60405180910390fd5b600080838152602001908152602001600020805461031790610837565b80601f016020809104026020016040519081016040528092919081815260200182805461034390610837565b80156103905780601f1061036557610100808354040283529160200191610390565b820191906000526020600020905b81548152906001019060200180831161037357829003601f168201915b50505050509050919050565b6000600154905090565b600060205280600052604060002060009150905080546103c590610837565b80601f01602080910402602001604051908101604052809291908181526020018280546103f190610837565b801561043e5780601f106104135761010080835404028352916020019161043e565b820191906000526020600020905b81548152906001019060200180831161042157829003601f168201915b505050505081565b60015481565b6000604051905090565b600080fd5b600080fd5b6000819050919050565b61047381610460565b811461047e57600080fd5b50565b6000813590506104908161046a565b92915050565b600080fd5b600080fd5b6000601f19601f8301169050919050565b7f4e487b7100000000000000000000000000000000000000000000000000000000600052604160045260246000fd5b6104e9826104a0565b810181811067ffffffffffffffff82111715610508576105076104b1565b5b80604052505050565b600061051b61044c565b905061052782826104e0565b919050565b600067ffffffffffffffff821115610547576105466104b1565b5b610550826104a0565b9050602081019050919050565b82818337600083830152505050565b600061057f61057a8461052c565b610511565b90508281526020810184848401111561059b5761059a61049b565b5b6105a684828561055d565b509392505050565b600082601f8301126105c3576105c2610496565b5b81356105d384826020860161056c565b91505092915050565b600080604083850312156105f3576105f2610456565b5b600061060185828601610481565b925050602083013567ffffffffffffffff8111156106225761062161045b565b5b61062e858286016105ae565b9150509250929050565b60006020828403121561064e5761064d610456565b5b600061065c84828501610481565b91505092915050565b600081519050919050565b600082825260208201905092915050565b60005b8381101561069f578082015181840152602081019050610684565b60008484015250505050565b60006106b682610665565b6106c08185610670565b93506106d0818560208601610681565b6106d9816104a0565b840191505092915050565b600060208201905081810360008301526106fe81846106ab565b905092915050565b61070f81610460565b82525050565b600060208201905061072a6000830184610706565b92915050565b7f49504653204c696e6b2063616e277420626520656d7074790000000000000000600082015250565b6000610766601883610670565b915061077182610730565b602082019050919050565b6000602082019050818103600083015261079581610759565b9050919050565b7f4944206973207265717569726564000000000000000000000000000000000000600082015250565b60006107d2600e83610670565b91506107dd8261079c565b602082019050919050565b60006020820190508181036000830152610801816107c5565b9050919050565b7f4e487b7100000000000000000000000000000000000000000000000000000000600052602260045260246000fd5b6000600282049050600182168061084f57607f821691505b60208210810361086257610861610808565b5b50919050565b60008190508160005260206000209050919050565b60006020601f8301049050919050565b600082821b905092915050565b6000600883026108ca7fffffffffffffffffffffffffffffffffffffffffffffffffffffffffffffffff8261088d565b6108d4868361088d565b95508019841693508086168417925050509392505050565b6000819050919050565b600061091161090c61090784610460565b6108ec565b610460565b9050919050565b6000819050919050565b61092b836108f6565b61093f61093782610918565b84845461089a565b825550505050565b600090565b610954610947565b61095f818484610922565b505050565b5b818110156109835761097860008261094c565b600181019050610965565b5050565b601f8211156109c85761099981610868565b6109a28461087d565b810160208510156109b1578190505b6109c56109bd8561087d565b830182610964565b50505b505050565b600082821c905092915050565b60006109eb600019846008026109cd565b1980831691505092915050565b6000610a0483836109da565b9150826002028217905092915050565b610a1d82610665565b67ffffffffffffffff811115610a3657610a356104b1565b5b610a408254610837565b610a4b828285610987565b600060209050601f831160018114610a7e5760008415610a6c578287015190505b610a7685826109f8565b865550610ade565b601f198416610a8c86610868565b60005b82811015610ab457848901518255600182019150602085019450602081019050610a8f565b86831015610ad15784890151610acd601f8916826109da565b8355505b6001600288020188555050505b505050505050565b7f4e487b7100000000000000000000000000000000000000000000000000000000600052601160045260246000fd5b6000610b2082610460565b9150610b2b83610460565b9250828201905080821115610b4357610b42610ae6565b5b92915050565b7f50726f64756374204944206e6f7420666f756e64000000000000000000000000600082015250565b6000610b7f601483610670565b9150610b8a82610b49565b602082019050919050565b60006020820190508181036000830152610bae81610b72565b905091905056fea26469706673582212208b491c605fb5212e53737b0904887c8e83cec56162e9f93b3127fb2c44a5e92364736f6c63430008110033",
  "linkReferences": {},
  "deployedLinkReferences": {}
}