{
    "_format": "hh-sol-artifact-1",
    "contractName": "Warranty",
    "sourceName": "contracts/Warranty.sol",
    "abi": [
        {
            "inputs": [],
            "stateMutability": "nonpayable",
            "type": "constructor"
        },
        {
            "inputs": [],
            "name": "addManufacturer",
            "outputs": [],
            "stateMutability": "nonpayable",
            "type": "function"
        },
        {
            "inputs": [
                {
                    "internalType": "uint256",
                    "name": "_id",
                    "type": "uint256"
                },
                {
                    "internalType": "string",
                    "name": "_ipfsLink",
                    "type": "string"
                }
            ],
            "name": "addProduct",
            "outputs": [],
            "stateMutability": "nonpayable",
            "type": "function"
        },
        {
            "inputs": [
                {
                    "internalType": "address",
                    "name": "_radd",
                    "type": "address"
                }
            ],
            "name": "addRetailer",
            "outputs": [],
            "stateMutability": "nonpayable",
            "type": "function"
        },
        {
            "inputs": [],
            "name": "checkUser",
            "outputs": [
                {
                    "internalType": "uint256",
                    "name": "",
                    "type": "uint256"
                }
            ],
            "stateMutability": "view",
            "type": "function"
        },
        {
            "inputs": [],
            "name": "cid",
            "outputs": [
                {
                    "internalType": "uint256",
                    "name": "",
                    "type": "uint256"
                }
            ],
            "stateMutability": "view",
            "type": "function"
        },
        {
            "inputs": [
                {
                    "internalType": "uint256",
                    "name": "_id",
                    "type": "uint256"
                }
            ],
            "name": "getProductDetails",
            "outputs": [
                {
                    "internalType": "string",
                    "name": "",
                    "type": "string"
                }
            ],
            "stateMutability": "view",
            "type": "function"
        },
        {
            "inputs": [],
            "name": "getProductId",
            "outputs": [
                {
                    "internalType": "uint256",
                    "name": "",
                    "type": "uint256"
                }
            ],
            "stateMutability": "view",
            "type": "function"
        },
        {
            "inputs": [
                {
                    "internalType": "address",
                    "name": "",
                    "type": "address"
                }
            ],
            "name": "manufacturers",
            "outputs": [
                {
                    "internalType": "uint256",
                    "name": "id",
                    "type": "uint256"
                },
                {
                    "internalType": "address",
                    "name": "add",
                    "type": "address"
                }
            ],
            "stateMutability": "view",
            "type": "function"
        },
        {
            "inputs": [
                {
                    "internalType": "uint256",
                    "name": "",
                    "type": "uint256"
                }
            ],
            "name": "products",
            "outputs": [
                {
                    "internalType": "string",
                    "name": "",
                    "type": "string"
                }
            ],
            "stateMutability": "view",
            "type": "function"
        },
        {
            "inputs": [
                {
                    "internalType": "address",
                    "name": "",
                    "type": "address"
                }
            ],
            "name": "retailers",
            "outputs": [
                {
                    "internalType": "uint256",
                    "name": "id",
                    "type": "uint256"
                },
                {
                    "internalType": "address",
                    "name": "madd",
                    "type": "address"
                },
                {
                    "internalType": "address",
                    "name": "radd",
                    "type": "address"
                }
            ],
            "stateMutability": "view",
            "type": "function"
        },
        {
            "inputs": [
                {
                    "internalType": "uint256",
                    "name": "_id",
                    "type": "uint256"
                },
                {
                    "internalType": "string",
                    "name": "_ipfsLink",
                    "type": "string"
                }
            ],
            "name": "updateProduct",
            "outputs": [],
            "stateMutability": "nonpayable",
            "type": "function"
        }
    ],
    "bytecode": "0x608060405234801561001057600080fd5b5060016003819055506111b2806100286000396000f3fe608060405234801561001057600080fd5b50600436106100a95760003560e01c80637acc0b20116100715780637acc0b20146101655780638ec4f505146101955780639a268f35146101b1578063a2c66c36146101e3578063aa3ec0a9146101ed578063c15625471461020b576100a9565b806323cd950a146100ae578063522ae8b6146100ca5780636813b53b146100e65780636b5eb09c146101165780637ac8773214610147575b600080fd5b6100c860048036038101906100c39190610a66565b610229565b005b6100e460048036038101906100df9190610a66565b6102f3565b005b61010060048036038101906100fb9190610ac2565b6103b4565b60405161010d9190610b6e565b60405180910390f35b610130600480360381019061012b9190610bee565b6104ab565b60405161013e929190610c39565b60405180910390f35b61014f6104ef565b60405161015c9190610c62565b60405180910390f35b61017f600480360381019061017a9190610ac2565b6104fb565b60405161018c9190610b6e565b60405180910390f35b6101af60048036038101906101aa9190610bee565b6105a7565b005b6101cb60048036038101906101c69190610bee565b6106e1565b6040516101da93929190610c7d565b60405180910390f35b6101eb61074b565b005b6101f5610821565b6040516102029190610c62565b60405180910390f35b610213610827565b6040516102209190610c62565b60405180910390f35b60008190506000815111610272576040517f08c379a000000000000000000000000000000000000000000000000000000000815260040161026990610d00565b60405180910390fd5b60008054905083146102b9576040517f08c379a00000000000000000000000000000000000000000000000000000000081526004016102b090610d6c565b60405180910390fd5b6000829080600181540180825580915050600190039060005260206000200160009091909190915090816102ed9190610f98565b50505050565b6000819050600081511161033c576040517f08c379a000000000000000000000000000000000000000000000000000000000815260040161033390610d00565b60405180910390fd5b6000805490508310610383576040517f08c379a000000000000000000000000000000000000000000000000000000000815260040161037a906110b6565b60405180910390fd5b8160008481548110610398576103976110d6565b5b9060005260206000200190816103ae9190610f98565b50505050565b606060008054905082106103fd576040517f08c379a00000000000000000000000000000000000000000000000000000000081526004016103f4906110b6565b60405180910390fd5b60008281548110610411576104106110d6565b5b90600052602060002001805461042690610dbb565b80601f016020809104026020016040519081016040528092919081815260200182805461045290610dbb565b801561049f5780601f106104745761010080835404028352916020019161049f565b820191906000526020600020905b81548152906001019060200180831161048257829003601f168201915b50505050509050919050565b60016020528060005260406000206000915090508060000154908060010160009054906101000a900473ffffffffffffffffffffffffffffffffffffffff16905082565b60008080549050905090565b6000818154811061050b57600080fd5b90600052602060002001600091509050805461052690610dbb565b80601f016020809104026020016040519081016040528092919081815260200182805461055290610dbb565b801561059f5780601f106105745761010080835404028352916020019161059f565b820191906000526020600020905b81548152906001019060200180831161058257829003601f168201915b505050505081565b6040518060600160405280600360008154809291906105c590611134565b9190505581526020013373ffffffffffffffffffffffffffffffffffffffff1681526020018273ffffffffffffffffffffffffffffffffffffffff16815250600260008373ffffffffffffffffffffffffffffffffffffffff1673ffffffffffffffffffffffffffffffffffffffff1681526020019081526020016000206000820151816000015560208201518160010160006101000a81548173ffffffffffffffffffffffffffffffffffffffff021916908373ffffffffffffffffffffffffffffffffffffffff16021790555060408201518160020160006101000a81548173ffffffffffffffffffffffffffffffffffffffff021916908373ffffffffffffffffffffffffffffffffffffffff16021790555090505050565b60026020528060005260406000206000915090508060000154908060010160009054906101000a900473ffffffffffffffffffffffffffffffffffffffff16908060020160009054906101000a900473ffffffffffffffffffffffffffffffffffffffff16905083565b60405180604001604052806003600081548092919061076990611134565b9190505581526020013373ffffffffffffffffffffffffffffffffffffffff16815250600160003373ffffffffffffffffffffffffffffffffffffffff1673ffffffffffffffffffffffffffffffffffffffff1681526020019081526020016000206000820151816000015560208201518160010160006101000a81548173ffffffffffffffffffffffffffffffffffffffff021916908373ffffffffffffffffffffffffffffffffffffffff160217905550905050565b60035481565b600080600160003373ffffffffffffffffffffffffffffffffffffffff1673ffffffffffffffffffffffffffffffffffffffff168152602001908152602001600020600001541461087b57600090506108d3565b6000600260003373ffffffffffffffffffffffffffffffffffffffff1673ffffffffffffffffffffffffffffffffffffffff16815260200190815260200160002060000154146108ce57600190506108d3565b600290505b90565b6000604051905090565b600080fd5b600080fd5b6000819050919050565b6108fd816108ea565b811461090857600080fd5b50565b60008135905061091a816108f4565b92915050565b600080fd5b600080fd5b6000601f19601f8301169050919050565b7f4e487b7100000000000000000000000000000000000000000000000000000000600052604160045260246000fd5b6109738261092a565b810181811067ffffffffffffffff821117156109925761099161093b565b5b80604052505050565b60006109a56108d6565b90506109b1828261096a565b919050565b600067ffffffffffffffff8211156109d1576109d061093b565b5b6109da8261092a565b9050602081019050919050565b82818337600083830152505050565b6000610a09610a04846109b6565b61099b565b905082815260208101848484011115610a2557610a24610925565b5b610a308482856109e7565b509392505050565b600082601f830112610a4d57610a4c610920565b5b8135610a5d8482602086016109f6565b91505092915050565b60008060408385031215610a7d57610a7c6108e0565b5b6000610a8b8582860161090b565b925050602083013567ffffffffffffffff811115610aac57610aab6108e5565b5b610ab885828601610a38565b9150509250929050565b600060208284031215610ad857610ad76108e0565b5b6000610ae68482850161090b565b91505092915050565b600081519050919050565b600082825260208201905092915050565b60005b83811015610b29578082015181840152602081019050610b0e565b60008484015250505050565b6000610b4082610aef565b610b4a8185610afa565b9350610b5a818560208601610b0b565b610b638161092a565b840191505092915050565b60006020820190508181036000830152610b888184610b35565b905092915050565b600073ffffffffffffffffffffffffffffffffffffffff82169050919050565b6000610bbb82610b90565b9050919050565b610bcb81610bb0565b8114610bd657600080fd5b50565b600081359050610be881610bc2565b92915050565b600060208284031215610c0457610c036108e0565b5b6000610c1284828501610bd9565b91505092915050565b610c24816108ea565b82525050565b610c3381610bb0565b82525050565b6000604082019050610c4e6000830185610c1b565b610c5b6020830184610c2a565b9392505050565b6000602082019050610c776000830184610c1b565b92915050565b6000606082019050610c926000830186610c1b565b610c9f6020830185610c2a565b610cac6040830184610c2a565b949350505050565b7f49504653204c696e6b2063616e277420626520656d7074790000000000000000600082015250565b6000610cea601883610afa565b9150610cf582610cb4565b602082019050919050565b60006020820190508181036000830152610d1981610cdd565b9050919050565b7f77726f6e642070726f6475637420494400000000000000000000000000000000600082015250565b6000610d56601083610afa565b9150610d6182610d20565b602082019050919050565b60006020820190508181036000830152610d8581610d49565b9050919050565b7f4e487b7100000000000000000000000000000000000000000000000000000000600052602260045260246000fd5b60006002820490506001821680610dd357607f821691505b602082108103610de657610de5610d8c565b5b50919050565b60008190508160005260206000209050919050565b60006020601f8301049050919050565b600082821b905092915050565b600060088302610e4e7fffffffffffffffffffffffffffffffffffffffffffffffffffffffffffffffff82610e11565b610e588683610e11565b95508019841693508086168417925050509392505050565b6000819050919050565b6000610e95610e90610e8b846108ea565b610e70565b6108ea565b9050919050565b6000819050919050565b610eaf83610e7a565b610ec3610ebb82610e9c565b848454610e1e565b825550505050565b600090565b610ed8610ecb565b610ee3818484610ea6565b505050565b5b81811015610f0757610efc600082610ed0565b600181019050610ee9565b5050565b601f821115610f4c57610f1d81610dec565b610f2684610e01565b81016020851015610f35578190505b610f49610f4185610e01565b830182610ee8565b50505b505050565b600082821c905092915050565b6000610f6f60001984600802610f51565b1980831691505092915050565b6000610f888383610f5e565b9150826002028217905092915050565b610fa182610aef565b67ffffffffffffffff811115610fba57610fb961093b565b5b610fc48254610dbb565b610fcf828285610f0b565b600060209050601f8311600181146110025760008415610ff0578287015190505b610ffa8582610f7c565b865550611062565b601f19841661101086610dec565b60005b8281101561103857848901518255600182019150602085019450602081019050611013565b868310156110555784890151611051601f891682610f5e565b8355505b6001600288020188555050505b505050505050565b7f50726f64756374204944206e6f7420666f756e64000000000000000000000000600082015250565b60006110a0601483610afa565b91506110ab8261106a565b602082019050919050565b600060208201905081810360008301526110cf81611093565b9050919050565b7f4e487b7100000000000000000000000000000000000000000000000000000000600052603260045260246000fd5b7f4e487b7100000000000000000000000000000000000000000000000000000000600052601160045260246000fd5b600061113f826108ea565b91507fffffffffffffffffffffffffffffffffffffffffffffffffffffffffffffffff820361117157611170611105565b5b60018201905091905056fea264697066735822122033f18ce5a939613d12a631d63c2189bce19653cb75b083a52b275ac2d4314e5664736f6c63430008110033",
    "linkReferences": {},
    "deployedLinkReferences": {}
}