{
  "_format": "hh-sol-artifact-1",
  "contractName": "Warranty",
  "sourceName": "contracts/Warranty.sol",
  "abi": [
    {
      "inputs": [],
      "stateMutability": "nonpayable",
      "type": "constructor"
    },
    {
      "anonymous": false,
      "inputs": [
        {
          "indexed": true,
          "internalType": "address",
          "name": "owner",
          "type": "address"
        },
        {
          "indexed": true,
          "internalType": "address",
          "name": "approved",
          "type": "address"
        },
        {
          "indexed": true,
          "internalType": "uint256",
          "name": "tokenId",
          "type": "uint256"
        }
      ],
      "name": "Approval",
      "type": "event"
    },
    {
      "anonymous": false,
      "inputs": [
        {
          "indexed": true,
          "internalType": "address",
          "name": "owner",
          "type": "address"
        },
        {
          "indexed": true,
          "internalType": "address",
          "name": "operator",
          "type": "address"
        },
        {
          "indexed": false,
          "internalType": "bool",
          "name": "approved",
          "type": "bool"
        }
      ],
      "name": "ApprovalForAll",
      "type": "event"
    },
    {
      "anonymous": false,
      "inputs": [
        {
          "indexed": true,
          "internalType": "address",
          "name": "previousOwner",
          "type": "address"
        },
        {
          "indexed": true,
          "internalType": "address",
          "name": "newOwner",
          "type": "address"
        }
      ],
      "name": "OwnershipTransferred",
      "type": "event"
    },
    {
      "anonymous": false,
      "inputs": [
        {
          "indexed": true,
          "internalType": "address",
          "name": "from",
          "type": "address"
        },
        {
          "indexed": true,
          "internalType": "address",
          "name": "to",
          "type": "address"
        },
        {
          "indexed": true,
          "internalType": "uint256",
          "name": "tokenId",
          "type": "uint256"
        }
      ],
      "name": "Transfer",
      "type": "event"
    },
    {
      "inputs": [
        {
          "internalType": "uint256",
          "name": "_id",
          "type": "uint256"
        }
      ],
      "name": "activateWarranty",
      "outputs": [],
      "stateMutability": "nonpayable",
      "type": "function"
    },
    {
      "inputs": [],
      "name": "addManufacturer",
      "outputs": [],
      "stateMutability": "nonpayable",
      "type": "function"
    },
    {
      "inputs": [
        {
          "internalType": "string",
          "name": "_title",
          "type": "string"
        },
        {
          "internalType": "uint256",
          "name": "_id",
          "type": "uint256"
        },
        {
          "internalType": "string",
          "name": "_product_image",
          "type": "string"
        },
        {
          "internalType": "string",
          "name": "_desc",
          "type": "string"
        },
        {
          "internalType": "uint256",
          "name": "_expiry_time",
          "type": "uint256"
        }
      ],
      "name": "addProduct",
      "outputs": [],
      "stateMutability": "nonpayable",
      "type": "function"
    },
    {
      "inputs": [
        {
          "internalType": "address",
          "name": "_radd",
          "type": "address"
        }
      ],
      "name": "addRetailer",
      "outputs": [],
      "stateMutability": "nonpayable",
      "type": "function"
    },
    {
      "inputs": [
        {
          "internalType": "address",
          "name": "to",
          "type": "address"
        },
        {
          "internalType": "uint256",
          "name": "tokenId",
          "type": "uint256"
        }
      ],
      "name": "approve",
      "outputs": [],
      "stateMutability": "nonpayable",
      "type": "function"
    },
    {
      "inputs": [
        {
          "internalType": "address",
          "name": "owner",
          "type": "address"
        }
      ],
      "name": "balanceOf",
      "outputs": [
        {
          "internalType": "uint256",
          "name": "",
          "type": "uint256"
        }
      ],
      "stateMutability": "view",
      "type": "function"
    },
    {
      "inputs": [
        {
          "internalType": "uint256",
          "name": "tokenId",
          "type": "uint256"
        }
      ],
      "name": "burnNft",
      "outputs": [],
      "stateMutability": "nonpayable",
      "type": "function"
    },
    {
      "inputs": [
        {
          "internalType": "uint256",
          "name": "tokenId",
          "type": "uint256"
        }
      ],
      "name": "checkActiveStatus",
      "outputs": [
        {
          "internalType": "bool",
          "name": "",
          "type": "bool"
        }
      ],
      "stateMutability": "view",
      "type": "function"
    },
    {
      "inputs": [],
      "name": "checkUser",
      "outputs": [
        {
          "internalType": "uint256",
          "name": "",
          "type": "uint256"
        }
      ],
      "stateMutability": "view",
      "type": "function"
    },
    {
      "inputs": [],
      "name": "cid",
      "outputs": [
        {
          "internalType": "uint256",
          "name": "",
          "type": "uint256"
        }
      ],
      "stateMutability": "view",
      "type": "function"
    },
    {
      "inputs": [
        {
          "internalType": "uint256",
          "name": "tokenId",
          "type": "uint256"
        }
      ],
      "name": "getApproved",
      "outputs": [
        {
          "internalType": "address",
          "name": "",
          "type": "address"
        }
      ],
      "stateMutability": "view",
      "type": "function"
    },
    {
      "inputs": [
        {
          "internalType": "uint256",
          "name": "tokenId",
          "type": "uint256"
        }
      ],
      "name": "getExpiryTimeById",
      "outputs": [
        {
          "internalType": "uint256",
          "name": "",
          "type": "uint256"
        }
      ],
      "stateMutability": "view",
      "type": "function"
    },
    {
      "inputs": [
        {
          "internalType": "uint256",
          "name": "_id",
          "type": "uint256"
        }
      ],
      "name": "getProductDetails",
      "outputs": [
        {
          "components": [
            {
              "internalType": "string",
              "name": "title",
              "type": "string"
            },
            {
              "internalType": "uint256",
              "name": "id",
              "type": "uint256"
            },
            {
              "internalType": "string",
              "name": "product_image",
              "type": "string"
            },
            {
              "internalType": "string",
              "name": "desc",
              "type": "string"
            },
            {
              "internalType": "uint256",
              "name": "activate_time",
              "type": "uint256"
            },
            {
              "internalType": "uint256",
              "name": "expiry_time",
              "type": "uint256"
            },
            {
              "internalType": "address",
              "name": "manufacturer",
              "type": "address"
            },
            {
              "internalType": "address",
              "name": "retailer",
              "type": "address"
            },
            {
              "internalType": "address",
              "name": "customer",
              "type": "address"
            },
            {
              "internalType": "enum Warranty.product_status",
              "name": "status",
              "type": "uint8"
            },
            {
              "internalType": "address[]",
              "name": "history",
              "type": "address[]"
            }
          ],
          "internalType": "struct Warranty.product_details",
          "name": "",
          "type": "tuple"
        }
      ],
      "stateMutability": "view",
      "type": "function"
    },
    {
      "inputs": [],
      "name": "getProductId",
      "outputs": [
        {
          "internalType": "uint256",
          "name": "",
          "type": "uint256"
        }
      ],
      "stateMutability": "view",
      "type": "function"
    },
    {
      "inputs": [],
      "name": "getProducts",
      "outputs": [
        {
          "components": [
            {
              "internalType": "string",
              "name": "title",
              "type": "string"
            },
            {
              "internalType": "uint256",
              "name": "id",
              "type": "uint256"
            },
            {
              "internalType": "string",
              "name": "product_image",
              "type": "string"
            },
            {
              "internalType": "string",
              "name": "desc",
              "type": "string"
            },
            {
              "internalType": "uint256",
              "name": "activate_time",
              "type": "uint256"
            },
            {
              "internalType": "uint256",
              "name": "expiry_time",
              "type": "uint256"
            },
            {
              "internalType": "address",
              "name": "manufacturer",
              "type": "address"
            },
            {
              "internalType": "address",
              "name": "retailer",
              "type": "address"
            },
            {
              "internalType": "address",
              "name": "customer",
              "type": "address"
            },
            {
              "internalType": "enum Warranty.product_status",
              "name": "status",
              "type": "uint8"
            },
            {
              "internalType": "address[]",
              "name": "history",
              "type": "address[]"
            }
          ],
          "internalType": "struct Warranty.product_details[]",
          "name": "",
          "type": "tuple[]"
        }
      ],
      "stateMutability": "view",
      "type": "function"
    },
    {
      "inputs": [
        {
          "internalType": "address",
          "name": "owner",
          "type": "address"
        },
        {
          "internalType": "address",
          "name": "operator",
          "type": "address"
        }
      ],
      "name": "isApprovedForAll",
      "outputs": [
        {
          "internalType": "bool",
          "name": "",
          "type": "bool"
        }
      ],
      "stateMutability": "view",
      "type": "function"
    },
    {
      "inputs": [
        {
          "internalType": "address",
          "name": "",
          "type": "address"
        }
      ],
      "name": "manufacturers",
      "outputs": [
        {
          "internalType": "uint256",
          "name": "id",
          "type": "uint256"
        },
        {
          "internalType": "address",
          "name": "add",
          "type": "address"
        }
      ],
      "stateMutability": "view",
      "type": "function"
    },
    {
      "inputs": [],
      "name": "name",
      "outputs": [
        {
          "internalType": "string",
          "name": "",
          "type": "string"
        }
      ],
      "stateMutability": "view",
      "type": "function"
    },
    {
      "inputs": [],
      "name": "owner",
      "outputs": [
        {
          "internalType": "address",
          "name": "",
          "type": "address"
        }
      ],
      "stateMutability": "view",
      "type": "function"
    },
    {
      "inputs": [
        {
          "internalType": "uint256",
          "name": "tokenId",
          "type": "uint256"
        }
      ],
      "name": "ownerOf",
      "outputs": [
        {
          "internalType": "address",
          "name": "",
          "type": "address"
        }
      ],
      "stateMutability": "view",
      "type": "function"
    },
    {
      "inputs": [
        {
          "internalType": "uint256",
          "name": "",
          "type": "uint256"
        }
      ],
      "name": "products",
      "outputs": [
        {
          "internalType": "string",
          "name": "title",
          "type": "string"
        },
        {
          "internalType": "uint256",
          "name": "id",
          "type": "uint256"
        },
        {
          "internalType": "string",
          "name": "product_image",
          "type": "string"
        },
        {
          "internalType": "string",
          "name": "desc",
          "type": "string"
        },
        {
          "internalType": "uint256",
          "name": "activate_time",
          "type": "uint256"
        },
        {
          "internalType": "uint256",
          "name": "expiry_time",
          "type": "uint256"
        },
        {
          "internalType": "address",
          "name": "manufacturer",
          "type": "address"
        },
        {
          "internalType": "address",
          "name": "retailer",
          "type": "address"
        },
        {
          "internalType": "address",
          "name": "customer",
          "type": "address"
        },
        {
          "internalType": "enum Warranty.product_status",
          "name": "status",
          "type": "uint8"
        }
      ],
      "stateMutability": "view",
      "type": "function"
    },
    {
      "inputs": [],
      "name": "renounceOwnership",
      "outputs": [],
      "stateMutability": "nonpayable",
      "type": "function"
    },
    {
      "inputs": [
        {
          "internalType": "uint256",
          "name": "_id",
          "type": "uint256"
        },
        {
          "internalType": "address",
          "name": "to",
          "type": "address"
        }
      ],
      "name": "resellProduct",
      "outputs": [],
      "stateMutability": "nonpayable",
      "type": "function"
    },
    {
      "inputs": [
        {
          "internalType": "address",
          "name": "",
          "type": "address"
        }
      ],
      "name": "retailers",
      "outputs": [
        {
          "internalType": "uint256",
          "name": "id",
          "type": "uint256"
        },
        {
          "internalType": "address",
          "name": "madd",
          "type": "address"
        },
        {
          "internalType": "address",
          "name": "radd",
          "type": "address"
        }
      ],
      "stateMutability": "view",
      "type": "function"
    },
    {
      "inputs": [
        {
          "internalType": "string",
          "name": "uri",
          "type": "string"
        },
        {
          "internalType": "uint256",
          "name": "tokenId",
          "type": "uint256"
        }
      ],
      "name": "safeMint",
      "outputs": [
        {
          "internalType": "uint256",
          "name": "tokenIdMinted",
          "type": "uint256"
        }
      ],
      "stateMutability": "nonpayable",
      "type": "function"
    },
    {
      "inputs": [
        {
          "internalType": "address",
          "name": "from",
          "type": "address"
        },
        {
          "internalType": "address",
          "name": "to",
          "type": "address"
        },
        {
          "internalType": "uint256",
          "name": "tokenId",
          "type": "uint256"
        }
      ],
      "name": "safeTransferFrom",
      "outputs": [],
      "stateMutability": "nonpayable",
      "type": "function"
    },
    {
      "inputs": [
        {
          "internalType": "address",
          "name": "from",
          "type": "address"
        },
        {
          "internalType": "address",
          "name": "to",
          "type": "address"
        },
        {
          "internalType": "uint256",
          "name": "tokenId",
          "type": "uint256"
        },
        {
          "internalType": "bytes",
          "name": "data",
          "type": "bytes"
        }
      ],
      "name": "safeTransferFrom",
      "outputs": [],
      "stateMutability": "nonpayable",
      "type": "function"
    },
    {
      "inputs": [
        {
          "internalType": "uint256",
          "name": "_id",
          "type": "uint256"
        },
        {
          "internalType": "address",
          "name": "_customer",
          "type": "address"
        }
      ],
      "name": "sellProduct",
      "outputs": [],
      "stateMutability": "nonpayable",
      "type": "function"
    },
    {
      "inputs": [
        {
          "internalType": "address",
          "name": "operator",
          "type": "address"
        },
        {
          "internalType": "bool",
          "name": "approved",
          "type": "bool"
        }
      ],
      "name": "setApprovalForAll",
      "outputs": [],
      "stateMutability": "nonpayable",
      "type": "function"
    },
    {
      "inputs": [
        {
          "internalType": "bytes4",
          "name": "interfaceId",
          "type": "bytes4"
        }
      ],
      "name": "supportsInterface",
      "outputs": [
        {
          "internalType": "bool",
          "name": "",
          "type": "bool"
        }
      ],
      "stateMutability": "view",
      "type": "function"
    },
    {
      "inputs": [],
      "name": "symbol",
      "outputs": [
        {
          "internalType": "string",
          "name": "",
          "type": "string"
        }
      ],
      "stateMutability": "view",
      "type": "function"
    },
    {
      "inputs": [
        {
          "internalType": "uint256",
          "name": "tokenId",
          "type": "uint256"
        }
      ],
      "name": "tokenURI",
      "outputs": [
        {
          "internalType": "string",
          "name": "",
          "type": "string"
        }
      ],
      "stateMutability": "view",
      "type": "function"
    },
    {
      "inputs": [
        {
          "internalType": "address",
          "name": "from",
          "type": "address"
        },
        {
          "internalType": "address",
          "name": "to",
          "type": "address"
        },
        {
          "internalType": "uint256",
          "name": "tokenId",
          "type": "uint256"
        }
      ],
      "name": "transferFrom",
      "outputs": [],
      "stateMutability": "nonpayable",
      "type": "function"
    },
    {
      "inputs": [
        {
          "internalType": "uint256",
          "name": "_id",
          "type": "uint256"
        },
        {
          "internalType": "address",
          "name": "_to",
          "type": "address"
        }
      ],
      "name": "transferNFT",
      "outputs": [],
      "stateMutability": "nonpayable",
      "type": "function"
    },
    {
      "inputs": [
        {
          "internalType": "address",
          "name": "newOwner",
          "type": "address"
        }
      ],
      "name": "transferOwnership",
      "outputs": [],
      "stateMutability": "nonpayable",
      "type": "function"
    }
  ],
  "bytecode": "0x60806040523480156200001157600080fd5b506040518060400160405280600b81526020017f4e465457617272616e74790000000000000000000000000000000000000000008152506040518060400160405280600481526020017f4e4654570000000000000000000000000000000000000000000000000000000081525081600090816200008f91906200041a565b508060019081620000a191906200041a565b505050620000c4620000b8620000d260201b60201c565b620000da60201b60201c565b6001600b8190555062000501565b600033905090565b6000600760009054906101000a900473ffffffffffffffffffffffffffffffffffffffff16905081600760006101000a81548173ffffffffffffffffffffffffffffffffffffffff021916908373ffffffffffffffffffffffffffffffffffffffff1602179055508173ffffffffffffffffffffffffffffffffffffffff168173ffffffffffffffffffffffffffffffffffffffff167f8be0079c531659141344cd1fd0a4f28419497f9722a3daafe3b4186f6b6457e060405160405180910390a35050565b600081519050919050565b7f4e487b7100000000000000000000000000000000000000000000000000000000600052604160045260246000fd5b7f4e487b7100000000000000000000000000000000000000000000000000000000600052602260045260246000fd5b600060028204905060018216806200022257607f821691505b602082108103620002385762000237620001da565b5b50919050565b60008190508160005260206000209050919050565b60006020601f8301049050919050565b600082821b905092915050565b600060088302620002a27fffffffffffffffffffffffffffffffffffffffffffffffffffffffffffffffff8262000263565b620002ae868362000263565b95508019841693508086168417925050509392505050565b6000819050919050565b6000819050919050565b6000620002fb620002f5620002ef84620002c6565b620002d0565b620002c6565b9050919050565b6000819050919050565b6200031783620002da565b6200032f620003268262000302565b84845462000270565b825550505050565b600090565b6200034662000337565b620003538184846200030c565b505050565b5b818110156200037b576200036f6000826200033c565b60018101905062000359565b5050565b601f821115620003ca5762000394816200023e565b6200039f8462000253565b81016020851015620003af578190505b620003c7620003be8562000253565b83018262000358565b50505b505050565b600082821c905092915050565b6000620003ef60001984600802620003cf565b1980831691505092915050565b60006200040a8383620003dc565b9150826002028217905092915050565b6200042582620001a0565b67ffffffffffffffff811115620004415762000440620001ab565b5b6200044d825462000209565b6200045a8282856200037f565b600060209050601f8311600181146200049257600084156200047d578287015190505b620004898582620003fc565b865550620004f9565b601f198416620004a2866200023e565b60005b82811015620004cc57848901518255600182019150602085019450602081019050620004a5565b86831015620004ec5784890151620004e8601f891682620003dc565b8355505b6001600288020188555050505b505050505050565b61598480620005116000396000f3fe608060405234801561001057600080fd5b50600436106102115760003560e01c80637a32f2f511610125578063a2c66c36116100ad578063c15625471161007c578063c15625471461062c578063c29b2f201461064a578063c87b56dd14610668578063e985e9c514610698578063f2fde38b146106c857610211565b8063a2c66c36146105b8578063aa22a344146105c2578063aa3ec0a9146105f2578063b88d4fde1461061057610211565b80638ec4f505116100f45780638ec4f505146105145780639036c0501461053057806395d89b411461054c5780639a268f351461056a578063a22cb4651461059c57610211565b80637a32f2f51461046f5780637ac877321461049f5780637acc0b20146104bd5780638da5cb5b146104f657610211565b80633d5efefe116101a85780636352211e116101775780636352211e146103a45780636813b53b146103d45780636b5eb09c1461040457806370a0823114610435578063715018a61461046557610211565b80633d5efefe1461032057806342842e0e1461033c57806346b145e114610358578063519812de1461038857610211565b80630b569140116101e45780630b569140146102b057806315c54951146102cc57806323b872dd146102e85780632a6627681461030457610211565b806301ffc9a71461021657806306fdde0314610246578063081812fc14610264578063095ea7b314610294575b600080fd5b610230600480360381019061022b9190613c02565b6106e4565b60405161023d9190613c4a565b60405180910390f35b61024e6107c6565b60405161025b9190613cf5565b60405180910390f35b61027e60048036038101906102799190613d4d565b610858565b60405161028b9190613dbb565b60405180910390f35b6102ae60048036038101906102a99190613e02565b61089e565b005b6102ca60048036038101906102c59190613e42565b6109b5565b005b6102e660048036038101906102e19190613e42565b610d44565b005b61030260048036038101906102fd9190613e82565b610f2c565b005b61031e60048036038101906103199190613d4d565b610f8c565b005b61033a60048036038101906103359190613d4d565b61113e565b005b61035660048036038101906103519190613e82565b61114a565b005b610372600480360381019061036d919061400a565b61116a565b60405161037f9190614075565b60405180910390f35b6103a2600480360381019061039d9190614090565b611189565b005b6103be60048036038101906103b99190613d4d565b611555565b6040516103cb9190613dbb565b60405180910390f35b6103ee60048036038101906103e99190613d4d565b6115db565b6040516103fb91906143f1565b60405180910390f35b61041e60048036038101906104199190614413565b6119fe565b60405161042c929190614440565b60405180910390f35b61044f600480360381019061044a9190614413565b611a42565b60405161045c9190614075565b60405180910390f35b61046d611af9565b005b61048960048036038101906104849190613d4d565b611b0d565b6040516104969190613c4a565b60405180910390f35b6104a7611b70565b6040516104b49190614075565b60405180910390f35b6104d760048036038101906104d29190613d4d565b611b7d565b6040516104ed9a99989796959493929190614478565b60405180910390f35b6104fe611de6565b60405161050b9190613dbb565b60405180910390f35b61052e60048036038101906105299190614413565b611e10565b005b61054a60048036038101906105459190613e42565b611f95565b005b610554611fa4565b6040516105619190613cf5565b60405180910390f35b610584600480360381019061057f9190614413565b612036565b60405161059393929190614529565b60405180910390f35b6105b660048036038101906105b1919061458c565b6120a0565b005b6105c06120b6565b005b6105dc60048036038101906105d79190613d4d565b61218c565b6040516105e99190614075565b60405180910390f35b6105fa6121bb565b6040516106079190614075565b60405180910390f35b61062a6004803603810190610625919061466d565b6121c1565b005b610634612223565b6040516106419190614075565b60405180910390f35b6106526122d2565b60405161065f91906148b6565b60405180910390f35b610682600480360381019061067d9190613d4d565b6126d1565b60405161068f9190613cf5565b60405180910390f35b6106b260048036038101906106ad91906148d8565b6126e3565b6040516106bf9190613c4a565b60405180910390f35b6106e260048036038101906106dd9190614413565b612777565b005b60007f80ac58cd000000000000000000000000000000000000000000000000000000007bffffffffffffffffffffffffffffffffffffffffffffffffffffffff1916827bffffffffffffffffffffffffffffffffffffffffffffffffffffffff191614806107af57507f5b5e139f000000000000000000000000000000000000000000000000000000007bffffffffffffffffffffffffffffffffffffffffffffffffffffffff1916827bffffffffffffffffffffffffffffffffffffffffffffffffffffffff1916145b806107bf57506107be826127fa565b5b9050919050565b6060600080546107d590614947565b80601f016020809104026020016040519081016040528092919081815260200182805461080190614947565b801561084e5780601f106108235761010080835404028352916020019161084e565b820191906000526020600020905b81548152906001019060200180831161083157829003601f168201915b5050505050905090565b600061086382612864565b6004600083815260200190815260200160002060009054906101000a900473ffffffffffffffffffffffffffffffffffffffff169050919050565b60006108a982611555565b90508073ffffffffffffffffffffffffffffffffffffffff168373ffffffffffffffffffffffffffffffffffffffff1603610919576040517f08c379a0000000000000000000000000000000000000000000000000000000008152600401610910906149ea565b60405180910390fd5b8073ffffffffffffffffffffffffffffffffffffffff166109386128af565b73ffffffffffffffffffffffffffffffffffffffff1614806109675750610966816109616128af565b6126e3565b5b6109a6576040517f08c379a000000000000000000000000000000000000000000000000000000000815260040161099d90614a7c565b60405180910390fd5b6109b083836128b7565b505050565b60088054905082106109fc576040517f08c379a00000000000000000000000000000000000000000000000000000000081526004016109f390614ae8565b60405180910390fd5b60088281548110610a1057610a0f614b08565b5b90600052602060002090600a020160060160009054906101000a900473ffffffffffffffffffffffffffffffffffffffff1673ffffffffffffffffffffffffffffffffffffffff16600a60003373ffffffffffffffffffffffffffffffffffffffff1673ffffffffffffffffffffffffffffffffffffffff16815260200190815260200160002060010160009054906101000a900473ffffffffffffffffffffffffffffffffffffffff1673ffffffffffffffffffffffffffffffffffffffff1614610b11576040517f08c379a0000000000000000000000000000000000000000000000000000000008152600401610b0890614ba9565b60405180910390fd5b4260088381548110610b2657610b25614b08565b5b90600052602060002090600a020160040181905550639cbf904060088381548110610b5457610b53614b08565b5b90600052602060002090600a020160050154610b709190614bf8565b42610b7b9190614c3a565b60088381548110610b8f57610b8e614b08565b5b90600052602060002090600a0201600501819055503360088381548110610bb957610bb8614b08565b5b90600052602060002090600a020160070160006101000a81548173ffffffffffffffffffffffffffffffffffffffff021916908373ffffffffffffffffffffffffffffffffffffffff1602179055508060088381548110610c1d57610c1c614b08565b5b90600052602060002090600a020160080160006101000a81548173ffffffffffffffffffffffffffffffffffffffff021916908373ffffffffffffffffffffffffffffffffffffffff160217905550600160088381548110610c8257610c81614b08565b5b90600052602060002090600a020160080160146101000a81548160ff02191690836003811115610cb557610cb46141c7565b5b021790555060088281548110610cce57610ccd614b08565b5b90600052602060002090600a0201600901819080600181540180825580915050600190039060005260206000200160009091909190916101000a81548173ffffffffffffffffffffffffffffffffffffffff021916908373ffffffffffffffffffffffffffffffffffffffff1602179055505050565b6008805490508210610d8b576040517f08c379a0000000000000000000000000000000000000000000000000000000008152600401610d8290614ae8565b60405180910390fd5b3373ffffffffffffffffffffffffffffffffffffffff1660088381548110610db657610db5614b08565b5b90600052602060002090600a020160080160009054906101000a900473ffffffffffffffffffffffffffffffffffffffff1673ffffffffffffffffffffffffffffffffffffffff1614610e3e576040517f08c379a0000000000000000000000000000000000000000000000000000000008152600401610e3590614ce0565b60405180910390fd5b8060088381548110610e5357610e52614b08565b5b90600052602060002090600a020160080160006101000a81548173ffffffffffffffffffffffffffffffffffffffff021916908373ffffffffffffffffffffffffffffffffffffffff16021790555060088281548110610eb657610eb5614b08565b5b90600052602060002090600a0201600901819080600181540180825580915050600190039060005260206000200160009091909190916101000a81548173ffffffffffffffffffffffffffffffffffffffff021916908373ffffffffffffffffffffffffffffffffffffffff1602179055505050565b610f3d610f376128af565b82612970565b610f7c576040517f08c379a0000000000000000000000000000000000000000000000000000000008152600401610f7390614d72565b60405180910390fd5b610f87838383612a05565b505050565b6008805490508110610fd3576040517f08c379a0000000000000000000000000000000000000000000000000000000008152600401610fca90614ae8565b60405180910390fd5b3373ffffffffffffffffffffffffffffffffffffffff1660088281548110610ffe57610ffd614b08565b5b90600052602060002090600a020160080160009054906101000a900473ffffffffffffffffffffffffffffffffffffffff1673ffffffffffffffffffffffffffffffffffffffff1614611086576040517f08c379a000000000000000000000000000000000000000000000000000000000815260040161107d90614ce0565b60405180910390fd5b6008818154811061109a57611099614b08565b5b90600052602060002090600a02016005015442106110ed576040517f08c379a00000000000000000000000000000000000000000000000000000000081526004016110e490614dde565b60405180910390fd5b60026008828154811061110357611102614b08565b5b90600052602060002090600a020160080160146101000a81548160ff02191690836003811115611136576111356141c7565b5b021790555050565b61114781612cfe565b50565b611165838383604051806020016040528060008152506121c1565b505050565b60006111763383612e4c565b6111808284612e6a565b81905092915050565b600081116111cc576040517f08c379a00000000000000000000000000000000000000000000000000000000081526004016111c390614e70565b60405180910390fd5b3373ffffffffffffffffffffffffffffffffffffffff16600960003373ffffffffffffffffffffffffffffffffffffffff1673ffffffffffffffffffffffffffffffffffffffff16815260200190815260200160002060010160009054906101000a900473ffffffffffffffffffffffffffffffffffffffff1673ffffffffffffffffffffffffffffffffffffffff161461129c576040517f08c379a000000000000000000000000000000000000000000000000000000000815260040161129390614f02565b60405180910390fd5b60088054905084146112e3576040517f08c379a00000000000000000000000000000000000000000000000000000000081526004016112da90614f6e565b60405180910390fd5b60008160006112f29190614c3a565b905060606008604051806101600160405280898152602001888152602001878152602001868152602001600081526020018481526020013373ffffffffffffffffffffffffffffffffffffffff168152602001600073ffffffffffffffffffffffffffffffffffffffff168152602001600073ffffffffffffffffffffffffffffffffffffffff16815260200160006003811115611393576113926141c7565b5b81526020018381525090806001815401808255809150506001900390600052602060002090600a020160009091909190915060008201518160000190816113da919061513a565b506020820151816001015560408201518160020190816113fa919061513a565b506060820151816003019081611410919061513a565b506080820151816004015560a0820151816005015560c08201518160060160006101000a81548173ffffffffffffffffffffffffffffffffffffffff021916908373ffffffffffffffffffffffffffffffffffffffff16021790555060e08201518160070160006101000a81548173ffffffffffffffffffffffffffffffffffffffff021916908373ffffffffffffffffffffffffffffffffffffffff1602179055506101008201518160080160006101000a81548173ffffffffffffffffffffffffffffffffffffffff021916908373ffffffffffffffffffffffffffffffffffffffff1602179055506101208201518160080160146101000a81548160ff02191690836003811115611527576115266141c7565b5b0217905550610140820151816009019080519060200190611549929190613a41565b50505050505050505050565b60008061156183612ed7565b9050600073ffffffffffffffffffffffffffffffffffffffff168173ffffffffffffffffffffffffffffffffffffffff16036115d2576040517f08c379a00000000000000000000000000000000000000000000000000000000081526004016115c990615258565b60405180910390fd5b80915050919050565b6115e3613acb565b600880549050821061162a576040517f08c379a000000000000000000000000000000000000000000000000000000000815260040161162190614ae8565b60405180910390fd5b6008828154811061163e5761163d614b08565b5b90600052602060002090600a02016040518061016001604052908160008201805461166890614947565b80601f016020809104026020016040519081016040528092919081815260200182805461169490614947565b80156116e15780601f106116b6576101008083540402835291602001916116e1565b820191906000526020600020905b8154815290600101906020018083116116c457829003601f168201915b505050505081526020016001820154815260200160028201805461170490614947565b80601f016020809104026020016040519081016040528092919081815260200182805461173090614947565b801561177d5780601f106117525761010080835404028352916020019161177d565b820191906000526020600020905b81548152906001019060200180831161176057829003601f168201915b5050505050815260200160038201805461179690614947565b80601f01602080910402602001604051908101604052809291908181526020018280546117c290614947565b801561180f5780601f106117e45761010080835404028352916020019161180f565b820191906000526020600020905b8154815290600101906020018083116117f257829003601f168201915b5050505050815260200160048201548152602001600582015481526020016006820160009054906101000a900473ffffffffffffffffffffffffffffffffffffffff1673ffffffffffffffffffffffffffffffffffffffff1673ffffffffffffffffffffffffffffffffffffffff1681526020016007820160009054906101000a900473ffffffffffffffffffffffffffffffffffffffff1673ffffffffffffffffffffffffffffffffffffffff1673ffffffffffffffffffffffffffffffffffffffff1681526020016008820160009054906101000a900473ffffffffffffffffffffffffffffffffffffffff1673ffffffffffffffffffffffffffffffffffffffff1673ffffffffffffffffffffffffffffffffffffffff1681526020016008820160149054906101000a900460ff166003811115611953576119526141c7565b5b6003811115611965576119646141c7565b5b8152602001600982018054806020026020016040519081016040528092919081815260200182805480156119ee57602002820191906000526020600020905b8160009054906101000a900473ffffffffffffffffffffffffffffffffffffffff1673ffffffffffffffffffffffffffffffffffffffff16815260200190600101908083116119a4575b5050505050815250509050919050565b60096020528060005260406000206000915090508060000154908060010160009054906101000a900473ffffffffffffffffffffffffffffffffffffffff16905082565b60008073ffffffffffffffffffffffffffffffffffffffff168273ffffffffffffffffffffffffffffffffffffffff1603611ab2576040517f08c379a0000000000000000000000000000000000000000000000000000000008152600401611aa9906152ea565b60405180910390fd5b600360008373ffffffffffffffffffffffffffffffffffffffff1673ffffffffffffffffffffffffffffffffffffffff168152602001908152602001600020549050919050565b611b01612f14565b611b0b6000612f92565b565b600060026003811115611b2357611b226141c7565b5b60088381548110611b3757611b36614b08565b5b90600052602060002090600a020160080160149054906101000a900460ff166003811115611b6857611b676141c7565b5b149050919050565b6000600880549050905090565b60088181548110611b8d57600080fd5b90600052602060002090600a0201600091509050806000018054611bb090614947565b80601f0160208091040260200160405190810160405280929190818152602001828054611bdc90614947565b8015611c295780601f10611bfe57610100808354040283529160200191611c29565b820191906000526020600020905b815481529060010190602001808311611c0c57829003601f168201915b505050505090806001015490806002018054611c4490614947565b80601f0160208091040260200160405190810160405280929190818152602001828054611c7090614947565b8015611cbd5780601f10611c9257610100808354040283529160200191611cbd565b820191906000526020600020905b815481529060010190602001808311611ca057829003601f168201915b505050505090806003018054611cd290614947565b80601f0160208091040260200160405190810160405280929190818152602001828054611cfe90614947565b8015611d4b5780601f10611d2057610100808354040283529160200191611d4b565b820191906000526020600020905b815481529060010190602001808311611d2e57829003601f168201915b5050505050908060040154908060050154908060060160009054906101000a900473ffffffffffffffffffffffffffffffffffffffff16908060070160009054906101000a900473ffffffffffffffffffffffffffffffffffffffff16908060080160009054906101000a900473ffffffffffffffffffffffffffffffffffffffff16908060080160149054906101000a900460ff1690508a565b6000600760009054906101000a900473ffffffffffffffffffffffffffffffffffffffff16905090565b6000600960003373ffffffffffffffffffffffffffffffffffffffff1673ffffffffffffffffffffffffffffffffffffffff1681526020019081526020016000206000015414611f92576040518060600160405280600b6000815480929190611e789061530a565b9190505581526020013373ffffffffffffffffffffffffffffffffffffffff1681526020018273ffffffffffffffffffffffffffffffffffffffff16815250600a60008373ffffffffffffffffffffffffffffffffffffffff1673ffffffffffffffffffffffffffffffffffffffff1681526020019081526020016000206000820151816000015560208201518160010160006101000a81548173ffffffffffffffffffffffffffffffffffffffff021916908373ffffffffffffffffffffffffffffffffffffffff16021790555060408201518160020160006101000a81548173ffffffffffffffffffffffffffffffffffffffff021916908373ffffffffffffffffffffffffffffffffffffffff1602179055509050505b50565b611fa0338284612a05565b5050565b606060018054611fb390614947565b80601f0160208091040260200160405190810160405280929190818152602001828054611fdf90614947565b801561202c5780601f106120015761010080835404028352916020019161202c565b820191906000526020600020905b81548152906001019060200180831161200f57829003601f168201915b5050505050905090565b600a6020528060005260406000206000915090508060000154908060010160009054906101000a900473ffffffffffffffffffffffffffffffffffffffff16908060020160009054906101000a900473ffffffffffffffffffffffffffffffffffffffff16905083565b6120b26120ab6128af565b8383613058565b5050565b6040518060400160405280600b60008154809291906120d49061530a565b9190505581526020013373ffffffffffffffffffffffffffffffffffffffff16815250600960003373ffffffffffffffffffffffffffffffffffffffff1673ffffffffffffffffffffffffffffffffffffffff1681526020019081526020016000206000820151816000015560208201518160010160006101000a81548173ffffffffffffffffffffffffffffffffffffffff021916908373ffffffffffffffffffffffffffffffffffffffff160217905550905050565b6000600882815481106121a2576121a1614b08565b5b90600052602060002090600a0201600501549050919050565b600b5481565b6121d26121cc6128af565b83612970565b612211576040517f08c379a000000000000000000000000000000000000000000000000000000000815260040161220890614d72565b60405180910390fd5b61221d848484846131c4565b50505050565b600080600960003373ffffffffffffffffffffffffffffffffffffffff1673ffffffffffffffffffffffffffffffffffffffff168152602001908152602001600020600001541461227757600090506122cf565b6000600a60003373ffffffffffffffffffffffffffffffffffffffff1673ffffffffffffffffffffffffffffffffffffffff16815260200190815260200160002060000154146122ca57600190506122cf565b600290505b90565b60606008805480602002602001604051908101604052809291908181526020016000905b828210156126c857838290600052602060002090600a02016040518061016001604052908160008201805461232a90614947565b80601f016020809104026020016040519081016040528092919081815260200182805461235690614947565b80156123a35780601f10612378576101008083540402835291602001916123a3565b820191906000526020600020905b81548152906001019060200180831161238657829003601f168201915b50505050508152602001600182015481526020016002820180546123c690614947565b80601f01602080910402602001604051908101604052809291908181526020018280546123f290614947565b801561243f5780601f106124145761010080835404028352916020019161243f565b820191906000526020600020905b81548152906001019060200180831161242257829003601f168201915b5050505050815260200160038201805461245890614947565b80601f016020809104026020016040519081016040528092919081815260200182805461248490614947565b80156124d15780601f106124a6576101008083540402835291602001916124d1565b820191906000526020600020905b8154815290600101906020018083116124b457829003601f168201915b5050505050815260200160048201548152602001600582015481526020016006820160009054906101000a900473ffffffffffffffffffffffffffffffffffffffff1673ffffffffffffffffffffffffffffffffffffffff1673ffffffffffffffffffffffffffffffffffffffff1681526020016007820160009054906101000a900473ffffffffffffffffffffffffffffffffffffffff1673ffffffffffffffffffffffffffffffffffffffff1673ffffffffffffffffffffffffffffffffffffffff1681526020016008820160009054906101000a900473ffffffffffffffffffffffffffffffffffffffff1673ffffffffffffffffffffffffffffffffffffffff1673ffffffffffffffffffffffffffffffffffffffff1681526020016008820160149054906101000a900460ff166003811115612615576126146141c7565b5b6003811115612627576126266141c7565b5b8152602001600982018054806020026020016040519081016040528092919081815260200182805480156126b057602002820191906000526020600020905b8160009054906101000a900473ffffffffffffffffffffffffffffffffffffffff1673ffffffffffffffffffffffffffffffffffffffff1681526020019060010190808311612666575b505050505081525050815260200190600101906122f6565b50505050905090565b60606126dc82613220565b9050919050565b6000600560008473ffffffffffffffffffffffffffffffffffffffff1673ffffffffffffffffffffffffffffffffffffffff16815260200190815260200160002060008373ffffffffffffffffffffffffffffffffffffffff1673ffffffffffffffffffffffffffffffffffffffff16815260200190815260200160002060009054906101000a900460ff16905092915050565b61277f612f14565b600073ffffffffffffffffffffffffffffffffffffffff168173ffffffffffffffffffffffffffffffffffffffff16036127ee576040517f08c379a00000000000000000000000000000000000000000000000000000000081526004016127e5906153c4565b60405180910390fd5b6127f781612f92565b50565b60007f01ffc9a7000000000000000000000000000000000000000000000000000000007bffffffffffffffffffffffffffffffffffffffffffffffffffffffff1916827bffffffffffffffffffffffffffffffffffffffffffffffffffffffff1916149050919050565b61286d81613332565b6128ac576040517f08c379a00000000000000000000000000000000000000000000000000000000081526004016128a390615258565b60405180910390fd5b50565b600033905090565b816004600083815260200190815260200160002060006101000a81548173ffffffffffffffffffffffffffffffffffffffff021916908373ffffffffffffffffffffffffffffffffffffffff160217905550808273ffffffffffffffffffffffffffffffffffffffff1661292a83611555565b73ffffffffffffffffffffffffffffffffffffffff167f8c5be1e5ebec7d5bd14f71427d1e84f3dd0314c0f7b2291e5b200ac8c7c3b92560405160405180910390a45050565b60008061297c83611555565b90508073ffffffffffffffffffffffffffffffffffffffff168473ffffffffffffffffffffffffffffffffffffffff1614806129be57506129bd81856126e3565b5b806129fc57508373ffffffffffffffffffffffffffffffffffffffff166129e484610858565b73ffffffffffffffffffffffffffffffffffffffff16145b91505092915050565b8273ffffffffffffffffffffffffffffffffffffffff16612a2582611555565b73ffffffffffffffffffffffffffffffffffffffff1614612a7b576040517f08c379a0000000000000000000000000000000000000000000000000000000008152600401612a7290615456565b60405180910390fd5b600073ffffffffffffffffffffffffffffffffffffffff168273ffffffffffffffffffffffffffffffffffffffff1603612aea576040517f08c379a0000000000000000000000000000000000000000000000000000000008152600401612ae1906154e8565b60405180910390fd5b612af78383836001613373565b8273ffffffffffffffffffffffffffffffffffffffff16612b1782611555565b73ffffffffffffffffffffffffffffffffffffffff1614612b6d576040517f08c379a0000000000000000000000000000000000000000000000000000000008152600401612b6490615456565b60405180910390fd5b6004600082815260200190815260200160002060006101000a81549073ffffffffffffffffffffffffffffffffffffffff02191690556001600360008573ffffffffffffffffffffffffffffffffffffffff1673ffffffffffffffffffffffffffffffffffffffff168152602001908152602001600020600082825403925050819055506001600360008473ffffffffffffffffffffffffffffffffffffffff1673ffffffffffffffffffffffffffffffffffffffff16815260200190815260200160002060008282540192505081905550816002600083815260200190815260200160002060006101000a81548173ffffffffffffffffffffffffffffffffffffffff021916908373ffffffffffffffffffffffffffffffffffffffff160217905550808273ffffffffffffffffffffffffffffffffffffffff168473ffffffffffffffffffffffffffffffffffffffff167fddf252ad1be2c89b69c2b068fc378daa952ba7f163c4a11628f55a4df523b3ef60405160405180910390a4612cf98383836001613379565b505050565b6000612d0982611555565b9050612d19816000846001613373565b612d2282611555565b90506004600083815260200190815260200160002060006101000a81549073ffffffffffffffffffffffffffffffffffffffff02191690556001600360008373ffffffffffffffffffffffffffffffffffffffff1673ffffffffffffffffffffffffffffffffffffffff168152602001908152602001600020600082825403925050819055506002600083815260200190815260200160002060006101000a81549073ffffffffffffffffffffffffffffffffffffffff021916905581600073ffffffffffffffffffffffffffffffffffffffff168273ffffffffffffffffffffffffffffffffffffffff167fddf252ad1be2c89b69c2b068fc378daa952ba7f163c4a11628f55a4df523b3ef60405160405180910390a4612e48816000846001613379565b5050565b612e6682826040518060200160405280600081525061337f565b5050565b612e7382613332565b612eb2576040517f08c379a0000000000000000000000000000000000000000000000000000000008152600401612ea99061557a565b60405180910390fd5b80600660008481526020019081526020016000209081612ed2919061513a565b505050565b60006002600083815260200190815260200160002060009054906101000a900473ffffffffffffffffffffffffffffffffffffffff169050919050565b612f1c6128af565b73ffffffffffffffffffffffffffffffffffffffff16612f3a611de6565b73ffffffffffffffffffffffffffffffffffffffff1614612f90576040517f08c379a0000000000000000000000000000000000000000000000000000000008152600401612f87906155e6565b60405180910390fd5b565b6000600760009054906101000a900473ffffffffffffffffffffffffffffffffffffffff16905081600760006101000a81548173ffffffffffffffffffffffffffffffffffffffff021916908373ffffffffffffffffffffffffffffffffffffffff1602179055508173ffffffffffffffffffffffffffffffffffffffff168173ffffffffffffffffffffffffffffffffffffffff167f8be0079c531659141344cd1fd0a4f28419497f9722a3daafe3b4186f6b6457e060405160405180910390a35050565b8173ffffffffffffffffffffffffffffffffffffffff168373ffffffffffffffffffffffffffffffffffffffff16036130c6576040517f08c379a00000000000000000000000000000000000000000000000000000000081526004016130bd90615652565b60405180910390fd5b80600560008573ffffffffffffffffffffffffffffffffffffffff1673ffffffffffffffffffffffffffffffffffffffff16815260200190815260200160002060008473ffffffffffffffffffffffffffffffffffffffff1673ffffffffffffffffffffffffffffffffffffffff16815260200190815260200160002060006101000a81548160ff0219169083151502179055508173ffffffffffffffffffffffffffffffffffffffff168373ffffffffffffffffffffffffffffffffffffffff167f17307eab39ab6107e8899845ad3d59bd9653f200f220920489ca2b5937696c31836040516131b79190613c4a565b60405180910390a3505050565b6131cf848484612a05565b6131db848484846133da565b61321a576040517f08c379a0000000000000000000000000000000000000000000000000000000008152600401613211906156e4565b60405180910390fd5b50505050565b606061322b82612864565b600060066000848152602001908152602001600020805461324b90614947565b80601f016020809104026020016040519081016040528092919081815260200182805461327790614947565b80156132c45780601f10613299576101008083540402835291602001916132c4565b820191906000526020600020905b8154815290600101906020018083116132a757829003601f168201915b5050505050905060006132d5613561565b905060008151036132ea57819250505061332d565b60008251111561331f578082604051602001613307929190615740565b6040516020818303038152906040529250505061332d565b61332884613578565b925050505b919050565b60008073ffffffffffffffffffffffffffffffffffffffff1661335483612ed7565b73ffffffffffffffffffffffffffffffffffffffff1614159050919050565b50505050565b50505050565b61338983836135e0565b61339660008484846133da565b6133d5576040517f08c379a00000000000000000000000000000000000000000000000000000000081526004016133cc906156e4565b60405180910390fd5b505050565b60006133fb8473ffffffffffffffffffffffffffffffffffffffff166137fd565b15613554578373ffffffffffffffffffffffffffffffffffffffff1663150b7a026134246128af565b8786866040518563ffffffff1660e01b815260040161344694939291906157b9565b6020604051808303816000875af192505050801561348257506040513d601f19601f8201168201806040525081019061347f919061581a565b60015b613504573d80600081146134b2576040519150601f19603f3d011682016040523d82523d6000602084013e6134b7565b606091505b5060008151036134fc576040517f08c379a00000000000000000000000000000000000000000000000000000000081526004016134f3906156e4565b60405180910390fd5b805181602001fd5b63150b7a0260e01b7bffffffffffffffffffffffffffffffffffffffffffffffffffffffff1916817bffffffffffffffffffffffffffffffffffffffffffffffffffffffff191614915050613559565b600190505b949350505050565b606060405180602001604052806000815250905090565b606061358382612864565b600061358d613561565b905060008151116135ad57604051806020016040528060008152506135d8565b806135b784613820565b6040516020016135c8929190615740565b6040516020818303038152906040525b915050919050565b600073ffffffffffffffffffffffffffffffffffffffff168273ffffffffffffffffffffffffffffffffffffffff160361364f576040517f08c379a000000000000000000000000000000000000000000000000000000000815260040161364690615893565b60405180910390fd5b61365881613332565b15613698576040517f08c379a000000000000000000000000000000000000000000000000000000000815260040161368f906158ff565b60405180910390fd5b6136a6600083836001613373565b6136af81613332565b156136ef576040517f08c379a00000000000000000000000000000000000000000000000000000000081526004016136e6906158ff565b60405180910390fd5b6001600360008473ffffffffffffffffffffffffffffffffffffffff1673ffffffffffffffffffffffffffffffffffffffff16815260200190815260200160002060008282540192505081905550816002600083815260200190815260200160002060006101000a81548173ffffffffffffffffffffffffffffffffffffffff021916908373ffffffffffffffffffffffffffffffffffffffff160217905550808273ffffffffffffffffffffffffffffffffffffffff16600073ffffffffffffffffffffffffffffffffffffffff167fddf252ad1be2c89b69c2b068fc378daa952ba7f163c4a11628f55a4df523b3ef60405160405180910390a46137f9600083836001613379565b5050565b6000808273ffffffffffffffffffffffffffffffffffffffff163b119050919050565b60606000600161382f846138ee565b01905060008167ffffffffffffffff81111561384e5761384d613edf565b5b6040519080825280601f01601f1916602001820160405280156138805781602001600182028036833780820191505090505b509050600082602001820190505b6001156138e3578080600190039150507f3031323334353637383961626364656600000000000000000000000000000000600a86061a8153600a85816138d7576138d661591f565b5b0494506000850361388e575b819350505050919050565b600080600090507a184f03e93ff9f4daa797ed6e38ed64bf6a1f010000000000000000831061394c577a184f03e93ff9f4daa797ed6e38ed64bf6a1f01000000000000000083816139425761394161591f565b5b0492506040810190505b6d04ee2d6d415b85acef81000000008310613989576d04ee2d6d415b85acef8100000000838161397f5761397e61591f565b5b0492506020810190505b662386f26fc1000083106139b857662386f26fc1000083816139ae576139ad61591f565b5b0492506010810190505b6305f5e10083106139e1576305f5e10083816139d7576139d661591f565b5b0492506008810190505b6127108310613a065761271083816139fc576139fb61591f565b5b0492506004810190505b60648310613a295760648381613a1f57613a1e61591f565b5b0492506002810190505b600a8310613a38576001810190505b80915050919050565b828054828255906000526020600020908101928215613aba579160200282015b82811115613ab95782518260006101000a81548173ffffffffffffffffffffffffffffffffffffffff021916908373ffffffffffffffffffffffffffffffffffffffff16021790555091602001919060010190613a61565b5b509050613ac79190613b79565b5090565b604051806101600160405280606081526020016000815260200160608152602001606081526020016000815260200160008152602001600073ffffffffffffffffffffffffffffffffffffffff168152602001600073ffffffffffffffffffffffffffffffffffffffff168152602001600073ffffffffffffffffffffffffffffffffffffffff16815260200160006003811115613b6c57613b6b6141c7565b5b8152602001606081525090565b5b80821115613b92576000816000905550600101613b7a565b5090565b6000604051905090565b600080fd5b600080fd5b60007fffffffff0000000000000000000000000000000000000000000000000000000082169050919050565b613bdf81613baa565b8114613bea57600080fd5b50565b600081359050613bfc81613bd6565b92915050565b600060208284031215613c1857613c17613ba0565b5b6000613c2684828501613bed565b91505092915050565b60008115159050919050565b613c4481613c2f565b82525050565b6000602082019050613c5f6000830184613c3b565b92915050565b600081519050919050565b600082825260208201905092915050565b60005b83811015613c9f578082015181840152602081019050613c84565b60008484015250505050565b6000601f19601f8301169050919050565b6000613cc782613c65565b613cd18185613c70565b9350613ce1818560208601613c81565b613cea81613cab565b840191505092915050565b60006020820190508181036000830152613d0f8184613cbc565b905092915050565b6000819050919050565b613d2a81613d17565b8114613d3557600080fd5b50565b600081359050613d4781613d21565b92915050565b600060208284031215613d6357613d62613ba0565b5b6000613d7184828501613d38565b91505092915050565b600073ffffffffffffffffffffffffffffffffffffffff82169050919050565b6000613da582613d7a565b9050919050565b613db581613d9a565b82525050565b6000602082019050613dd06000830184613dac565b92915050565b613ddf81613d9a565b8114613dea57600080fd5b50565b600081359050613dfc81613dd6565b92915050565b60008060408385031215613e1957613e18613ba0565b5b6000613e2785828601613ded565b9250506020613e3885828601613d38565b9150509250929050565b60008060408385031215613e5957613e58613ba0565b5b6000613e6785828601613d38565b9250506020613e7885828601613ded565b9150509250929050565b600080600060608486031215613e9b57613e9a613ba0565b5b6000613ea986828701613ded565b9350506020613eba86828701613ded565b9250506040613ecb86828701613d38565b9150509250925092565b600080fd5b600080fd5b7f4e487b7100000000000000000000000000000000000000000000000000000000600052604160045260246000fd5b613f1782613cab565b810181811067ffffffffffffffff82111715613f3657613f35613edf565b5b80604052505050565b6000613f49613b96565b9050613f558282613f0e565b919050565b600067ffffffffffffffff821115613f7557613f74613edf565b5b613f7e82613cab565b9050602081019050919050565b82818337600083830152505050565b6000613fad613fa884613f5a565b613f3f565b905082815260208101848484011115613fc957613fc8613eda565b5b613fd4848285613f8b565b509392505050565b600082601f830112613ff157613ff0613ed5565b5b8135614001848260208601613f9a565b91505092915050565b6000806040838503121561402157614020613ba0565b5b600083013567ffffffffffffffff81111561403f5761403e613ba5565b5b61404b85828601613fdc565b925050602061405c85828601613d38565b9150509250929050565b61406f81613d17565b82525050565b600060208201905061408a6000830184614066565b92915050565b600080600080600060a086880312156140ac576140ab613ba0565b5b600086013567ffffffffffffffff8111156140ca576140c9613ba5565b5b6140d688828901613fdc565b95505060206140e788828901613d38565b945050604086013567ffffffffffffffff81111561410857614107613ba5565b5b61411488828901613fdc565b935050606086013567ffffffffffffffff81111561413557614134613ba5565b5b61414188828901613fdc565b925050608061415288828901613d38565b9150509295509295909350565b600082825260208201905092915050565b600061417b82613c65565b614185818561415f565b9350614195818560208601613c81565b61419e81613cab565b840191505092915050565b6141b281613d17565b82525050565b6141c181613d9a565b82525050565b7f4e487b7100000000000000000000000000000000000000000000000000000000600052602160045260246000fd5b60048110614207576142066141c7565b5b50565b6000819050614218826141f6565b919050565b60006142288261420a565b9050919050565b6142388161421d565b82525050565b600081519050919050565b600082825260208201905092915050565b6000819050602082019050919050565b600061427683836141b8565b60208301905092915050565b6000602082019050919050565b600061429a8261423e565b6142a48185614249565b93506142af8361425a565b8060005b838110156142e05781516142c7888261426a565b97506142d283614282565b9250506001810190506142b3565b5085935050505092915050565b600061016083016000830151848203600086015261430b8282614170565b915050602083015161432060208601826141a9565b50604083015184820360408601526143388282614170565b915050606083015184820360608601526143528282614170565b915050608083015161436760808601826141a9565b5060a083015161437a60a08601826141a9565b5060c083015161438d60c08601826141b8565b5060e08301516143a060e08601826141b8565b506101008301516143b56101008601826141b8565b506101208301516143ca61012086018261422f565b506101408301518482036101408601526143e4828261428f565b9150508091505092915050565b6000602082019050818103600083015261440b81846142ed565b905092915050565b60006020828403121561442957614428613ba0565b5b600061443784828501613ded565b91505092915050565b60006040820190506144556000830185614066565b6144626020830184613dac565b9392505050565b6144728161421d565b82525050565b6000610140820190508181036000830152614493818d613cbc565b90506144a2602083018c614066565b81810360408301526144b4818b613cbc565b905081810360608301526144c8818a613cbc565b90506144d76080830189614066565b6144e460a0830188614066565b6144f160c0830187613dac565b6144fe60e0830186613dac565b61450c610100830185613dac565b61451a610120830184614469565b9b9a5050505050505050505050565b600060608201905061453e6000830186614066565b61454b6020830185613dac565b6145586040830184613dac565b949350505050565b61456981613c2f565b811461457457600080fd5b50565b60008135905061458681614560565b92915050565b600080604083850312156145a3576145a2613ba0565b5b60006145b185828601613ded565b92505060206145c285828601614577565b9150509250929050565b600067ffffffffffffffff8211156145e7576145e6613edf565b5b6145f082613cab565b9050602081019050919050565b600061461061460b846145cc565b613f3f565b90508281526020810184848401111561462c5761462b613eda565b5b614637848285613f8b565b509392505050565b600082601f83011261465457614653613ed5565b5b81356146648482602086016145fd565b91505092915050565b6000806000806080858703121561468757614686613ba0565b5b600061469587828801613ded565b94505060206146a687828801613ded565b93505060406146b787828801613d38565b925050606085013567ffffffffffffffff8111156146d8576146d7613ba5565b5b6146e48782880161463f565b91505092959194509250565b600081519050919050565b600082825260208201905092915050565b6000819050602082019050919050565b600061016083016000830151848203600086015261473a8282614170565b915050602083015161474f60208601826141a9565b50604083015184820360408601526147678282614170565b915050606083015184820360608601526147818282614170565b915050608083015161479660808601826141a9565b5060a08301516147a960a08601826141a9565b5060c08301516147bc60c08601826141b8565b5060e08301516147cf60e08601826141b8565b506101008301516147e46101008601826141b8565b506101208301516147f961012086018261422f565b50610140830151848203610140860152614813828261428f565b9150508091505092915050565b600061482c838361471c565b905092915050565b6000602082019050919050565b600061484c826146f0565b61485681856146fb565b9350836020820285016148688561470c565b8060005b858110156148a457848403895281516148858582614820565b945061489083614834565b925060208a0199505060018101905061486c565b50829750879550505050505092915050565b600060208201905081810360008301526148d08184614841565b905092915050565b600080604083850312156148ef576148ee613ba0565b5b60006148fd85828601613ded565b925050602061490e85828601613ded565b9150509250929050565b7f4e487b7100000000000000000000000000000000000000000000000000000000600052602260045260246000fd5b6000600282049050600182168061495f57607f821691505b60208210810361497257614971614918565b5b50919050565b7f4552433732313a20617070726f76616c20746f2063757272656e74206f776e6560008201527f7200000000000000000000000000000000000000000000000000000000000000602082015250565b60006149d4602183613c70565b91506149df82614978565b604082019050919050565b60006020820190508181036000830152614a03816149c7565b9050919050565b7f4552433732313a20617070726f76652063616c6c6572206973206e6f7420746f60008201527f6b656e206f776e6572206f7220617070726f76656420666f7220616c6c000000602082015250565b6000614a66603d83613c70565b9150614a7182614a0a565b604082019050919050565b60006020820190508181036000830152614a9581614a59565b9050919050565b7f50726f64756374204944206e6f7420666f756e64000000000000000000000000600082015250565b6000614ad2601483613c70565b9150614add82614a9c565b602082019050919050565b60006020820190508181036000830152614b0181614ac5565b9050919050565b7f4e487b7100000000000000000000000000000000000000000000000000000000600052603260045260246000fd5b7f52657461696c6572206e6f7420766572696669656420746f2073656c6c20746860008201527f652070726f647563740000000000000000000000000000000000000000000000602082015250565b6000614b93602983613c70565b9150614b9e82614b37565b604082019050919050565b60006020820190508181036000830152614bc281614b86565b9050919050565b7f4e487b7100000000000000000000000000000000000000000000000000000000600052601160045260246000fd5b6000614c0382613d17565b9150614c0e83613d17565b9250828202614c1c81613d17565b91508282048414831517614c3357614c32614bc9565b5b5092915050565b6000614c4582613d17565b9150614c5083613d17565b9250828201905080821115614c6857614c67614bc9565b5b92915050565b7f437573746f6d6572206e6f7420766572696669656420746f20636c61696d207460008201527f68652077617272616e7479000000000000000000000000000000000000000000602082015250565b6000614cca602b83613c70565b9150614cd582614c6e565b604082019050919050565b60006020820190508181036000830152614cf981614cbd565b9050919050565b7f4552433732313a2063616c6c6572206973206e6f7420746f6b656e206f776e6560008201527f72206f7220617070726f76656400000000000000000000000000000000000000602082015250565b6000614d5c602d83613c70565b9150614d6782614d00565b604082019050919050565b60006020820190508181036000830152614d8b81614d4f565b9050919050565b7f57617272616e7479204578706972656400000000000000000000000000000000600082015250565b6000614dc8601083613c70565b9150614dd382614d92565b602082019050919050565b60006020820190508181036000830152614df781614dbb565b9050919050565b7f57617272616e747920706572696f64206d75737420626520677265617465722060008201527f7468616e2030206d6f6e74687300000000000000000000000000000000000000602082015250565b6000614e5a602d83613c70565b9150614e6582614dfe565b604082019050919050565b60006020820190508181036000830152614e8981614e4d565b9050919050565b7f55736572206973206e6f7420612072656769737465726564204d616e7566617460008201527f757265722c2063616e27742063726561746520612070726f6475637400000000602082015250565b6000614eec603c83613c70565b9150614ef782614e90565b604082019050919050565b60006020820190508181036000830152614f1b81614edf565b9050919050565b7f77726f6e642070726f6475637420494400000000000000000000000000000000600082015250565b6000614f58601083613c70565b9150614f6382614f22565b602082019050919050565b60006020820190508181036000830152614f8781614f4b565b9050919050565b60008190508160005260206000209050919050565b60006020601f8301049050919050565b600082821b905092915050565b600060088302614ff07fffffffffffffffffffffffffffffffffffffffffffffffffffffffffffffffff82614fb3565b614ffa8683614fb3565b95508019841693508086168417925050509392505050565b6000819050919050565b600061503761503261502d84613d17565b615012565b613d17565b9050919050565b6000819050919050565b6150518361501c565b61506561505d8261503e565b848454614fc0565b825550505050565b600090565b61507a61506d565b615085818484615048565b505050565b5b818110156150a95761509e600082615072565b60018101905061508b565b5050565b601f8211156150ee576150bf81614f8e565b6150c884614fa3565b810160208510156150d7578190505b6150eb6150e385614fa3565b83018261508a565b50505b505050565b600082821c905092915050565b6000615111600019846008026150f3565b1980831691505092915050565b600061512a8383615100565b9150826002028217905092915050565b61514382613c65565b67ffffffffffffffff81111561515c5761515b613edf565b5b6151668254614947565b6151718282856150ad565b600060209050601f8311600181146151a45760008415615192578287015190505b61519c858261511e565b865550615204565b601f1984166151b286614f8e565b60005b828110156151da578489015182556001820191506020850194506020810190506151b5565b868310156151f757848901516151f3601f891682615100565b8355505b6001600288020188555050505b505050505050565b7f4552433732313a20696e76616c696420746f6b656e2049440000000000000000600082015250565b6000615242601883613c70565b915061524d8261520c565b602082019050919050565b6000602082019050818103600083015261527181615235565b9050919050565b7f4552433732313a2061646472657373207a65726f206973206e6f74206120766160008201527f6c6964206f776e65720000000000000000000000000000000000000000000000602082015250565b60006152d4602983613c70565b91506152df82615278565b604082019050919050565b60006020820190508181036000830152615303816152c7565b9050919050565b600061531582613d17565b91507fffffffffffffffffffffffffffffffffffffffffffffffffffffffffffffffff820361534757615346614bc9565b5b600182019050919050565b7f4f776e61626c653a206e6577206f776e657220697320746865207a65726f206160008201527f6464726573730000000000000000000000000000000000000000000000000000602082015250565b60006153ae602683613c70565b91506153b982615352565b604082019050919050565b600060208201905081810360008301526153dd816153a1565b9050919050565b7f4552433732313a207472616e736665722066726f6d20696e636f72726563742060008201527f6f776e6572000000000000000000000000000000000000000000000000000000602082015250565b6000615440602583613c70565b915061544b826153e4565b604082019050919050565b6000602082019050818103600083015261546f81615433565b9050919050565b7f4552433732313a207472616e7366657220746f20746865207a65726f2061646460008201527f7265737300000000000000000000000000000000000000000000000000000000602082015250565b60006154d2602483613c70565b91506154dd82615476565b604082019050919050565b60006020820190508181036000830152615501816154c5565b9050919050565b7f45524337323155524953746f726167653a2055524920736574206f66206e6f6e60008201527f6578697374656e7420746f6b656e000000000000000000000000000000000000602082015250565b6000615564602e83613c70565b915061556f82615508565b604082019050919050565b6000602082019050818103600083015261559381615557565b9050919050565b7f4f776e61626c653a2063616c6c6572206973206e6f7420746865206f776e6572600082015250565b60006155d0602083613c70565b91506155db8261559a565b602082019050919050565b600060208201905081810360008301526155ff816155c3565b9050919050565b7f4552433732313a20617070726f766520746f2063616c6c657200000000000000600082015250565b600061563c601983613c70565b915061564782615606565b602082019050919050565b6000602082019050818103600083015261566b8161562f565b9050919050565b7f4552433732313a207472616e7366657220746f206e6f6e20455243373231526560008201527f63656976657220696d706c656d656e7465720000000000000000000000000000602082015250565b60006156ce603283613c70565b91506156d982615672565b604082019050919050565b600060208201905081810360008301526156fd816156c1565b9050919050565b600081905092915050565b600061571a82613c65565b6157248185615704565b9350615734818560208601613c81565b80840191505092915050565b600061574c828561570f565b9150615758828461570f565b91508190509392505050565b600081519050919050565b600082825260208201905092915050565b600061578b82615764565b615795818561576f565b93506157a5818560208601613c81565b6157ae81613cab565b840191505092915050565b60006080820190506157ce6000830187613dac565b6157db6020830186613dac565b6157e86040830185614066565b81810360608301526157fa8184615780565b905095945050505050565b60008151905061581481613bd6565b92915050565b6000602082840312156158305761582f613ba0565b5b600061583e84828501615805565b91505092915050565b7f4552433732313a206d696e7420746f20746865207a65726f2061646472657373600082015250565b600061587d602083613c70565b915061588882615847565b602082019050919050565b600060208201905081810360008301526158ac81615870565b9050919050565b7f4552433732313a20746f6b656e20616c7265616479206d696e74656400000000600082015250565b60006158e9601c83613c70565b91506158f4826158b3565b602082019050919050565b60006020820190508181036000830152615918816158dc565b9050919050565b7f4e487b7100000000000000000000000000000000000000000000000000000000600052601260045260246000fdfea2646970667358221220a5540c60f54424b390c2646b260a6eab6f70a0b41a71910d06f8f791e3a7866164736f6c63430008110033",
  "linkReferences": {},
  "deployedLinkReferences": {}
}