{
  "_format": "hh-sol-artifact-1",
  "contractName": "Warranty",
  "sourceName": "contracts/Warranty.sol",
  "abi": [
    {
      "inputs": [],
      "stateMutability": "nonpayable",
      "type": "constructor"
    },
    {
      "anonymous": false,
      "inputs": [
        {
          "indexed": true,
          "internalType": "address",
          "name": "owner",
          "type": "address"
        },
        {
          "indexed": true,
          "internalType": "address",
          "name": "approved",
          "type": "address"
        },
        {
          "indexed": true,
          "internalType": "uint256",
          "name": "tokenId",
          "type": "uint256"
        }
      ],
      "name": "Approval",
      "type": "event"
    },
    {
      "anonymous": false,
      "inputs": [
        {
          "indexed": true,
          "internalType": "address",
          "name": "owner",
          "type": "address"
        },
        {
          "indexed": true,
          "internalType": "address",
          "name": "operator",
          "type": "address"
        },
        {
          "indexed": false,
          "internalType": "bool",
          "name": "approved",
          "type": "bool"
        }
      ],
      "name": "ApprovalForAll",
      "type": "event"
    },
    {
      "anonymous": false,
      "inputs": [
        {
          "indexed": true,
          "internalType": "address",
          "name": "previousOwner",
          "type": "address"
        },
        {
          "indexed": true,
          "internalType": "address",
          "name": "newOwner",
          "type": "address"
        }
      ],
      "name": "OwnershipTransferred",
      "type": "event"
    },
    {
      "anonymous": false,
      "inputs": [
        {
          "indexed": true,
          "internalType": "address",
          "name": "from",
          "type": "address"
        },
        {
          "indexed": true,
          "internalType": "address",
          "name": "to",
          "type": "address"
        },
        {
          "indexed": true,
          "internalType": "uint256",
          "name": "tokenId",
          "type": "uint256"
        }
      ],
      "name": "Transfer",
      "type": "event"
    },
    {
      "inputs": [
        {
          "internalType": "uint256",
          "name": "_id",
          "type": "uint256"
        }
      ],
      "name": "activateWarranty",
      "outputs": [],
      "stateMutability": "nonpayable",
      "type": "function"
    },
    {
      "inputs": [],
      "name": "addManufacturer",
      "outputs": [],
      "stateMutability": "nonpayable",
      "type": "function"
    },
    {
      "inputs": [
        {
          "internalType": "string",
          "name": "_title",
          "type": "string"
        },
        {
          "internalType": "string",
          "name": "_product_image",
          "type": "string"
        },
        {
          "internalType": "string",
          "name": "_desc",
          "type": "string"
        },
        {
          "internalType": "uint256",
          "name": "_expiry_time",
          "type": "uint256"
        }
      ],
      "name": "addProduct",
      "outputs": [
        {
          "internalType": "uint256",
          "name": "",
          "type": "uint256"
        }
      ],
      "stateMutability": "nonpayable",
      "type": "function"
    },
    {
      "inputs": [
        {
          "internalType": "address",
          "name": "_radd",
          "type": "address"
        }
      ],
      "name": "addRetailer",
      "outputs": [],
      "stateMutability": "nonpayable",
      "type": "function"
    },
    {
      "inputs": [
        {
          "internalType": "address",
          "name": "to",
          "type": "address"
        },
        {
          "internalType": "uint256",
          "name": "tokenId",
          "type": "uint256"
        }
      ],
      "name": "approve",
      "outputs": [],
      "stateMutability": "nonpayable",
      "type": "function"
    },
    {
      "inputs": [
        {
          "internalType": "address",
          "name": "owner",
          "type": "address"
        }
      ],
      "name": "balanceOf",
      "outputs": [
        {
          "internalType": "uint256",
          "name": "",
          "type": "uint256"
        }
      ],
      "stateMutability": "view",
      "type": "function"
    },
    {
      "inputs": [
        {
          "internalType": "uint256",
          "name": "tokenId",
          "type": "uint256"
        }
      ],
      "name": "burnNft",
      "outputs": [],
      "stateMutability": "nonpayable",
      "type": "function"
    },
    {
      "inputs": [
        {
          "internalType": "uint256",
          "name": "tokenId",
          "type": "uint256"
        }
      ],
      "name": "checkActiveStatus",
      "outputs": [
        {
          "internalType": "bool",
          "name": "",
          "type": "bool"
        }
      ],
      "stateMutability": "view",
      "type": "function"
    },
    {
      "inputs": [],
      "name": "checkUser",
      "outputs": [
        {
          "internalType": "uint256",
          "name": "",
          "type": "uint256"
        }
      ],
      "stateMutability": "view",
      "type": "function"
    },
    {
      "inputs": [],
      "name": "cid",
      "outputs": [
        {
          "internalType": "uint256",
          "name": "",
          "type": "uint256"
        }
      ],
      "stateMutability": "view",
      "type": "function"
    },
    {
      "inputs": [
        {
          "internalType": "uint256",
          "name": "tokenId",
          "type": "uint256"
        }
      ],
      "name": "getApproved",
      "outputs": [
        {
          "internalType": "address",
          "name": "",
          "type": "address"
        }
      ],
      "stateMutability": "view",
      "type": "function"
    },
    {
      "inputs": [
        {
          "internalType": "uint256",
          "name": "tokenId",
          "type": "uint256"
        }
      ],
      "name": "getExpiryTimeById",
      "outputs": [
        {
          "internalType": "uint256",
          "name": "",
          "type": "uint256"
        }
      ],
      "stateMutability": "view",
      "type": "function"
    },
    {
      "inputs": [
        {
          "internalType": "uint256",
          "name": "_id",
          "type": "uint256"
        }
      ],
      "name": "getProductDetails",
      "outputs": [
        {
          "components": [
            {
              "internalType": "string",
              "name": "title",
              "type": "string"
            },
            {
              "internalType": "uint256",
              "name": "id",
              "type": "uint256"
            },
            {
              "internalType": "string",
              "name": "product_image",
              "type": "string"
            },
            {
              "internalType": "string",
              "name": "desc",
              "type": "string"
            },
            {
              "internalType": "uint256",
              "name": "activate_time",
              "type": "uint256"
            },
            {
              "internalType": "uint256",
              "name": "expiry_time",
              "type": "uint256"
            },
            {
              "internalType": "address",
              "name": "manufacturer",
              "type": "address"
            },
            {
              "internalType": "address",
              "name": "retailer",
              "type": "address"
            },
            {
              "internalType": "address",
              "name": "customer",
              "type": "address"
            },
            {
              "internalType": "enum Warranty.product_status",
              "name": "status",
              "type": "uint8"
            },
            {
              "internalType": "address[]",
              "name": "history",
              "type": "address[]"
            },
            {
              "internalType": "address",
              "name": "curr_owner",
              "type": "address"
            }
          ],
          "internalType": "struct Warranty.product_details",
          "name": "",
          "type": "tuple"
        }
      ],
      "stateMutability": "view",
      "type": "function"
    },
    {
      "inputs": [],
      "name": "getProductId",
      "outputs": [
        {
          "internalType": "uint256",
          "name": "",
          "type": "uint256"
        }
      ],
      "stateMutability": "view",
      "type": "function"
    },
    {
      "inputs": [],
      "name": "getProducts",
      "outputs": [
        {
          "components": [
            {
              "internalType": "string",
              "name": "title",
              "type": "string"
            },
            {
              "internalType": "uint256",
              "name": "id",
              "type": "uint256"
            },
            {
              "internalType": "string",
              "name": "product_image",
              "type": "string"
            },
            {
              "internalType": "string",
              "name": "desc",
              "type": "string"
            },
            {
              "internalType": "uint256",
              "name": "activate_time",
              "type": "uint256"
            },
            {
              "internalType": "uint256",
              "name": "expiry_time",
              "type": "uint256"
            },
            {
              "internalType": "address",
              "name": "manufacturer",
              "type": "address"
            },
            {
              "internalType": "address",
              "name": "retailer",
              "type": "address"
            },
            {
              "internalType": "address",
              "name": "customer",
              "type": "address"
            },
            {
              "internalType": "enum Warranty.product_status",
              "name": "status",
              "type": "uint8"
            },
            {
              "internalType": "address[]",
              "name": "history",
              "type": "address[]"
            },
            {
              "internalType": "address",
              "name": "curr_owner",
              "type": "address"
            }
          ],
          "internalType": "struct Warranty.product_details[]",
          "name": "",
          "type": "tuple[]"
        }
      ],
      "stateMutability": "view",
      "type": "function"
    },
    {
      "inputs": [
        {
          "internalType": "address",
          "name": "owner",
          "type": "address"
        },
        {
          "internalType": "address",
          "name": "operator",
          "type": "address"
        }
      ],
      "name": "isApprovedForAll",
      "outputs": [
        {
          "internalType": "bool",
          "name": "",
          "type": "bool"
        }
      ],
      "stateMutability": "view",
      "type": "function"
    },
    {
      "inputs": [
        {
          "internalType": "address",
          "name": "",
          "type": "address"
        }
      ],
      "name": "manufacturers",
      "outputs": [
        {
          "internalType": "uint256",
          "name": "id",
          "type": "uint256"
        },
        {
          "internalType": "address",
          "name": "add",
          "type": "address"
        }
      ],
      "stateMutability": "view",
      "type": "function"
    },
    {
      "inputs": [],
      "name": "name",
      "outputs": [
        {
          "internalType": "string",
          "name": "",
          "type": "string"
        }
      ],
      "stateMutability": "view",
      "type": "function"
    },
    {
      "inputs": [],
      "name": "owner",
      "outputs": [
        {
          "internalType": "address",
          "name": "",
          "type": "address"
        }
      ],
      "stateMutability": "view",
      "type": "function"
    },
    {
      "inputs": [
        {
          "internalType": "uint256",
          "name": "tokenId",
          "type": "uint256"
        }
      ],
      "name": "ownerOf",
      "outputs": [
        {
          "internalType": "address",
          "name": "",
          "type": "address"
        }
      ],
      "stateMutability": "view",
      "type": "function"
    },
    {
      "inputs": [
        {
          "internalType": "uint256",
          "name": "",
          "type": "uint256"
        }
      ],
      "name": "products",
      "outputs": [
        {
          "internalType": "string",
          "name": "title",
          "type": "string"
        },
        {
          "internalType": "uint256",
          "name": "id",
          "type": "uint256"
        },
        {
          "internalType": "string",
          "name": "product_image",
          "type": "string"
        },
        {
          "internalType": "string",
          "name": "desc",
          "type": "string"
        },
        {
          "internalType": "uint256",
          "name": "activate_time",
          "type": "uint256"
        },
        {
          "internalType": "uint256",
          "name": "expiry_time",
          "type": "uint256"
        },
        {
          "internalType": "address",
          "name": "manufacturer",
          "type": "address"
        },
        {
          "internalType": "address",
          "name": "retailer",
          "type": "address"
        },
        {
          "internalType": "address",
          "name": "customer",
          "type": "address"
        },
        {
          "internalType": "enum Warranty.product_status",
          "name": "status",
          "type": "uint8"
        },
        {
          "internalType": "address",
          "name": "curr_owner",
          "type": "address"
        }
      ],
      "stateMutability": "view",
      "type": "function"
    },
    {
      "inputs": [],
      "name": "renounceOwnership",
      "outputs": [],
      "stateMutability": "nonpayable",
      "type": "function"
    },
    {
      "inputs": [
        {
          "internalType": "uint256",
          "name": "_id",
          "type": "uint256"
        },
        {
          "internalType": "address",
          "name": "to",
          "type": "address"
        }
      ],
      "name": "resellProduct",
      "outputs": [],
      "stateMutability": "nonpayable",
      "type": "function"
    },
    {
      "inputs": [
        {
          "internalType": "address",
          "name": "",
          "type": "address"
        }
      ],
      "name": "retailers",
      "outputs": [
        {
          "internalType": "uint256",
          "name": "id",
          "type": "uint256"
        },
        {
          "internalType": "address",
          "name": "madd",
          "type": "address"
        },
        {
          "internalType": "address",
          "name": "radd",
          "type": "address"
        }
      ],
      "stateMutability": "view",
      "type": "function"
    },
    {
      "inputs": [
        {
          "internalType": "string",
          "name": "uri",
          "type": "string"
        },
        {
          "internalType": "uint256",
          "name": "tokenId",
          "type": "uint256"
        }
      ],
      "name": "safeMint",
      "outputs": [
        {
          "internalType": "uint256",
          "name": "tokenIdMinted",
          "type": "uint256"
        }
      ],
      "stateMutability": "nonpayable",
      "type": "function"
    },
    {
      "inputs": [
        {
          "internalType": "address",
          "name": "from",
          "type": "address"
        },
        {
          "internalType": "address",
          "name": "to",
          "type": "address"
        },
        {
          "internalType": "uint256",
          "name": "tokenId",
          "type": "uint256"
        }
      ],
      "name": "safeTransferFrom",
      "outputs": [],
      "stateMutability": "nonpayable",
      "type": "function"
    },
    {
      "inputs": [
        {
          "internalType": "address",
          "name": "from",
          "type": "address"
        },
        {
          "internalType": "address",
          "name": "to",
          "type": "address"
        },
        {
          "internalType": "uint256",
          "name": "tokenId",
          "type": "uint256"
        },
        {
          "internalType": "bytes",
          "name": "data",
          "type": "bytes"
        }
      ],
      "name": "safeTransferFrom",
      "outputs": [],
      "stateMutability": "nonpayable",
      "type": "function"
    },
    {
      "inputs": [
        {
          "internalType": "uint256",
          "name": "_id",
          "type": "uint256"
        },
        {
          "internalType": "address",
          "name": "_customer",
          "type": "address"
        }
      ],
      "name": "sellProduct",
      "outputs": [],
      "stateMutability": "nonpayable",
      "type": "function"
    },
    {
      "inputs": [
        {
          "internalType": "address",
          "name": "operator",
          "type": "address"
        },
        {
          "internalType": "bool",
          "name": "approved",
          "type": "bool"
        }
      ],
      "name": "setApprovalForAll",
      "outputs": [],
      "stateMutability": "nonpayable",
      "type": "function"
    },
    {
      "inputs": [
        {
          "internalType": "bytes4",
          "name": "interfaceId",
          "type": "bytes4"
        }
      ],
      "name": "supportsInterface",
      "outputs": [
        {
          "internalType": "bool",
          "name": "",
          "type": "bool"
        }
      ],
      "stateMutability": "view",
      "type": "function"
    },
    {
      "inputs": [],
      "name": "symbol",
      "outputs": [
        {
          "internalType": "string",
          "name": "",
          "type": "string"
        }
      ],
      "stateMutability": "view",
      "type": "function"
    },
    {
      "inputs": [
        {
          "internalType": "uint256",
          "name": "tokenId",
          "type": "uint256"
        }
      ],
      "name": "tokenURI",
      "outputs": [
        {
          "internalType": "string",
          "name": "",
          "type": "string"
        }
      ],
      "stateMutability": "view",
      "type": "function"
    },
    {
      "inputs": [
        {
          "internalType": "address",
          "name": "from",
          "type": "address"
        },
        {
          "internalType": "address",
          "name": "to",
          "type": "address"
        },
        {
          "internalType": "uint256",
          "name": "tokenId",
          "type": "uint256"
        }
      ],
      "name": "transferFrom",
      "outputs": [],
      "stateMutability": "nonpayable",
      "type": "function"
    },
    {
      "inputs": [
        {
          "internalType": "uint256",
          "name": "_id",
          "type": "uint256"
        },
        {
          "internalType": "address",
          "name": "_to",
          "type": "address"
        }
      ],
      "name": "transferNFT",
      "outputs": [],
      "stateMutability": "nonpayable",
      "type": "function"
    },
    {
      "inputs": [
        {
          "internalType": "address",
          "name": "newOwner",
          "type": "address"
        }
      ],
      "name": "transferOwnership",
      "outputs": [],
      "stateMutability": "nonpayable",
      "type": "function"
    }
  ],
  "bytecode": "0x60806040523480156200001157600080fd5b506040518060400160405280600b81526020017f4e465457617272616e74790000000000000000000000000000000000000000008152506040518060400160405280600481526020017f4e4654570000000000000000000000000000000000000000000000000000000081525081600090816200008f91906200041a565b508060019081620000a191906200041a565b505050620000c4620000b8620000d260201b60201c565b620000da60201b60201c565b6001600b8190555062000501565b600033905090565b6000600760009054906101000a900473ffffffffffffffffffffffffffffffffffffffff16905081600760006101000a81548173ffffffffffffffffffffffffffffffffffffffff021916908373ffffffffffffffffffffffffffffffffffffffff1602179055508173ffffffffffffffffffffffffffffffffffffffff168173ffffffffffffffffffffffffffffffffffffffff167f8be0079c531659141344cd1fd0a4f28419497f9722a3daafe3b4186f6b6457e060405160405180910390a35050565b600081519050919050565b7f4e487b7100000000000000000000000000000000000000000000000000000000600052604160045260246000fd5b7f4e487b7100000000000000000000000000000000000000000000000000000000600052602260045260246000fd5b600060028204905060018216806200022257607f821691505b602082108103620002385762000237620001da565b5b50919050565b60008190508160005260206000209050919050565b60006020601f8301049050919050565b600082821b905092915050565b600060088302620002a27fffffffffffffffffffffffffffffffffffffffffffffffffffffffffffffffff8262000263565b620002ae868362000263565b95508019841693508086168417925050509392505050565b6000819050919050565b6000819050919050565b6000620002fb620002f5620002ef84620002c6565b620002d0565b620002c6565b9050919050565b6000819050919050565b6200031783620002da565b6200032f620003268262000302565b84845462000270565b825550505050565b600090565b6200034662000337565b620003538184846200030c565b505050565b5b818110156200037b576200036f6000826200033c565b60018101905062000359565b5050565b601f821115620003ca5762000394816200023e565b6200039f8462000253565b81016020851015620003af578190505b620003c7620003be8562000253565b83018262000358565b50505b505050565b600082821c905092915050565b6000620003ef60001984600802620003cf565b1980831691505092915050565b60006200040a8383620003dc565b9150826002028217905092915050565b6200042582620001a0565b67ffffffffffffffff811115620004415762000440620001ab565b5b6200044d825462000209565b6200045a8282856200037f565b600060209050601f8311600181146200049257600084156200047d578287015190505b620004898582620003fc565b865550620004f9565b601f198416620004a2866200023e565b60005b82811015620004cc57848901518255600182019150602085019450602081019050620004a5565b86831015620004ec5784890151620004e8601f891682620003dc565b8355505b6001600288020188555050505b505050505050565b615bc880620005116000396000f3fe608060405234801561001057600080fd5b50600436106102115760003560e01c80637ac8773211610125578063a2c66c36116100ad578063c15625471161007c578063c156254714610641578063c29b2f201461065f578063c87b56dd1461067d578063e985e9c5146106ad578063f2fde38b146106dd57610211565b8063a2c66c36146105cd578063aa22a344146105d7578063aa3ec0a914610607578063b88d4fde1461062557610211565b80638ec4f505116100f45780638ec4f505146105295780639036c0501461054557806395d89b41146105615780639a268f351461057f578063a22cb465146105b157610211565b80637ac87732146104835780637acc0b20146104a15780638165fed5146104db5780638da5cb5b1461050b57610211565b80633d5efefe116101a85780636813b53b116101775780636813b53b146103b85780636b5eb09c146103e857806370a0823114610419578063715018a6146104495780637a32f2f51461045357610211565b80633d5efefe1461032057806342842e0e1461033c57806346b145e1146103585780636352211e1461038857610211565b80630b569140116101e45780630b569140146102b057806315c54951146102cc57806323b872dd146102e85780632a6627681461030457610211565b806301ffc9a71461021657806306fdde0314610246578063081812fc14610264578063095ea7b314610294575b600080fd5b610230600480360381019061022b9190613dfb565b6106f9565b60405161023d9190613e43565b60405180910390f35b61024e6107db565b60405161025b9190613eee565b60405180910390f35b61027e60048036038101906102799190613f46565b61086d565b60405161028b9190613fb4565b60405180910390f35b6102ae60048036038101906102a99190613ffb565b6108b3565b005b6102ca60048036038101906102c5919061403b565b6109ca565b005b6102e660048036038101906102e1919061403b565b610dbd565b005b61030260048036038101906102fd919061407b565b611009565b005b61031e60048036038101906103199190613f46565b611069565b005b61033a60048036038101906103359190613f46565b61121b565b005b6103566004803603810190610351919061407b565b611227565b005b610372600480360381019061036d9190614203565b611247565b60405161037f919061426e565b60405180910390f35b6103a2600480360381019061039d9190613f46565b611266565b6040516103af9190613fb4565b60405180910390f35b6103d260048036038101906103cd9190613f46565b6112ec565b6040516103df9190614530565b60405180910390f35b61040260048036038101906103fd9190614552565b611765565b60405161041092919061457f565b60405180910390f35b610433600480360381019061042e9190614552565b6117a9565b604051610440919061426e565b60405180910390f35b610451611860565b005b61046d60048036038101906104689190613f46565b611874565b60405161047a9190613e43565b60405180910390f35b61048b6118d7565b604051610498919061426e565b60405180910390f35b6104bb60048036038101906104b69190613f46565b6118e4565b6040516104d29b9a999897969594939291906145b7565b60405180910390f35b6104f560048036038101906104f09190614677565b611b73565b604051610502919061426e565b60405180910390f35b610513611f6c565b6040516105209190613fb4565b60405180910390f35b610543600480360381019061053e9190614552565b611f96565b005b61055f600480360381019061055a919061403b565b61211b565b005b61056961212a565b6040516105769190613eee565b60405180910390f35b61059960048036038101906105949190614552565b6121bc565b6040516105a893929190614732565b60405180910390f35b6105cb60048036038101906105c69190614795565b612226565b005b6105d561223c565b005b6105f160048036038101906105ec9190613f46565b612312565b6040516105fe919061426e565b60405180910390f35b61060f612341565b60405161061c919061426e565b60405180910390f35b61063f600480360381019061063a9190614876565b612347565b005b6106496123a9565b604051610656919061426e565b60405180910390f35b610667612458565b6040516106749190614ad4565b60405180910390f35b61069760048036038101906106929190613f46565b6128ad565b6040516106a49190613eee565b60405180910390f35b6106c760048036038101906106c29190614af6565b6128bf565b6040516106d49190613e43565b60405180910390f35b6106f760048036038101906106f29190614552565b612953565b005b60007f80ac58cd000000000000000000000000000000000000000000000000000000007bffffffffffffffffffffffffffffffffffffffffffffffffffffffff1916827bffffffffffffffffffffffffffffffffffffffffffffffffffffffff191614806107c457507f5b5e139f000000000000000000000000000000000000000000000000000000007bffffffffffffffffffffffffffffffffffffffffffffffffffffffff1916827bffffffffffffffffffffffffffffffffffffffffffffffffffffffff1916145b806107d457506107d3826129d6565b5b9050919050565b6060600080546107ea90614b65565b80601f016020809104026020016040519081016040528092919081815260200182805461081690614b65565b80156108635780601f1061083857610100808354040283529160200191610863565b820191906000526020600020905b81548152906001019060200180831161084657829003601f168201915b5050505050905090565b600061087882612a40565b6004600083815260200190815260200160002060009054906101000a900473ffffffffffffffffffffffffffffffffffffffff169050919050565b60006108be82611266565b90508073ffffffffffffffffffffffffffffffffffffffff168373ffffffffffffffffffffffffffffffffffffffff160361092e576040517f08c379a000000000000000000000000000000000000000000000000000000000815260040161092590614c08565b60405180910390fd5b8073ffffffffffffffffffffffffffffffffffffffff1661094d612a8b565b73ffffffffffffffffffffffffffffffffffffffff16148061097c575061097b81610976612a8b565b6128bf565b5b6109bb576040517f08c379a00000000000000000000000000000000000000000000000000000000081526004016109b290614c9a565b60405180910390fd5b6109c58383612a93565b505050565b6008805490508210610a11576040517f08c379a0000000000000000000000000000000000000000000000000000000008152600401610a0890614d06565b60405180910390fd5b60088281548110610a2557610a24614d26565b5b90600052602060002090600b020160060160009054906101000a900473ffffffffffffffffffffffffffffffffffffffff1673ffffffffffffffffffffffffffffffffffffffff16600a60003373ffffffffffffffffffffffffffffffffffffffff1673ffffffffffffffffffffffffffffffffffffffff16815260200190815260200160002060010160009054906101000a900473ffffffffffffffffffffffffffffffffffffffff1673ffffffffffffffffffffffffffffffffffffffff1614610b26576040517f08c379a0000000000000000000000000000000000000000000000000000000008152600401610b1d90614dc7565b60405180910390fd5b4260088381548110610b3b57610b3a614d26565b5b90600052602060002090600b020160040181905550639cbf904060088381548110610b6957610b68614d26565b5b90600052602060002090600b020160050154610b859190614e16565b42610b909190614e58565b60088381548110610ba457610ba3614d26565b5b90600052602060002090600b0201600501819055503360088381548110610bce57610bcd614d26565b5b90600052602060002090600b020160070160006101000a81548173ffffffffffffffffffffffffffffffffffffffff021916908373ffffffffffffffffffffffffffffffffffffffff1602179055508060088381548110610c3257610c31614d26565b5b90600052602060002090600b020160080160006101000a81548173ffffffffffffffffffffffffffffffffffffffff021916908373ffffffffffffffffffffffffffffffffffffffff160217905550600260088381548110610c9757610c96614d26565b5b90600052602060002090600b020160080160146101000a81548160ff02191690836003811115610cca57610cc96142f1565b5b021790555060088281548110610ce357610ce2614d26565b5b90600052602060002090600b0201600901819080600181540180825580915050600190039060005260206000200160009091909190916101000a81548173ffffffffffffffffffffffffffffffffffffffff021916908373ffffffffffffffffffffffffffffffffffffffff1602179055508060088381548110610d6a57610d69614d26565b5b90600052602060002090600b0201600a0160006101000a81548173ffffffffffffffffffffffffffffffffffffffff021916908373ffffffffffffffffffffffffffffffffffffffff1602179055505050565b6008805490508210610e04576040517f08c379a0000000000000000000000000000000000000000000000000000000008152600401610dfb90614d06565b60405180910390fd5b3373ffffffffffffffffffffffffffffffffffffffff1660088381548110610e2f57610e2e614d26565b5b90600052602060002090600b0201600a0160009054906101000a900473ffffffffffffffffffffffffffffffffffffffff1673ffffffffffffffffffffffffffffffffffffffff1614610eb7576040517f08c379a0000000000000000000000000000000000000000000000000000000008152600401610eae90614efe565b60405180910390fd5b8060088381548110610ecc57610ecb614d26565b5b90600052602060002090600b020160080160006101000a81548173ffffffffffffffffffffffffffffffffffffffff021916908373ffffffffffffffffffffffffffffffffffffffff16021790555060088281548110610f2f57610f2e614d26565b5b90600052602060002090600b0201600901819080600181540180825580915050600190039060005260206000200160009091909190916101000a81548173ffffffffffffffffffffffffffffffffffffffff021916908373ffffffffffffffffffffffffffffffffffffffff1602179055508060088381548110610fb657610fb5614d26565b5b90600052602060002090600b0201600a0160006101000a81548173ffffffffffffffffffffffffffffffffffffffff021916908373ffffffffffffffffffffffffffffffffffffffff1602179055505050565b61101a611014612a8b565b82612b4c565b611059576040517f08c379a000000000000000000000000000000000000000000000000000000000815260040161105090614f90565b60405180910390fd5b611064838383612be1565b505050565b60088054905081106110b0576040517f08c379a00000000000000000000000000000000000000000000000000000000081526004016110a790614d06565b60405180910390fd5b3373ffffffffffffffffffffffffffffffffffffffff16600882815481106110db576110da614d26565b5b90600052602060002090600b020160080160009054906101000a900473ffffffffffffffffffffffffffffffffffffffff1673ffffffffffffffffffffffffffffffffffffffff1614611163576040517f08c379a000000000000000000000000000000000000000000000000000000000815260040161115a90615022565b60405180910390fd5b6008818154811061117757611176614d26565b5b90600052602060002090600b02016005015442106111ca576040517f08c379a00000000000000000000000000000000000000000000000000000000081526004016111c19061508e565b60405180910390fd5b6002600882815481106111e0576111df614d26565b5b90600052602060002090600b020160080160146101000a81548160ff02191690836003811115611213576112126142f1565b5b021790555050565b61122481612eda565b50565b61124283838360405180602001604052806000815250612347565b505050565b60006112533383613028565b61125d8284613046565b81905092915050565b600080611272836130b3565b9050600073ffffffffffffffffffffffffffffffffffffffff168173ffffffffffffffffffffffffffffffffffffffff16036112e3576040517f08c379a00000000000000000000000000000000000000000000000000000000081526004016112da906150fa565b60405180910390fd5b80915050919050565b6112f4613c1d565b600880549050821061133b576040517f08c379a000000000000000000000000000000000000000000000000000000000815260040161133290614d06565b60405180910390fd5b6008828154811061134f5761134e614d26565b5b90600052602060002090600b02016040518061018001604052908160008201805461137990614b65565b80601f01602080910402602001604051908101604052809291908181526020018280546113a590614b65565b80156113f25780601f106113c7576101008083540402835291602001916113f2565b820191906000526020600020905b8154815290600101906020018083116113d557829003601f168201915b505050505081526020016001820154815260200160028201805461141590614b65565b80601f016020809104026020016040519081016040528092919081815260200182805461144190614b65565b801561148e5780601f106114635761010080835404028352916020019161148e565b820191906000526020600020905b81548152906001019060200180831161147157829003601f168201915b505050505081526020016003820180546114a790614b65565b80601f01602080910402602001604051908101604052809291908181526020018280546114d390614b65565b80156115205780601f106114f557610100808354040283529160200191611520565b820191906000526020600020905b81548152906001019060200180831161150357829003601f168201915b5050505050815260200160048201548152602001600582015481526020016006820160009054906101000a900473ffffffffffffffffffffffffffffffffffffffff1673ffffffffffffffffffffffffffffffffffffffff1673ffffffffffffffffffffffffffffffffffffffff1681526020016007820160009054906101000a900473ffffffffffffffffffffffffffffffffffffffff1673ffffffffffffffffffffffffffffffffffffffff1673ffffffffffffffffffffffffffffffffffffffff1681526020016008820160009054906101000a900473ffffffffffffffffffffffffffffffffffffffff1673ffffffffffffffffffffffffffffffffffffffff1673ffffffffffffffffffffffffffffffffffffffff1681526020016008820160149054906101000a900460ff166003811115611664576116636142f1565b5b6003811115611676576116756142f1565b5b8152602001600982018054806020026020016040519081016040528092919081815260200182805480156116ff57602002820191906000526020600020905b8160009054906101000a900473ffffffffffffffffffffffffffffffffffffffff1673ffffffffffffffffffffffffffffffffffffffff16815260200190600101908083116116b5575b50505050508152602001600a820160009054906101000a900473ffffffffffffffffffffffffffffffffffffffff1673ffffffffffffffffffffffffffffffffffffffff1673ffffffffffffffffffffffffffffffffffffffff16815250509050919050565b60096020528060005260406000206000915090508060000154908060010160009054906101000a900473ffffffffffffffffffffffffffffffffffffffff16905082565b60008073ffffffffffffffffffffffffffffffffffffffff168273ffffffffffffffffffffffffffffffffffffffff1603611819576040517f08c379a00000000000000000000000000000000000000000000000000000000081526004016118109061518c565b60405180910390fd5b600360008373ffffffffffffffffffffffffffffffffffffffff1673ffffffffffffffffffffffffffffffffffffffff168152602001908152602001600020549050919050565b6118686130f0565b611872600061316e565b565b60006002600381111561188a576118896142f1565b5b6008838154811061189e5761189d614d26565b5b90600052602060002090600b020160080160149054906101000a900460ff1660038111156118cf576118ce6142f1565b5b149050919050565b6000600880549050905090565b600881815481106118f457600080fd5b90600052602060002090600b020160009150905080600001805461191790614b65565b80601f016020809104026020016040519081016040528092919081815260200182805461194390614b65565b80156119905780601f1061196557610100808354040283529160200191611990565b820191906000526020600020905b81548152906001019060200180831161197357829003601f168201915b5050505050908060010154908060020180546119ab90614b65565b80601f01602080910402602001604051908101604052809291908181526020018280546119d790614b65565b8015611a245780601f106119f957610100808354040283529160200191611a24565b820191906000526020600020905b815481529060010190602001808311611a0757829003601f168201915b505050505090806003018054611a3990614b65565b80601f0160208091040260200160405190810160405280929190818152602001828054611a6590614b65565b8015611ab25780601f10611a8757610100808354040283529160200191611ab2565b820191906000526020600020905b815481529060010190602001808311611a9557829003601f168201915b5050505050908060040154908060050154908060060160009054906101000a900473ffffffffffffffffffffffffffffffffffffffff16908060070160009054906101000a900473ffffffffffffffffffffffffffffffffffffffff16908060080160009054906101000a900473ffffffffffffffffffffffffffffffffffffffff16908060080160149054906101000a900460ff169080600a0160009054906101000a900473ffffffffffffffffffffffffffffffffffffffff1690508b565b6000808211611bb7576040517f08c379a0000000000000000000000000000000000000000000000000000000008152600401611bae9061521e565b60405180910390fd5b3373ffffffffffffffffffffffffffffffffffffffff16600960003373ffffffffffffffffffffffffffffffffffffffff1673ffffffffffffffffffffffffffffffffffffffff16815260200190815260200160002060010160009054906101000a900473ffffffffffffffffffffffffffffffffffffffff1673ffffffffffffffffffffffffffffffffffffffff1614611c87576040517f08c379a0000000000000000000000000000000000000000000000000000000008152600401611c7e906152b0565b60405180910390fd5b600060088054905090506000836000611ca09190614e58565b9050606060086040518061018001604052808a8152602001858152602001898152602001888152602001600081526020018481526020013373ffffffffffffffffffffffffffffffffffffffff168152602001600073ffffffffffffffffffffffffffffffffffffffff168152602001600073ffffffffffffffffffffffffffffffffffffffff16815260200160006003811115611d4157611d406142f1565b5b81526020018381526020013373ffffffffffffffffffffffffffffffffffffffff1681525090806001815401808255809150506001900390600052602060002090600b02016000909190919091506000820151816000019081611da4919061547c565b50602082015181600101556040820151816002019081611dc4919061547c565b506060820151816003019081611dda919061547c565b506080820151816004015560a0820151816005015560c08201518160060160006101000a81548173ffffffffffffffffffffffffffffffffffffffff021916908373ffffffffffffffffffffffffffffffffffffffff16021790555060e08201518160070160006101000a81548173ffffffffffffffffffffffffffffffffffffffff021916908373ffffffffffffffffffffffffffffffffffffffff1602179055506101008201518160080160006101000a81548173ffffffffffffffffffffffffffffffffffffffff021916908373ffffffffffffffffffffffffffffffffffffffff1602179055506101208201518160080160146101000a81548160ff02191690836003811115611ef157611ef06142f1565b5b0217905550610140820151816009019080519060200190611f13929190613ce8565b5061016082015181600a0160006101000a81548173ffffffffffffffffffffffffffffffffffffffff021916908373ffffffffffffffffffffffffffffffffffffffff1602179055505050829350505050949350505050565b6000600760009054906101000a900473ffffffffffffffffffffffffffffffffffffffff16905090565b6000600960003373ffffffffffffffffffffffffffffffffffffffff1673ffffffffffffffffffffffffffffffffffffffff1681526020019081526020016000206000015414612118576040518060600160405280600b6000815480929190611ffe9061554e565b9190505581526020013373ffffffffffffffffffffffffffffffffffffffff1681526020018273ffffffffffffffffffffffffffffffffffffffff16815250600a60008373ffffffffffffffffffffffffffffffffffffffff1673ffffffffffffffffffffffffffffffffffffffff1681526020019081526020016000206000820151816000015560208201518160010160006101000a81548173ffffffffffffffffffffffffffffffffffffffff021916908373ffffffffffffffffffffffffffffffffffffffff16021790555060408201518160020160006101000a81548173ffffffffffffffffffffffffffffffffffffffff021916908373ffffffffffffffffffffffffffffffffffffffff1602179055509050505b50565b612126338284612be1565b5050565b60606001805461213990614b65565b80601f016020809104026020016040519081016040528092919081815260200182805461216590614b65565b80156121b25780601f10612187576101008083540402835291602001916121b2565b820191906000526020600020905b81548152906001019060200180831161219557829003601f168201915b5050505050905090565b600a6020528060005260406000206000915090508060000154908060010160009054906101000a900473ffffffffffffffffffffffffffffffffffffffff16908060020160009054906101000a900473ffffffffffffffffffffffffffffffffffffffff16905083565b612238612231612a8b565b8383613234565b5050565b6040518060400160405280600b600081548092919061225a9061554e565b9190505581526020013373ffffffffffffffffffffffffffffffffffffffff16815250600960003373ffffffffffffffffffffffffffffffffffffffff1673ffffffffffffffffffffffffffffffffffffffff1681526020019081526020016000206000820151816000015560208201518160010160006101000a81548173ffffffffffffffffffffffffffffffffffffffff021916908373ffffffffffffffffffffffffffffffffffffffff160217905550905050565b60006008828154811061232857612327614d26565b5b90600052602060002090600b0201600501549050919050565b600b5481565b612358612352612a8b565b83612b4c565b612397576040517f08c379a000000000000000000000000000000000000000000000000000000000815260040161238e90614f90565b60405180910390fd5b6123a3848484846133a0565b50505050565b600080600960003373ffffffffffffffffffffffffffffffffffffffff1673ffffffffffffffffffffffffffffffffffffffff16815260200190815260200160002060000154146123fd5760009050612455565b6000600a60003373ffffffffffffffffffffffffffffffffffffffff1673ffffffffffffffffffffffffffffffffffffffff16815260200190815260200160002060000154146124505760019050612455565b600290505b90565b60606008805480602002602001604051908101604052809291908181526020016000905b828210156128a457838290600052602060002090600b0201604051806101800160405290816000820180546124b090614b65565b80601f01602080910402602001604051908101604052809291908181526020018280546124dc90614b65565b80156125295780601f106124fe57610100808354040283529160200191612529565b820191906000526020600020905b81548152906001019060200180831161250c57829003601f168201915b505050505081526020016001820154815260200160028201805461254c90614b65565b80601f016020809104026020016040519081016040528092919081815260200182805461257890614b65565b80156125c55780601f1061259a576101008083540402835291602001916125c5565b820191906000526020600020905b8154815290600101906020018083116125a857829003601f168201915b505050505081526020016003820180546125de90614b65565b80601f016020809104026020016040519081016040528092919081815260200182805461260a90614b65565b80156126575780601f1061262c57610100808354040283529160200191612657565b820191906000526020600020905b81548152906001019060200180831161263a57829003601f168201915b5050505050815260200160048201548152602001600582015481526020016006820160009054906101000a900473ffffffffffffffffffffffffffffffffffffffff1673ffffffffffffffffffffffffffffffffffffffff1673ffffffffffffffffffffffffffffffffffffffff1681526020016007820160009054906101000a900473ffffffffffffffffffffffffffffffffffffffff1673ffffffffffffffffffffffffffffffffffffffff1673ffffffffffffffffffffffffffffffffffffffff1681526020016008820160009054906101000a900473ffffffffffffffffffffffffffffffffffffffff1673ffffffffffffffffffffffffffffffffffffffff1673ffffffffffffffffffffffffffffffffffffffff1681526020016008820160149054906101000a900460ff16600381111561279b5761279a6142f1565b5b60038111156127ad576127ac6142f1565b5b81526020016009820180548060200260200160405190810160405280929190818152602001828054801561283657602002820191906000526020600020905b8160009054906101000a900473ffffffffffffffffffffffffffffffffffffffff1673ffffffffffffffffffffffffffffffffffffffff16815260200190600101908083116127ec575b50505050508152602001600a820160009054906101000a900473ffffffffffffffffffffffffffffffffffffffff1673ffffffffffffffffffffffffffffffffffffffff1673ffffffffffffffffffffffffffffffffffffffff16815250508152602001906001019061247c565b50505050905090565b60606128b8826133fc565b9050919050565b6000600560008473ffffffffffffffffffffffffffffffffffffffff1673ffffffffffffffffffffffffffffffffffffffff16815260200190815260200160002060008373ffffffffffffffffffffffffffffffffffffffff1673ffffffffffffffffffffffffffffffffffffffff16815260200190815260200160002060009054906101000a900460ff16905092915050565b61295b6130f0565b600073ffffffffffffffffffffffffffffffffffffffff168173ffffffffffffffffffffffffffffffffffffffff16036129ca576040517f08c379a00000000000000000000000000000000000000000000000000000000081526004016129c190615608565b60405180910390fd5b6129d38161316e565b50565b60007f01ffc9a7000000000000000000000000000000000000000000000000000000007bffffffffffffffffffffffffffffffffffffffffffffffffffffffff1916827bffffffffffffffffffffffffffffffffffffffffffffffffffffffff1916149050919050565b612a498161350e565b612a88576040517f08c379a0000000000000000000000000000000000000000000000000000000008152600401612a7f906150fa565b60405180910390fd5b50565b600033905090565b816004600083815260200190815260200160002060006101000a81548173ffffffffffffffffffffffffffffffffffffffff021916908373ffffffffffffffffffffffffffffffffffffffff160217905550808273ffffffffffffffffffffffffffffffffffffffff16612b0683611266565b73ffffffffffffffffffffffffffffffffffffffff167f8c5be1e5ebec7d5bd14f71427d1e84f3dd0314c0f7b2291e5b200ac8c7c3b92560405160405180910390a45050565b600080612b5883611266565b90508073ffffffffffffffffffffffffffffffffffffffff168473ffffffffffffffffffffffffffffffffffffffff161480612b9a5750612b9981856128bf565b5b80612bd857508373ffffffffffffffffffffffffffffffffffffffff16612bc08461086d565b73ffffffffffffffffffffffffffffffffffffffff16145b91505092915050565b8273ffffffffffffffffffffffffffffffffffffffff16612c0182611266565b73ffffffffffffffffffffffffffffffffffffffff1614612c57576040517f08c379a0000000000000000000000000000000000000000000000000000000008152600401612c4e9061569a565b60405180910390fd5b600073ffffffffffffffffffffffffffffffffffffffff168273ffffffffffffffffffffffffffffffffffffffff1603612cc6576040517f08c379a0000000000000000000000000000000000000000000000000000000008152600401612cbd9061572c565b60405180910390fd5b612cd3838383600161354f565b8273ffffffffffffffffffffffffffffffffffffffff16612cf382611266565b73ffffffffffffffffffffffffffffffffffffffff1614612d49576040517f08c379a0000000000000000000000000000000000000000000000000000000008152600401612d409061569a565b60405180910390fd5b6004600082815260200190815260200160002060006101000a81549073ffffffffffffffffffffffffffffffffffffffff02191690556001600360008573ffffffffffffffffffffffffffffffffffffffff1673ffffffffffffffffffffffffffffffffffffffff168152602001908152602001600020600082825403925050819055506001600360008473ffffffffffffffffffffffffffffffffffffffff1673ffffffffffffffffffffffffffffffffffffffff16815260200190815260200160002060008282540192505081905550816002600083815260200190815260200160002060006101000a81548173ffffffffffffffffffffffffffffffffffffffff021916908373ffffffffffffffffffffffffffffffffffffffff160217905550808273ffffffffffffffffffffffffffffffffffffffff168473ffffffffffffffffffffffffffffffffffffffff167fddf252ad1be2c89b69c2b068fc378daa952ba7f163c4a11628f55a4df523b3ef60405160405180910390a4612ed58383836001613555565b505050565b6000612ee582611266565b9050612ef581600084600161354f565b612efe82611266565b90506004600083815260200190815260200160002060006101000a81549073ffffffffffffffffffffffffffffffffffffffff02191690556001600360008373ffffffffffffffffffffffffffffffffffffffff1673ffffffffffffffffffffffffffffffffffffffff168152602001908152602001600020600082825403925050819055506002600083815260200190815260200160002060006101000a81549073ffffffffffffffffffffffffffffffffffffffff021916905581600073ffffffffffffffffffffffffffffffffffffffff168273ffffffffffffffffffffffffffffffffffffffff167fddf252ad1be2c89b69c2b068fc378daa952ba7f163c4a11628f55a4df523b3ef60405160405180910390a4613024816000846001613555565b5050565b61304282826040518060200160405280600081525061355b565b5050565b61304f8261350e565b61308e576040517f08c379a0000000000000000000000000000000000000000000000000000000008152600401613085906157be565b60405180910390fd5b806006600084815260200190815260200160002090816130ae919061547c565b505050565b60006002600083815260200190815260200160002060009054906101000a900473ffffffffffffffffffffffffffffffffffffffff169050919050565b6130f8612a8b565b73ffffffffffffffffffffffffffffffffffffffff16613116611f6c565b73ffffffffffffffffffffffffffffffffffffffff161461316c576040517f08c379a00000000000000000000000000000000000000000000000000000000081526004016131639061582a565b60405180910390fd5b565b6000600760009054906101000a900473ffffffffffffffffffffffffffffffffffffffff16905081600760006101000a81548173ffffffffffffffffffffffffffffffffffffffff021916908373ffffffffffffffffffffffffffffffffffffffff1602179055508173ffffffffffffffffffffffffffffffffffffffff168173ffffffffffffffffffffffffffffffffffffffff167f8be0079c531659141344cd1fd0a4f28419497f9722a3daafe3b4186f6b6457e060405160405180910390a35050565b8173ffffffffffffffffffffffffffffffffffffffff168373ffffffffffffffffffffffffffffffffffffffff16036132a2576040517f08c379a000000000000000000000000000000000000000000000000000000000815260040161329990615896565b60405180910390fd5b80600560008573ffffffffffffffffffffffffffffffffffffffff1673ffffffffffffffffffffffffffffffffffffffff16815260200190815260200160002060008473ffffffffffffffffffffffffffffffffffffffff1673ffffffffffffffffffffffffffffffffffffffff16815260200190815260200160002060006101000a81548160ff0219169083151502179055508173ffffffffffffffffffffffffffffffffffffffff168373ffffffffffffffffffffffffffffffffffffffff167f17307eab39ab6107e8899845ad3d59bd9653f200f220920489ca2b5937696c31836040516133939190613e43565b60405180910390a3505050565b6133ab848484612be1565b6133b7848484846135b6565b6133f6576040517f08c379a00000000000000000000000000000000000000000000000000000000081526004016133ed90615928565b60405180910390fd5b50505050565b606061340782612a40565b600060066000848152602001908152602001600020805461342790614b65565b80601f016020809104026020016040519081016040528092919081815260200182805461345390614b65565b80156134a05780601f10613475576101008083540402835291602001916134a0565b820191906000526020600020905b81548152906001019060200180831161348357829003601f168201915b5050505050905060006134b161373d565b905060008151036134c6578192505050613509565b6000825111156134fb5780826040516020016134e3929190615984565b60405160208183030381529060405292505050613509565b61350484613754565b925050505b919050565b60008073ffffffffffffffffffffffffffffffffffffffff16613530836130b3565b73ffffffffffffffffffffffffffffffffffffffff1614159050919050565b50505050565b50505050565b61356583836137bc565b61357260008484846135b6565b6135b1576040517f08c379a00000000000000000000000000000000000000000000000000000000081526004016135a890615928565b60405180910390fd5b505050565b60006135d78473ffffffffffffffffffffffffffffffffffffffff166139d9565b15613730578373ffffffffffffffffffffffffffffffffffffffff1663150b7a02613600612a8b565b8786866040518563ffffffff1660e01b815260040161362294939291906159fd565b6020604051808303816000875af192505050801561365e57506040513d601f19601f8201168201806040525081019061365b9190615a5e565b60015b6136e0573d806000811461368e576040519150601f19603f3d011682016040523d82523d6000602084013e613693565b606091505b5060008151036136d8576040517f08c379a00000000000000000000000000000000000000000000000000000000081526004016136cf90615928565b60405180910390fd5b805181602001fd5b63150b7a0260e01b7bffffffffffffffffffffffffffffffffffffffffffffffffffffffff1916817bffffffffffffffffffffffffffffffffffffffffffffffffffffffff191614915050613735565b600190505b949350505050565b606060405180602001604052806000815250905090565b606061375f82612a40565b600061376961373d565b9050600081511161378957604051806020016040528060008152506137b4565b80613793846139fc565b6040516020016137a4929190615984565b6040516020818303038152906040525b915050919050565b600073ffffffffffffffffffffffffffffffffffffffff168273ffffffffffffffffffffffffffffffffffffffff160361382b576040517f08c379a000000000000000000000000000000000000000000000000000000000815260040161382290615ad7565b60405180910390fd5b6138348161350e565b15613874576040517f08c379a000000000000000000000000000000000000000000000000000000000815260040161386b90615b43565b60405180910390fd5b61388260008383600161354f565b61388b8161350e565b156138cb576040517f08c379a00000000000000000000000000000000000000000000000000000000081526004016138c290615b43565b60405180910390fd5b6001600360008473ffffffffffffffffffffffffffffffffffffffff1673ffffffffffffffffffffffffffffffffffffffff16815260200190815260200160002060008282540192505081905550816002600083815260200190815260200160002060006101000a81548173ffffffffffffffffffffffffffffffffffffffff021916908373ffffffffffffffffffffffffffffffffffffffff160217905550808273ffffffffffffffffffffffffffffffffffffffff16600073ffffffffffffffffffffffffffffffffffffffff167fddf252ad1be2c89b69c2b068fc378daa952ba7f163c4a11628f55a4df523b3ef60405160405180910390a46139d5600083836001613555565b5050565b6000808273ffffffffffffffffffffffffffffffffffffffff163b119050919050565b606060006001613a0b84613aca565b01905060008167ffffffffffffffff811115613a2a57613a296140d8565b5b6040519080825280601f01601f191660200182016040528015613a5c5781602001600182028036833780820191505090505b509050600082602001820190505b600115613abf578080600190039150507f3031323334353637383961626364656600000000000000000000000000000000600a86061a8153600a8581613ab357613ab2615b63565b5b04945060008503613a6a575b819350505050919050565b600080600090507a184f03e93ff9f4daa797ed6e38ed64bf6a1f0100000000000000008310613b28577a184f03e93ff9f4daa797ed6e38ed64bf6a1f0100000000000000008381613b1e57613b1d615b63565b5b0492506040810190505b6d04ee2d6d415b85acef81000000008310613b65576d04ee2d6d415b85acef81000000008381613b5b57613b5a615b63565b5b0492506020810190505b662386f26fc100008310613b9457662386f26fc100008381613b8a57613b89615b63565b5b0492506010810190505b6305f5e1008310613bbd576305f5e1008381613bb357613bb2615b63565b5b0492506008810190505b6127108310613be2576127108381613bd857613bd7615b63565b5b0492506004810190505b60648310613c055760648381613bfb57613bfa615b63565b5b0492506002810190505b600a8310613c14576001810190505b80915050919050565b604051806101800160405280606081526020016000815260200160608152602001606081526020016000815260200160008152602001600073ffffffffffffffffffffffffffffffffffffffff168152602001600073ffffffffffffffffffffffffffffffffffffffff168152602001600073ffffffffffffffffffffffffffffffffffffffff16815260200160006003811115613cbe57613cbd6142f1565b5b815260200160608152602001600073ffffffffffffffffffffffffffffffffffffffff1681525090565b828054828255906000526020600020908101928215613d61579160200282015b82811115613d605782518260006101000a81548173ffffffffffffffffffffffffffffffffffffffff021916908373ffffffffffffffffffffffffffffffffffffffff16021790555091602001919060010190613d08565b5b509050613d6e9190613d72565b5090565b5b80821115613d8b576000816000905550600101613d73565b5090565b6000604051905090565b600080fd5b600080fd5b60007fffffffff0000000000000000000000000000000000000000000000000000000082169050919050565b613dd881613da3565b8114613de357600080fd5b50565b600081359050613df581613dcf565b92915050565b600060208284031215613e1157613e10613d99565b5b6000613e1f84828501613de6565b91505092915050565b60008115159050919050565b613e3d81613e28565b82525050565b6000602082019050613e586000830184613e34565b92915050565b600081519050919050565b600082825260208201905092915050565b60005b83811015613e98578082015181840152602081019050613e7d565b60008484015250505050565b6000601f19601f8301169050919050565b6000613ec082613e5e565b613eca8185613e69565b9350613eda818560208601613e7a565b613ee381613ea4565b840191505092915050565b60006020820190508181036000830152613f088184613eb5565b905092915050565b6000819050919050565b613f2381613f10565b8114613f2e57600080fd5b50565b600081359050613f4081613f1a565b92915050565b600060208284031215613f5c57613f5b613d99565b5b6000613f6a84828501613f31565b91505092915050565b600073ffffffffffffffffffffffffffffffffffffffff82169050919050565b6000613f9e82613f73565b9050919050565b613fae81613f93565b82525050565b6000602082019050613fc96000830184613fa5565b92915050565b613fd881613f93565b8114613fe357600080fd5b50565b600081359050613ff581613fcf565b92915050565b6000806040838503121561401257614011613d99565b5b600061402085828601613fe6565b925050602061403185828601613f31565b9150509250929050565b6000806040838503121561405257614051613d99565b5b600061406085828601613f31565b925050602061407185828601613fe6565b9150509250929050565b60008060006060848603121561409457614093613d99565b5b60006140a286828701613fe6565b93505060206140b386828701613fe6565b92505060406140c486828701613f31565b9150509250925092565b600080fd5b600080fd5b7f4e487b7100000000000000000000000000000000000000000000000000000000600052604160045260246000fd5b61411082613ea4565b810181811067ffffffffffffffff8211171561412f5761412e6140d8565b5b80604052505050565b6000614142613d8f565b905061414e8282614107565b919050565b600067ffffffffffffffff82111561416e5761416d6140d8565b5b61417782613ea4565b9050602081019050919050565b82818337600083830152505050565b60006141a66141a184614153565b614138565b9050828152602081018484840111156141c2576141c16140d3565b5b6141cd848285614184565b509392505050565b600082601f8301126141ea576141e96140ce565b5b81356141fa848260208601614193565b91505092915050565b6000806040838503121561421a57614219613d99565b5b600083013567ffffffffffffffff81111561423857614237613d9e565b5b614244858286016141d5565b925050602061425585828601613f31565b9150509250929050565b61426881613f10565b82525050565b6000602082019050614283600083018461425f565b92915050565b600082825260208201905092915050565b60006142a582613e5e565b6142af8185614289565b93506142bf818560208601613e7a565b6142c881613ea4565b840191505092915050565b6142dc81613f10565b82525050565b6142eb81613f93565b82525050565b7f4e487b7100000000000000000000000000000000000000000000000000000000600052602160045260246000fd5b60048110614331576143306142f1565b5b50565b600081905061434282614320565b919050565b600061435282614334565b9050919050565b61436281614347565b82525050565b600081519050919050565b600082825260208201905092915050565b6000819050602082019050919050565b60006143a083836142e2565b60208301905092915050565b6000602082019050919050565b60006143c482614368565b6143ce8185614373565b93506143d983614384565b8060005b8381101561440a5781516143f18882614394565b97506143fc836143ac565b9250506001810190506143dd565b5085935050505092915050565b6000610180830160008301518482036000860152614435828261429a565b915050602083015161444a60208601826142d3565b5060408301518482036040860152614462828261429a565b9150506060830151848203606086015261447c828261429a565b915050608083015161449160808601826142d3565b5060a08301516144a460a08601826142d3565b5060c08301516144b760c08601826142e2565b5060e08301516144ca60e08601826142e2565b506101008301516144df6101008601826142e2565b506101208301516144f4610120860182614359565b5061014083015184820361014086015261450e82826143b9565b9150506101608301516145256101608601826142e2565b508091505092915050565b6000602082019050818103600083015261454a8184614417565b905092915050565b60006020828403121561456857614567613d99565b5b600061457684828501613fe6565b91505092915050565b6000604082019050614594600083018561425f565b6145a16020830184613fa5565b9392505050565b6145b181614347565b82525050565b60006101608201905081810360008301526145d2818e613eb5565b90506145e1602083018d61425f565b81810360408301526145f3818c613eb5565b90508181036060830152614607818b613eb5565b9050614616608083018a61425f565b61462360a083018961425f565b61463060c0830188613fa5565b61463d60e0830187613fa5565b61464b610100830186613fa5565b6146596101208301856145a8565b614667610140830184613fa5565b9c9b505050505050505050505050565b6000806000806080858703121561469157614690613d99565b5b600085013567ffffffffffffffff8111156146af576146ae613d9e565b5b6146bb878288016141d5565b945050602085013567ffffffffffffffff8111156146dc576146db613d9e565b5b6146e8878288016141d5565b935050604085013567ffffffffffffffff81111561470957614708613d9e565b5b614715878288016141d5565b925050606061472687828801613f31565b91505092959194509250565b6000606082019050614747600083018661425f565b6147546020830185613fa5565b6147616040830184613fa5565b949350505050565b61477281613e28565b811461477d57600080fd5b50565b60008135905061478f81614769565b92915050565b600080604083850312156147ac576147ab613d99565b5b60006147ba85828601613fe6565b92505060206147cb85828601614780565b9150509250929050565b600067ffffffffffffffff8211156147f0576147ef6140d8565b5b6147f982613ea4565b9050602081019050919050565b6000614819614814846147d5565b614138565b905082815260208101848484011115614835576148346140d3565b5b614840848285614184565b509392505050565b600082601f83011261485d5761485c6140ce565b5b813561486d848260208601614806565b91505092915050565b600080600080608085870312156148905761488f613d99565b5b600061489e87828801613fe6565b94505060206148af87828801613fe6565b93505060406148c087828801613f31565b925050606085013567ffffffffffffffff8111156148e1576148e0613d9e565b5b6148ed87828801614848565b91505092959194509250565b600081519050919050565b600082825260208201905092915050565b6000819050602082019050919050565b6000610180830160008301518482036000860152614943828261429a565b915050602083015161495860208601826142d3565b5060408301518482036040860152614970828261429a565b9150506060830151848203606086015261498a828261429a565b915050608083015161499f60808601826142d3565b5060a08301516149b260a08601826142d3565b5060c08301516149c560c08601826142e2565b5060e08301516149d860e08601826142e2565b506101008301516149ed6101008601826142e2565b50610120830151614a02610120860182614359565b50610140830151848203610140860152614a1c82826143b9565b915050610160830151614a336101608601826142e2565b508091505092915050565b6000614a4a8383614925565b905092915050565b6000602082019050919050565b6000614a6a826148f9565b614a748185614904565b935083602082028501614a8685614915565b8060005b85811015614ac25784840389528151614aa38582614a3e565b9450614aae83614a52565b925060208a01995050600181019050614a8a565b50829750879550505050505092915050565b60006020820190508181036000830152614aee8184614a5f565b905092915050565b60008060408385031215614b0d57614b0c613d99565b5b6000614b1b85828601613fe6565b9250506020614b2c85828601613fe6565b9150509250929050565b7f4e487b7100000000000000000000000000000000000000000000000000000000600052602260045260246000fd5b60006002820490506001821680614b7d57607f821691505b602082108103614b9057614b8f614b36565b5b50919050565b7f4552433732313a20617070726f76616c20746f2063757272656e74206f776e6560008201527f7200000000000000000000000000000000000000000000000000000000000000602082015250565b6000614bf2602183613e69565b9150614bfd82614b96565b604082019050919050565b60006020820190508181036000830152614c2181614be5565b9050919050565b7f4552433732313a20617070726f76652063616c6c6572206973206e6f7420746f60008201527f6b656e206f776e6572206f7220617070726f76656420666f7220616c6c000000602082015250565b6000614c84603d83613e69565b9150614c8f82614c28565b604082019050919050565b60006020820190508181036000830152614cb381614c77565b9050919050565b7f50726f64756374204944206e6f7420666f756e64000000000000000000000000600082015250565b6000614cf0601483613e69565b9150614cfb82614cba565b602082019050919050565b60006020820190508181036000830152614d1f81614ce3565b9050919050565b7f4e487b7100000000000000000000000000000000000000000000000000000000600052603260045260246000fd5b7f52657461696c6572206e6f7420766572696669656420746f2073656c6c20746860008201527f652070726f647563740000000000000000000000000000000000000000000000602082015250565b6000614db1602983613e69565b9150614dbc82614d55565b604082019050919050565b60006020820190508181036000830152614de081614da4565b9050919050565b7f4e487b7100000000000000000000000000000000000000000000000000000000600052601160045260246000fd5b6000614e2182613f10565b9150614e2c83613f10565b9250828202614e3a81613f10565b91508282048414831517614e5157614e50614de7565b5b5092915050565b6000614e6382613f10565b9150614e6e83613f10565b9250828201905080821115614e8657614e85614de7565b5b92915050565b7f55736572206973206e6f7420612063757272656e74206f776e6572206f66207460008201527f68652070726f6475637400000000000000000000000000000000000000000000602082015250565b6000614ee8602a83613e69565b9150614ef382614e8c565b604082019050919050565b60006020820190508181036000830152614f1781614edb565b9050919050565b7f4552433732313a2063616c6c6572206973206e6f7420746f6b656e206f776e6560008201527f72206f7220617070726f76656400000000000000000000000000000000000000602082015250565b6000614f7a602d83613e69565b9150614f8582614f1e565b604082019050919050565b60006020820190508181036000830152614fa981614f6d565b9050919050565b7f437573746f6d6572206e6f7420766572696669656420746f20636c61696d207460008201527f68652077617272616e7479000000000000000000000000000000000000000000602082015250565b600061500c602b83613e69565b915061501782614fb0565b604082019050919050565b6000602082019050818103600083015261503b81614fff565b9050919050565b7f57617272616e7479204578706972656400000000000000000000000000000000600082015250565b6000615078601083613e69565b915061508382615042565b602082019050919050565b600060208201905081810360008301526150a78161506b565b9050919050565b7f4552433732313a20696e76616c696420746f6b656e2049440000000000000000600082015250565b60006150e4601883613e69565b91506150ef826150ae565b602082019050919050565b60006020820190508181036000830152615113816150d7565b9050919050565b7f4552433732313a2061646472657373207a65726f206973206e6f74206120766160008201527f6c6964206f776e65720000000000000000000000000000000000000000000000602082015250565b6000615176602983613e69565b91506151818261511a565b604082019050919050565b600060208201905081810360008301526151a581615169565b9050919050565b7f57617272616e747920706572696f64206d75737420626520677265617465722060008201527f7468616e2030206d6f6e74687300000000000000000000000000000000000000602082015250565b6000615208602d83613e69565b9150615213826151ac565b604082019050919050565b60006020820190508181036000830152615237816151fb565b9050919050565b7f55736572206973206e6f7420612072656769737465726564204d616e7566617460008201527f757265722c2063616e27742063726561746520612070726f6475637400000000602082015250565b600061529a603c83613e69565b91506152a58261523e565b604082019050919050565b600060208201905081810360008301526152c98161528d565b9050919050565b60008190508160005260206000209050919050565b60006020601f8301049050919050565b600082821b905092915050565b6000600883026153327fffffffffffffffffffffffffffffffffffffffffffffffffffffffffffffffff826152f5565b61533c86836152f5565b95508019841693508086168417925050509392505050565b6000819050919050565b600061537961537461536f84613f10565b615354565b613f10565b9050919050565b6000819050919050565b6153938361535e565b6153a761539f82615380565b848454615302565b825550505050565b600090565b6153bc6153af565b6153c781848461538a565b505050565b5b818110156153eb576153e06000826153b4565b6001810190506153cd565b5050565b601f82111561543057615401816152d0565b61540a846152e5565b81016020851015615419578190505b61542d615425856152e5565b8301826153cc565b50505b505050565b600082821c905092915050565b600061545360001984600802615435565b1980831691505092915050565b600061546c8383615442565b9150826002028217905092915050565b61548582613e5e565b67ffffffffffffffff81111561549e5761549d6140d8565b5b6154a88254614b65565b6154b38282856153ef565b600060209050601f8311600181146154e657600084156154d4578287015190505b6154de8582615460565b865550615546565b601f1984166154f4866152d0565b60005b8281101561551c578489015182556001820191506020850194506020810190506154f7565b868310156155395784890151615535601f891682615442565b8355505b6001600288020188555050505b505050505050565b600061555982613f10565b91507fffffffffffffffffffffffffffffffffffffffffffffffffffffffffffffffff820361558b5761558a614de7565b5b600182019050919050565b7f4f776e61626c653a206e6577206f776e657220697320746865207a65726f206160008201527f6464726573730000000000000000000000000000000000000000000000000000602082015250565b60006155f2602683613e69565b91506155fd82615596565b604082019050919050565b60006020820190508181036000830152615621816155e5565b9050919050565b7f4552433732313a207472616e736665722066726f6d20696e636f72726563742060008201527f6f776e6572000000000000000000000000000000000000000000000000000000602082015250565b6000615684602583613e69565b915061568f82615628565b604082019050919050565b600060208201905081810360008301526156b381615677565b9050919050565b7f4552433732313a207472616e7366657220746f20746865207a65726f2061646460008201527f7265737300000000000000000000000000000000000000000000000000000000602082015250565b6000615716602483613e69565b9150615721826156ba565b604082019050919050565b6000602082019050818103600083015261574581615709565b9050919050565b7f45524337323155524953746f726167653a2055524920736574206f66206e6f6e60008201527f6578697374656e7420746f6b656e000000000000000000000000000000000000602082015250565b60006157a8602e83613e69565b91506157b38261574c565b604082019050919050565b600060208201905081810360008301526157d78161579b565b9050919050565b7f4f776e61626c653a2063616c6c6572206973206e6f7420746865206f776e6572600082015250565b6000615814602083613e69565b915061581f826157de565b602082019050919050565b6000602082019050818103600083015261584381615807565b9050919050565b7f4552433732313a20617070726f766520746f2063616c6c657200000000000000600082015250565b6000615880601983613e69565b915061588b8261584a565b602082019050919050565b600060208201905081810360008301526158af81615873565b9050919050565b7f4552433732313a207472616e7366657220746f206e6f6e20455243373231526560008201527f63656976657220696d706c656d656e7465720000000000000000000000000000602082015250565b6000615912603283613e69565b915061591d826158b6565b604082019050919050565b6000602082019050818103600083015261594181615905565b9050919050565b600081905092915050565b600061595e82613e5e565b6159688185615948565b9350615978818560208601613e7a565b80840191505092915050565b60006159908285615953565b915061599c8284615953565b91508190509392505050565b600081519050919050565b600082825260208201905092915050565b60006159cf826159a8565b6159d981856159b3565b93506159e9818560208601613e7a565b6159f281613ea4565b840191505092915050565b6000608082019050615a126000830187613fa5565b615a1f6020830186613fa5565b615a2c604083018561425f565b8181036060830152615a3e81846159c4565b905095945050505050565b600081519050615a5881613dcf565b92915050565b600060208284031215615a7457615a73613d99565b5b6000615a8284828501615a49565b91505092915050565b7f4552433732313a206d696e7420746f20746865207a65726f2061646472657373600082015250565b6000615ac1602083613e69565b9150615acc82615a8b565b602082019050919050565b60006020820190508181036000830152615af081615ab4565b9050919050565b7f4552433732313a20746f6b656e20616c7265616479206d696e74656400000000600082015250565b6000615b2d601c83613e69565b9150615b3882615af7565b602082019050919050565b60006020820190508181036000830152615b5c81615b20565b9050919050565b7f4e487b7100000000000000000000000000000000000000000000000000000000600052601260045260246000fdfea26469706673582212204c327ded4a7f8f348bd683404a4d6e6e29e012eda481a1063430b56d32636c6c64736f6c63430008110033",
  "linkReferences": {},
  "deployedLinkReferences": {}
}