{
  "_format": "hh-sol-artifact-1",
  "contractName": "Warranty",
  "sourceName": "contracts/Warranty.sol",
  "abi": [
    {
      "inputs": [],
      "stateMutability": "nonpayable",
      "type": "constructor"
    },
    {
      "anonymous": false,
      "inputs": [
        {
          "indexed": true,
          "internalType": "address",
          "name": "owner",
          "type": "address"
        },
        {
          "indexed": true,
          "internalType": "address",
          "name": "approved",
          "type": "address"
        },
        {
          "indexed": true,
          "internalType": "uint256",
          "name": "tokenId",
          "type": "uint256"
        }
      ],
      "name": "Approval",
      "type": "event"
    },
    {
      "anonymous": false,
      "inputs": [
        {
          "indexed": true,
          "internalType": "address",
          "name": "owner",
          "type": "address"
        },
        {
          "indexed": true,
          "internalType": "address",
          "name": "operator",
          "type": "address"
        },
        {
          "indexed": false,
          "internalType": "bool",
          "name": "approved",
          "type": "bool"
        }
      ],
      "name": "ApprovalForAll",
      "type": "event"
    },
    {
      "anonymous": false,
      "inputs": [
        {
          "indexed": true,
          "internalType": "address",
          "name": "previousOwner",
          "type": "address"
        },
        {
          "indexed": true,
          "internalType": "address",
          "name": "newOwner",
          "type": "address"
        }
      ],
      "name": "OwnershipTransferred",
      "type": "event"
    },
    {
      "anonymous": false,
      "inputs": [
        {
          "indexed": true,
          "internalType": "address",
          "name": "from",
          "type": "address"
        },
        {
          "indexed": true,
          "internalType": "address",
          "name": "to",
          "type": "address"
        },
        {
          "indexed": true,
          "internalType": "uint256",
          "name": "tokenId",
          "type": "uint256"
        }
      ],
      "name": "Transfer",
      "type": "event"
    },
    {
      "inputs": [
        {
          "internalType": "uint256",
          "name": "_id",
          "type": "uint256"
        }
      ],
      "name": "activateWarranty",
      "outputs": [],
      "stateMutability": "nonpayable",
      "type": "function"
    },
    {
      "inputs": [],
      "name": "addManufacturer",
      "outputs": [],
      "stateMutability": "nonpayable",
      "type": "function"
    },
    {
      "inputs": [
        {
          "internalType": "string",
          "name": "_title",
          "type": "string"
        },
        {
          "internalType": "uint256",
          "name": "_id",
          "type": "uint256"
        },
        {
          "internalType": "string",
          "name": "_product_image",
          "type": "string"
        },
        {
          "internalType": "string",
          "name": "_desc",
          "type": "string"
        },
        {
          "internalType": "uint256",
          "name": "_expiry_time",
          "type": "uint256"
        }
      ],
      "name": "addProduct",
      "outputs": [],
      "stateMutability": "nonpayable",
      "type": "function"
    },
    {
      "inputs": [
        {
          "internalType": "address",
          "name": "_radd",
          "type": "address"
        }
      ],
      "name": "addRetailer",
      "outputs": [],
      "stateMutability": "nonpayable",
      "type": "function"
    },
    {
      "inputs": [
        {
          "internalType": "address",
          "name": "to",
          "type": "address"
        },
        {
          "internalType": "uint256",
          "name": "tokenId",
          "type": "uint256"
        }
      ],
      "name": "approve",
      "outputs": [],
      "stateMutability": "nonpayable",
      "type": "function"
    },
    {
      "inputs": [
        {
          "internalType": "address",
          "name": "owner",
          "type": "address"
        }
      ],
      "name": "balanceOf",
      "outputs": [
        {
          "internalType": "uint256",
          "name": "",
          "type": "uint256"
        }
      ],
      "stateMutability": "view",
      "type": "function"
    },
    {
      "inputs": [
        {
          "internalType": "uint256",
          "name": "tokenId",
          "type": "uint256"
        }
      ],
      "name": "burnNft",
      "outputs": [],
      "stateMutability": "nonpayable",
      "type": "function"
    },
    {
      "inputs": [],
      "name": "checkUser",
      "outputs": [
        {
          "internalType": "uint256",
          "name": "",
          "type": "uint256"
        }
      ],
      "stateMutability": "view",
      "type": "function"
    },
    {
      "inputs": [],
      "name": "cid",
      "outputs": [
        {
          "internalType": "uint256",
          "name": "",
          "type": "uint256"
        }
      ],
      "stateMutability": "view",
      "type": "function"
    },
    {
      "inputs": [
        {
          "internalType": "uint256",
          "name": "tokenId",
          "type": "uint256"
        }
      ],
      "name": "getApproved",
      "outputs": [
        {
          "internalType": "address",
          "name": "",
          "type": "address"
        }
      ],
      "stateMutability": "view",
      "type": "function"
    },
    {
      "inputs": [
        {
          "internalType": "uint256",
          "name": "_id",
          "type": "uint256"
        }
      ],
      "name": "getProductDetails",
      "outputs": [
        {
          "components": [
            {
              "internalType": "string",
              "name": "title",
              "type": "string"
            },
            {
              "internalType": "uint256",
              "name": "id",
              "type": "uint256"
            },
            {
              "internalType": "string",
              "name": "product_image",
              "type": "string"
            },
            {
              "internalType": "string",
              "name": "desc",
              "type": "string"
            },
            {
              "internalType": "uint256",
              "name": "activate_time",
              "type": "uint256"
            },
            {
              "internalType": "uint256",
              "name": "expiry_time",
              "type": "uint256"
            },
            {
              "internalType": "address",
              "name": "manufacturer",
              "type": "address"
            },
            {
              "internalType": "address",
              "name": "retailer",
              "type": "address"
            },
            {
              "internalType": "address",
              "name": "customer",
              "type": "address"
            },
            {
              "internalType": "enum Warranty.product_status",
              "name": "status",
              "type": "uint8"
            },
            {
              "internalType": "address[]",
              "name": "history",
              "type": "address[]"
            }
          ],
          "internalType": "struct Warranty.product_details",
          "name": "",
          "type": "tuple"
        }
      ],
      "stateMutability": "view",
      "type": "function"
    },
    {
      "inputs": [],
      "name": "getProductId",
      "outputs": [
        {
          "internalType": "uint256",
          "name": "",
          "type": "uint256"
        }
      ],
      "stateMutability": "view",
      "type": "function"
    },
    {
      "inputs": [],
      "name": "getProducts",
      "outputs": [
        {
          "components": [
            {
              "internalType": "string",
              "name": "title",
              "type": "string"
            },
            {
              "internalType": "uint256",
              "name": "id",
              "type": "uint256"
            },
            {
              "internalType": "string",
              "name": "product_image",
              "type": "string"
            },
            {
              "internalType": "string",
              "name": "desc",
              "type": "string"
            },
            {
              "internalType": "uint256",
              "name": "activate_time",
              "type": "uint256"
            },
            {
              "internalType": "uint256",
              "name": "expiry_time",
              "type": "uint256"
            },
            {
              "internalType": "address",
              "name": "manufacturer",
              "type": "address"
            },
            {
              "internalType": "address",
              "name": "retailer",
              "type": "address"
            },
            {
              "internalType": "address",
              "name": "customer",
              "type": "address"
            },
            {
              "internalType": "enum Warranty.product_status",
              "name": "status",
              "type": "uint8"
            },
            {
              "internalType": "address[]",
              "name": "history",
              "type": "address[]"
            }
          ],
          "internalType": "struct Warranty.product_details[]",
          "name": "",
          "type": "tuple[]"
        }
      ],
      "stateMutability": "view",
      "type": "function"
    },
    {
      "inputs": [
        {
          "internalType": "address",
          "name": "owner",
          "type": "address"
        },
        {
          "internalType": "address",
          "name": "operator",
          "type": "address"
        }
      ],
      "name": "isApprovedForAll",
      "outputs": [
        {
          "internalType": "bool",
          "name": "",
          "type": "bool"
        }
      ],
      "stateMutability": "view",
      "type": "function"
    },
    {
      "inputs": [
        {
          "internalType": "address",
          "name": "",
          "type": "address"
        }
      ],
      "name": "manufacturers",
      "outputs": [
        {
          "internalType": "uint256",
          "name": "id",
          "type": "uint256"
        },
        {
          "internalType": "address",
          "name": "add",
          "type": "address"
        }
      ],
      "stateMutability": "view",
      "type": "function"
    },
    {
      "inputs": [],
      "name": "name",
      "outputs": [
        {
          "internalType": "string",
          "name": "",
          "type": "string"
        }
      ],
      "stateMutability": "view",
      "type": "function"
    },
    {
      "inputs": [],
      "name": "owner",
      "outputs": [
        {
          "internalType": "address",
          "name": "",
          "type": "address"
        }
      ],
      "stateMutability": "view",
      "type": "function"
    },
    {
      "inputs": [
        {
          "internalType": "uint256",
          "name": "tokenId",
          "type": "uint256"
        }
      ],
      "name": "ownerOf",
      "outputs": [
        {
          "internalType": "address",
          "name": "",
          "type": "address"
        }
      ],
      "stateMutability": "view",
      "type": "function"
    },
    {
      "inputs": [
        {
          "internalType": "uint256",
          "name": "",
          "type": "uint256"
        }
      ],
      "name": "products",
      "outputs": [
        {
          "internalType": "string",
          "name": "title",
          "type": "string"
        },
        {
          "internalType": "uint256",
          "name": "id",
          "type": "uint256"
        },
        {
          "internalType": "string",
          "name": "product_image",
          "type": "string"
        },
        {
          "internalType": "string",
          "name": "desc",
          "type": "string"
        },
        {
          "internalType": "uint256",
          "name": "activate_time",
          "type": "uint256"
        },
        {
          "internalType": "uint256",
          "name": "expiry_time",
          "type": "uint256"
        },
        {
          "internalType": "address",
          "name": "manufacturer",
          "type": "address"
        },
        {
          "internalType": "address",
          "name": "retailer",
          "type": "address"
        },
        {
          "internalType": "address",
          "name": "customer",
          "type": "address"
        },
        {
          "internalType": "enum Warranty.product_status",
          "name": "status",
          "type": "uint8"
        }
      ],
      "stateMutability": "view",
      "type": "function"
    },
    {
      "inputs": [],
      "name": "renounceOwnership",
      "outputs": [],
      "stateMutability": "nonpayable",
      "type": "function"
    },
    {
      "inputs": [
        {
          "internalType": "uint256",
          "name": "_id",
          "type": "uint256"
        },
        {
          "internalType": "address",
          "name": "to",
          "type": "address"
        }
      ],
      "name": "resellProduct",
      "outputs": [],
      "stateMutability": "nonpayable",
      "type": "function"
    },
    {
      "inputs": [
        {
          "internalType": "address",
          "name": "",
          "type": "address"
        }
      ],
      "name": "retailers",
      "outputs": [
        {
          "internalType": "uint256",
          "name": "id",
          "type": "uint256"
        },
        {
          "internalType": "address",
          "name": "madd",
          "type": "address"
        },
        {
          "internalType": "address",
          "name": "radd",
          "type": "address"
        }
      ],
      "stateMutability": "view",
      "type": "function"
    },
    {
      "inputs": [
        {
          "internalType": "address",
          "name": "to",
          "type": "address"
        },
        {
          "internalType": "string",
          "name": "uri",
          "type": "string"
        },
        {
          "internalType": "uint256",
          "name": "tokenId",
          "type": "uint256"
        }
      ],
      "name": "safeMint",
      "outputs": [
        {
          "internalType": "uint256",
          "name": "tokenIdMinted",
          "type": "uint256"
        }
      ],
      "stateMutability": "nonpayable",
      "type": "function"
    },
    {
      "inputs": [
        {
          "internalType": "address",
          "name": "from",
          "type": "address"
        },
        {
          "internalType": "address",
          "name": "to",
          "type": "address"
        },
        {
          "internalType": "uint256",
          "name": "tokenId",
          "type": "uint256"
        }
      ],
      "name": "safeTransferFrom",
      "outputs": [],
      "stateMutability": "nonpayable",
      "type": "function"
    },
    {
      "inputs": [
        {
          "internalType": "address",
          "name": "from",
          "type": "address"
        },
        {
          "internalType": "address",
          "name": "to",
          "type": "address"
        },
        {
          "internalType": "uint256",
          "name": "tokenId",
          "type": "uint256"
        },
        {
          "internalType": "bytes",
          "name": "data",
          "type": "bytes"
        }
      ],
      "name": "safeTransferFrom",
      "outputs": [],
      "stateMutability": "nonpayable",
      "type": "function"
    },
    {
      "inputs": [
        {
          "internalType": "uint256",
          "name": "_id",
          "type": "uint256"
        },
        {
          "internalType": "address",
          "name": "_customer",
          "type": "address"
        }
      ],
      "name": "sellProduct",
      "outputs": [],
      "stateMutability": "nonpayable",
      "type": "function"
    },
    {
      "inputs": [
        {
          "internalType": "address",
          "name": "operator",
          "type": "address"
        },
        {
          "internalType": "bool",
          "name": "approved",
          "type": "bool"
        }
      ],
      "name": "setApprovalForAll",
      "outputs": [],
      "stateMutability": "nonpayable",
      "type": "function"
    },
    {
      "inputs": [
        {
          "internalType": "bytes4",
          "name": "interfaceId",
          "type": "bytes4"
        }
      ],
      "name": "supportsInterface",
      "outputs": [
        {
          "internalType": "bool",
          "name": "",
          "type": "bool"
        }
      ],
      "stateMutability": "view",
      "type": "function"
    },
    {
      "inputs": [],
      "name": "symbol",
      "outputs": [
        {
          "internalType": "string",
          "name": "",
          "type": "string"
        }
      ],
      "stateMutability": "view",
      "type": "function"
    },
    {
      "inputs": [
        {
          "internalType": "uint256",
          "name": "tokenId",
          "type": "uint256"
        }
      ],
      "name": "tokenURI",
      "outputs": [
        {
          "internalType": "string",
          "name": "",
          "type": "string"
        }
      ],
      "stateMutability": "view",
      "type": "function"
    },
    {
      "inputs": [
        {
          "internalType": "address",
          "name": "from",
          "type": "address"
        },
        {
          "internalType": "address",
          "name": "to",
          "type": "address"
        },
        {
          "internalType": "uint256",
          "name": "tokenId",
          "type": "uint256"
        }
      ],
      "name": "transferFrom",
      "outputs": [],
      "stateMutability": "nonpayable",
      "type": "function"
    },
    {
      "inputs": [
        {
          "internalType": "uint256",
          "name": "_id",
          "type": "uint256"
        },
        {
          "internalType": "address",
          "name": "_to",
          "type": "address"
        }
      ],
      "name": "transferNFT",
      "outputs": [],
      "stateMutability": "nonpayable",
      "type": "function"
    },
    {
      "inputs": [
        {
          "internalType": "address",
          "name": "newOwner",
          "type": "address"
        }
      ],
      "name": "transferOwnership",
      "outputs": [],
      "stateMutability": "nonpayable",
      "type": "function"
    }
  ],
  "bytecode": "0x60806040523480156200001157600080fd5b506040518060400160405280600b81526020017f4e465457617272616e74790000000000000000000000000000000000000000008152506040518060400160405280600481526020017f4e4654570000000000000000000000000000000000000000000000000000000081525081600090816200008f91906200041a565b508060019081620000a191906200041a565b505050620000c4620000b8620000d260201b60201c565b620000da60201b60201c565b6001600b8190555062000501565b600033905090565b6000600760009054906101000a900473ffffffffffffffffffffffffffffffffffffffff16905081600760006101000a81548173ffffffffffffffffffffffffffffffffffffffff021916908373ffffffffffffffffffffffffffffffffffffffff1602179055508173ffffffffffffffffffffffffffffffffffffffff168173ffffffffffffffffffffffffffffffffffffffff167f8be0079c531659141344cd1fd0a4f28419497f9722a3daafe3b4186f6b6457e060405160405180910390a35050565b600081519050919050565b7f4e487b7100000000000000000000000000000000000000000000000000000000600052604160045260246000fd5b7f4e487b7100000000000000000000000000000000000000000000000000000000600052602260045260246000fd5b600060028204905060018216806200022257607f821691505b602082108103620002385762000237620001da565b5b50919050565b60008190508160005260206000209050919050565b60006020601f8301049050919050565b600082821b905092915050565b600060088302620002a27fffffffffffffffffffffffffffffffffffffffffffffffffffffffffffffffff8262000263565b620002ae868362000263565b95508019841693508086168417925050509392505050565b6000819050919050565b6000819050919050565b6000620002fb620002f5620002ef84620002c6565b620002d0565b620002c6565b9050919050565b6000819050919050565b6200031783620002da565b6200032f620003268262000302565b84845462000270565b825550505050565b600090565b6200034662000337565b620003538184846200030c565b505050565b5b818110156200037b576200036f6000826200033c565b60018101905062000359565b5050565b601f821115620003ca5762000394816200023e565b6200039f8462000253565b81016020851015620003af578190505b620003c7620003be8562000253565b83018262000358565b50505b505050565b600082821c905092915050565b6000620003ef60001984600802620003cf565b1980831691505092915050565b60006200040a8383620003dc565b9150826002028217905092915050565b6200042582620001a0565b67ffffffffffffffff811115620004415762000440620001ab565b5b6200044d825462000209565b6200045a8282856200037f565b600060209050601f8311600181146200049257600084156200047d578287015190505b620004898582620003fc565b865550620004f9565b601f198416620004a2866200023e565b60005b82811015620004cc57848901518255600182019150602085019450602081019050620004a5565b86831015620004ec5784890151620004e8601f891682620003dc565b8355505b6001600288020188555050505b505050505050565b61598280620005116000396000f3fe608060405234801561001057600080fd5b50600436106101fb5760003560e01c80637ac877321161011a578063a2c66c36116100ad578063c29b2f201161007c578063c29b2f20146105a4578063c772745a146105c2578063c87b56dd146105f2578063e985e9c514610622578063f2fde38b14610652576101fb565b8063a2c66c3614610542578063aa3ec0a91461054c578063b88d4fde1461056a578063c156254714610586576101fb565b80639036c050116100e95780639036c050146104ba57806395d89b41146104d65780639a268f35146104f4578063a22cb46514610526576101fb565b80637ac87732146104295780637acc0b20146104475780638da5cb5b146104805780638ec4f5051461049e576101fb565b80633d5efefe116101925780636813b53b116101615780636813b53b1461038e5780636b5eb09c146103be57806370a08231146103ef578063715018a61461041f576101fb565b80633d5efefe1461030a57806342842e0e14610326578063519812de146103425780636352211e1461035e576101fb565b80630b569140116101ce5780630b5691401461029a57806315c54951146102b657806323b872dd146102d25780632a662768146102ee576101fb565b806301ffc9a71461020057806306fdde0314610230578063081812fc1461024e578063095ea7b31461027e575b600080fd5b61021a60048036038101906102159190613b81565b61066e565b6040516102279190613bc9565b60405180910390f35b610238610750565b6040516102459190613c74565b60405180910390f35b61026860048036038101906102639190613ccc565b6107e2565b6040516102759190613d3a565b60405180910390f35b61029860048036038101906102939190613d81565b610828565b005b6102b460048036038101906102af9190613dc1565b61093f565b005b6102d060048036038101906102cb9190613dc1565b610cce565b005b6102ec60048036038101906102e79190613e01565b610eb6565b005b61030860048036038101906103039190613ccc565b610f16565b005b610324600480360381019061031f9190613ccc565b6110c8565b005b610340600480360381019061033b9190613e01565b6110d4565b005b61035c60048036038101906103579190613f89565b6110f4565b005b61037860048036038101906103739190613ccc565b6114c0565b6040516103859190613d3a565b60405180910390f35b6103a860048036038101906103a39190613ccc565b611546565b6040516103b591906142ea565b60405180910390f35b6103d860048036038101906103d3919061430c565b611969565b6040516103e6929190614348565b60405180910390f35b6104096004803603810190610404919061430c565b6119ad565b6040516104169190614371565b60405180910390f35b610427611a64565b005b610431611a78565b60405161043e9190614371565b60405180910390f35b610461600480360381019061045c9190613ccc565b611a85565b6040516104779a9998979695949392919061439b565b60405180910390f35b610488611cee565b6040516104959190613d3a565b60405180910390f35b6104b860048036038101906104b3919061430c565b611d18565b005b6104d460048036038101906104cf9190613dc1565b611f23565b005b6104de611f32565b6040516104eb9190613c74565b60405180910390f35b61050e6004803603810190610509919061430c565b611fc4565b60405161051d9392919061444c565b60405180910390f35b610540600480360381019061053b91906144af565b61202e565b005b61054a612044565b005b61055461211a565b6040516105619190614371565b60405180910390f35b610584600480360381019061057f9190614590565b612120565b005b61058e612182565b60405161059b9190614371565b60405180910390f35b6105ac612231565b6040516105b991906147d9565b60405180910390f35b6105dc60048036038101906105d791906147fb565b612630565b6040516105e99190614371565b60405180910390f35b61060c60048036038101906106079190613ccc565b612650565b6040516106199190613c74565b60405180910390f35b61063c6004803603810190610637919061486a565b612662565b6040516106499190613bc9565b60405180910390f35b61066c6004803603810190610667919061430c565b6126f6565b005b60007f80ac58cd000000000000000000000000000000000000000000000000000000007bffffffffffffffffffffffffffffffffffffffffffffffffffffffff1916827bffffffffffffffffffffffffffffffffffffffffffffffffffffffff1916148061073957507f5b5e139f000000000000000000000000000000000000000000000000000000007bffffffffffffffffffffffffffffffffffffffffffffffffffffffff1916827bffffffffffffffffffffffffffffffffffffffffffffffffffffffff1916145b80610749575061074882612779565b5b9050919050565b60606000805461075f906148d9565b80601f016020809104026020016040519081016040528092919081815260200182805461078b906148d9565b80156107d85780601f106107ad576101008083540402835291602001916107d8565b820191906000526020600020905b8154815290600101906020018083116107bb57829003601f168201915b5050505050905090565b60006107ed826127e3565b6004600083815260200190815260200160002060009054906101000a900473ffffffffffffffffffffffffffffffffffffffff169050919050565b6000610833826114c0565b90508073ffffffffffffffffffffffffffffffffffffffff168373ffffffffffffffffffffffffffffffffffffffff16036108a3576040517f08c379a000000000000000000000000000000000000000000000000000000000815260040161089a9061497c565b60405180910390fd5b8073ffffffffffffffffffffffffffffffffffffffff166108c261282e565b73ffffffffffffffffffffffffffffffffffffffff1614806108f157506108f0816108eb61282e565b612662565b5b610930576040517f08c379a000000000000000000000000000000000000000000000000000000000815260040161092790614a0e565b60405180910390fd5b61093a8383612836565b505050565b6008805490508210610986576040517f08c379a000000000000000000000000000000000000000000000000000000000815260040161097d90614a7a565b60405180910390fd5b6008828154811061099a57610999614a9a565b5b90600052602060002090600a020160060160009054906101000a900473ffffffffffffffffffffffffffffffffffffffff1673ffffffffffffffffffffffffffffffffffffffff16600a60003373ffffffffffffffffffffffffffffffffffffffff1673ffffffffffffffffffffffffffffffffffffffff16815260200190815260200160002060010160009054906101000a900473ffffffffffffffffffffffffffffffffffffffff1673ffffffffffffffffffffffffffffffffffffffff1614610a9b576040517f08c379a0000000000000000000000000000000000000000000000000000000008152600401610a9290614b3b565b60405180910390fd5b4260088381548110610ab057610aaf614a9a565b5b90600052602060002090600a020160040181905550639cbf904060088381548110610ade57610add614a9a565b5b90600052602060002090600a020160050154610afa9190614b8a565b42610b059190614bcc565b60088381548110610b1957610b18614a9a565b5b90600052602060002090600a0201600501819055503360088381548110610b4357610b42614a9a565b5b90600052602060002090600a020160070160006101000a81548173ffffffffffffffffffffffffffffffffffffffff021916908373ffffffffffffffffffffffffffffffffffffffff1602179055508060088381548110610ba757610ba6614a9a565b5b90600052602060002090600a020160080160006101000a81548173ffffffffffffffffffffffffffffffffffffffff021916908373ffffffffffffffffffffffffffffffffffffffff160217905550600160088381548110610c0c57610c0b614a9a565b5b90600052602060002090600a020160080160146101000a81548160ff02191690836003811115610c3f57610c3e6140c0565b5b021790555060088281548110610c5857610c57614a9a565b5b90600052602060002090600a0201600901819080600181540180825580915050600190039060005260206000200160009091909190916101000a81548173ffffffffffffffffffffffffffffffffffffffff021916908373ffffffffffffffffffffffffffffffffffffffff1602179055505050565b6008805490508210610d15576040517f08c379a0000000000000000000000000000000000000000000000000000000008152600401610d0c90614a7a565b60405180910390fd5b3373ffffffffffffffffffffffffffffffffffffffff1660088381548110610d4057610d3f614a9a565b5b90600052602060002090600a020160080160009054906101000a900473ffffffffffffffffffffffffffffffffffffffff1673ffffffffffffffffffffffffffffffffffffffff1614610dc8576040517f08c379a0000000000000000000000000000000000000000000000000000000008152600401610dbf90614c72565b60405180910390fd5b8060088381548110610ddd57610ddc614a9a565b5b90600052602060002090600a020160080160006101000a81548173ffffffffffffffffffffffffffffffffffffffff021916908373ffffffffffffffffffffffffffffffffffffffff16021790555060088281548110610e4057610e3f614a9a565b5b90600052602060002090600a0201600901819080600181540180825580915050600190039060005260206000200160009091909190916101000a81548173ffffffffffffffffffffffffffffffffffffffff021916908373ffffffffffffffffffffffffffffffffffffffff1602179055505050565b610ec7610ec161282e565b826128ef565b610f06576040517f08c379a0000000000000000000000000000000000000000000000000000000008152600401610efd90614d04565b60405180910390fd5b610f11838383612984565b505050565b6008805490508110610f5d576040517f08c379a0000000000000000000000000000000000000000000000000000000008152600401610f5490614a7a565b60405180910390fd5b3373ffffffffffffffffffffffffffffffffffffffff1660088281548110610f8857610f87614a9a565b5b90600052602060002090600a020160080160009054906101000a900473ffffffffffffffffffffffffffffffffffffffff1673ffffffffffffffffffffffffffffffffffffffff1614611010576040517f08c379a000000000000000000000000000000000000000000000000000000000815260040161100790614c72565b60405180910390fd5b6008818154811061102457611023614a9a565b5b90600052602060002090600a0201600501544210611077576040517f08c379a000000000000000000000000000000000000000000000000000000000815260040161106e90614d70565b60405180910390fd5b60026008828154811061108d5761108c614a9a565b5b90600052602060002090600a020160080160146101000a81548160ff021916908360038111156110c0576110bf6140c0565b5b021790555050565b6110d181612c7d565b50565b6110ef83838360405180602001604052806000815250612120565b505050565b60008111611137576040517f08c379a000000000000000000000000000000000000000000000000000000000815260040161112e90614e02565b60405180910390fd5b3373ffffffffffffffffffffffffffffffffffffffff16600960003373ffffffffffffffffffffffffffffffffffffffff1673ffffffffffffffffffffffffffffffffffffffff16815260200190815260200160002060010160009054906101000a900473ffffffffffffffffffffffffffffffffffffffff1673ffffffffffffffffffffffffffffffffffffffff1614611207576040517f08c379a00000000000000000000000000000000000000000000000000000000081526004016111fe90614e94565b60405180910390fd5b600880549050841461124e576040517f08c379a000000000000000000000000000000000000000000000000000000000815260040161124590614f00565b60405180910390fd5b600081600061125d9190614bcc565b905060606008604051806101600160405280898152602001888152602001878152602001868152602001600081526020018481526020013373ffffffffffffffffffffffffffffffffffffffff168152602001600073ffffffffffffffffffffffffffffffffffffffff168152602001600073ffffffffffffffffffffffffffffffffffffffff168152602001600060038111156112fe576112fd6140c0565b5b81526020018381525090806001815401808255809150506001900390600052602060002090600a0201600090919091909150600082015181600001908161134591906150cc565b5060208201518160010155604082015181600201908161136591906150cc565b50606082015181600301908161137b91906150cc565b506080820151816004015560a0820151816005015560c08201518160060160006101000a81548173ffffffffffffffffffffffffffffffffffffffff021916908373ffffffffffffffffffffffffffffffffffffffff16021790555060e08201518160070160006101000a81548173ffffffffffffffffffffffffffffffffffffffff021916908373ffffffffffffffffffffffffffffffffffffffff1602179055506101008201518160080160006101000a81548173ffffffffffffffffffffffffffffffffffffffff021916908373ffffffffffffffffffffffffffffffffffffffff1602179055506101208201518160080160146101000a81548160ff02191690836003811115611492576114916140c0565b5b02179055506101408201518160090190805190602001906114b49291906139c0565b50505050505050505050565b6000806114cc83612dcb565b9050600073ffffffffffffffffffffffffffffffffffffffff168173ffffffffffffffffffffffffffffffffffffffff160361153d576040517f08c379a0000000000000000000000000000000000000000000000000000000008152600401611534906151ea565b60405180910390fd5b80915050919050565b61154e613a4a565b6008805490508210611595576040517f08c379a000000000000000000000000000000000000000000000000000000000815260040161158c90614a7a565b60405180910390fd5b600882815481106115a9576115a8614a9a565b5b90600052602060002090600a0201604051806101600160405290816000820180546115d3906148d9565b80601f01602080910402602001604051908101604052809291908181526020018280546115ff906148d9565b801561164c5780601f106116215761010080835404028352916020019161164c565b820191906000526020600020905b81548152906001019060200180831161162f57829003601f168201915b505050505081526020016001820154815260200160028201805461166f906148d9565b80601f016020809104026020016040519081016040528092919081815260200182805461169b906148d9565b80156116e85780601f106116bd576101008083540402835291602001916116e8565b820191906000526020600020905b8154815290600101906020018083116116cb57829003601f168201915b50505050508152602001600382018054611701906148d9565b80601f016020809104026020016040519081016040528092919081815260200182805461172d906148d9565b801561177a5780601f1061174f5761010080835404028352916020019161177a565b820191906000526020600020905b81548152906001019060200180831161175d57829003601f168201915b5050505050815260200160048201548152602001600582015481526020016006820160009054906101000a900473ffffffffffffffffffffffffffffffffffffffff1673ffffffffffffffffffffffffffffffffffffffff1673ffffffffffffffffffffffffffffffffffffffff1681526020016007820160009054906101000a900473ffffffffffffffffffffffffffffffffffffffff1673ffffffffffffffffffffffffffffffffffffffff1673ffffffffffffffffffffffffffffffffffffffff1681526020016008820160009054906101000a900473ffffffffffffffffffffffffffffffffffffffff1673ffffffffffffffffffffffffffffffffffffffff1673ffffffffffffffffffffffffffffffffffffffff1681526020016008820160149054906101000a900460ff1660038111156118be576118bd6140c0565b5b60038111156118d0576118cf6140c0565b5b81526020016009820180548060200260200160405190810160405280929190818152602001828054801561195957602002820191906000526020600020905b8160009054906101000a900473ffffffffffffffffffffffffffffffffffffffff1673ffffffffffffffffffffffffffffffffffffffff168152602001906001019080831161190f575b5050505050815250509050919050565b60096020528060005260406000206000915090508060000154908060010160009054906101000a900473ffffffffffffffffffffffffffffffffffffffff16905082565b60008073ffffffffffffffffffffffffffffffffffffffff168273ffffffffffffffffffffffffffffffffffffffff1603611a1d576040517f08c379a0000000000000000000000000000000000000000000000000000000008152600401611a149061527c565b60405180910390fd5b600360008373ffffffffffffffffffffffffffffffffffffffff1673ffffffffffffffffffffffffffffffffffffffff168152602001908152602001600020549050919050565b611a6c612e08565b611a766000612e86565b565b6000600880549050905090565b60088181548110611a9557600080fd5b90600052602060002090600a0201600091509050806000018054611ab8906148d9565b80601f0160208091040260200160405190810160405280929190818152602001828054611ae4906148d9565b8015611b315780601f10611b0657610100808354040283529160200191611b31565b820191906000526020600020905b815481529060010190602001808311611b1457829003601f168201915b505050505090806001015490806002018054611b4c906148d9565b80601f0160208091040260200160405190810160405280929190818152602001828054611b78906148d9565b8015611bc55780601f10611b9a57610100808354040283529160200191611bc5565b820191906000526020600020905b815481529060010190602001808311611ba857829003601f168201915b505050505090806003018054611bda906148d9565b80601f0160208091040260200160405190810160405280929190818152602001828054611c06906148d9565b8015611c535780601f10611c2857610100808354040283529160200191611c53565b820191906000526020600020905b815481529060010190602001808311611c3657829003601f168201915b5050505050908060040154908060050154908060060160009054906101000a900473ffffffffffffffffffffffffffffffffffffffff16908060070160009054906101000a900473ffffffffffffffffffffffffffffffffffffffff16908060080160009054906101000a900473ffffffffffffffffffffffffffffffffffffffff16908060080160149054906101000a900460ff1690508a565b6000600760009054906101000a900473ffffffffffffffffffffffffffffffffffffffff16905090565b600073ffffffffffffffffffffffffffffffffffffffff16600960003373ffffffffffffffffffffffffffffffffffffffff1673ffffffffffffffffffffffffffffffffffffffff16815260200190815260200160002060010160009054906101000a900473ffffffffffffffffffffffffffffffffffffffff1673ffffffffffffffffffffffffffffffffffffffff1603611de9576040517f08c379a0000000000000000000000000000000000000000000000000000000008152600401611de0906152e8565b60405180910390fd5b6040518060600160405280600b6000815480929190611e0790615308565b9190505581526020013373ffffffffffffffffffffffffffffffffffffffff1681526020018273ffffffffffffffffffffffffffffffffffffffff16815250600a60008373ffffffffffffffffffffffffffffffffffffffff1673ffffffffffffffffffffffffffffffffffffffff1681526020019081526020016000206000820151816000015560208201518160010160006101000a81548173ffffffffffffffffffffffffffffffffffffffff021916908373ffffffffffffffffffffffffffffffffffffffff16021790555060408201518160020160006101000a81548173ffffffffffffffffffffffffffffffffffffffff021916908373ffffffffffffffffffffffffffffffffffffffff16021790555090505050565b611f2e338284612984565b5050565b606060018054611f41906148d9565b80601f0160208091040260200160405190810160405280929190818152602001828054611f6d906148d9565b8015611fba5780601f10611f8f57610100808354040283529160200191611fba565b820191906000526020600020905b815481529060010190602001808311611f9d57829003601f168201915b5050505050905090565b600a6020528060005260406000206000915090508060000154908060010160009054906101000a900473ffffffffffffffffffffffffffffffffffffffff16908060020160009054906101000a900473ffffffffffffffffffffffffffffffffffffffff16905083565b61204061203961282e565b8383612f4c565b5050565b6040518060400160405280600b600081548092919061206290615308565b9190505581526020013373ffffffffffffffffffffffffffffffffffffffff16815250600960003373ffffffffffffffffffffffffffffffffffffffff1673ffffffffffffffffffffffffffffffffffffffff1681526020019081526020016000206000820151816000015560208201518160010160006101000a81548173ffffffffffffffffffffffffffffffffffffffff021916908373ffffffffffffffffffffffffffffffffffffffff160217905550905050565b600b5481565b61213161212b61282e565b836128ef565b612170576040517f08c379a000000000000000000000000000000000000000000000000000000000815260040161216790614d04565b60405180910390fd5b61217c848484846130b8565b50505050565b600080600960003373ffffffffffffffffffffffffffffffffffffffff1673ffffffffffffffffffffffffffffffffffffffff16815260200190815260200160002060000154146121d6576000905061222e565b6000600a60003373ffffffffffffffffffffffffffffffffffffffff1673ffffffffffffffffffffffffffffffffffffffff1681526020019081526020016000206000015414612229576001905061222e565b600290505b90565b60606008805480602002602001604051908101604052809291908181526020016000905b8282101561262757838290600052602060002090600a020160405180610160016040529081600082018054612289906148d9565b80601f01602080910402602001604051908101604052809291908181526020018280546122b5906148d9565b80156123025780601f106122d757610100808354040283529160200191612302565b820191906000526020600020905b8154815290600101906020018083116122e557829003601f168201915b5050505050815260200160018201548152602001600282018054612325906148d9565b80601f0160208091040260200160405190810160405280929190818152602001828054612351906148d9565b801561239e5780601f106123735761010080835404028352916020019161239e565b820191906000526020600020905b81548152906001019060200180831161238157829003601f168201915b505050505081526020016003820180546123b7906148d9565b80601f01602080910402602001604051908101604052809291908181526020018280546123e3906148d9565b80156124305780601f1061240557610100808354040283529160200191612430565b820191906000526020600020905b81548152906001019060200180831161241357829003601f168201915b5050505050815260200160048201548152602001600582015481526020016006820160009054906101000a900473ffffffffffffffffffffffffffffffffffffffff1673ffffffffffffffffffffffffffffffffffffffff1673ffffffffffffffffffffffffffffffffffffffff1681526020016007820160009054906101000a900473ffffffffffffffffffffffffffffffffffffffff1673ffffffffffffffffffffffffffffffffffffffff1673ffffffffffffffffffffffffffffffffffffffff1681526020016008820160009054906101000a900473ffffffffffffffffffffffffffffffffffffffff1673ffffffffffffffffffffffffffffffffffffffff1673ffffffffffffffffffffffffffffffffffffffff1681526020016008820160149054906101000a900460ff166003811115612574576125736140c0565b5b6003811115612586576125856140c0565b5b81526020016009820180548060200260200160405190810160405280929190818152602001828054801561260f57602002820191906000526020600020905b8160009054906101000a900473ffffffffffffffffffffffffffffffffffffffff1673ffffffffffffffffffffffffffffffffffffffff16815260200190600101908083116125c5575b50505050508152505081526020019060010190612255565b50505050905090565b600061263c8483613114565b6126468284613132565b8190509392505050565b606061265b8261319f565b9050919050565b6000600560008473ffffffffffffffffffffffffffffffffffffffff1673ffffffffffffffffffffffffffffffffffffffff16815260200190815260200160002060008373ffffffffffffffffffffffffffffffffffffffff1673ffffffffffffffffffffffffffffffffffffffff16815260200190815260200160002060009054906101000a900460ff16905092915050565b6126fe612e08565b600073ffffffffffffffffffffffffffffffffffffffff168173ffffffffffffffffffffffffffffffffffffffff160361276d576040517f08c379a0000000000000000000000000000000000000000000000000000000008152600401612764906153c2565b60405180910390fd5b61277681612e86565b50565b60007f01ffc9a7000000000000000000000000000000000000000000000000000000007bffffffffffffffffffffffffffffffffffffffffffffffffffffffff1916827bffffffffffffffffffffffffffffffffffffffffffffffffffffffff1916149050919050565b6127ec816132b1565b61282b576040517f08c379a0000000000000000000000000000000000000000000000000000000008152600401612822906151ea565b60405180910390fd5b50565b600033905090565b816004600083815260200190815260200160002060006101000a81548173ffffffffffffffffffffffffffffffffffffffff021916908373ffffffffffffffffffffffffffffffffffffffff160217905550808273ffffffffffffffffffffffffffffffffffffffff166128a9836114c0565b73ffffffffffffffffffffffffffffffffffffffff167f8c5be1e5ebec7d5bd14f71427d1e84f3dd0314c0f7b2291e5b200ac8c7c3b92560405160405180910390a45050565b6000806128fb836114c0565b90508073ffffffffffffffffffffffffffffffffffffffff168473ffffffffffffffffffffffffffffffffffffffff16148061293d575061293c8185612662565b5b8061297b57508373ffffffffffffffffffffffffffffffffffffffff16612963846107e2565b73ffffffffffffffffffffffffffffffffffffffff16145b91505092915050565b8273ffffffffffffffffffffffffffffffffffffffff166129a4826114c0565b73ffffffffffffffffffffffffffffffffffffffff16146129fa576040517f08c379a00000000000000000000000000000000000000000000000000000000081526004016129f190615454565b60405180910390fd5b600073ffffffffffffffffffffffffffffffffffffffff168273ffffffffffffffffffffffffffffffffffffffff1603612a69576040517f08c379a0000000000000000000000000000000000000000000000000000000008152600401612a60906154e6565b60405180910390fd5b612a7683838360016132f2565b8273ffffffffffffffffffffffffffffffffffffffff16612a96826114c0565b73ffffffffffffffffffffffffffffffffffffffff1614612aec576040517f08c379a0000000000000000000000000000000000000000000000000000000008152600401612ae390615454565b60405180910390fd5b6004600082815260200190815260200160002060006101000a81549073ffffffffffffffffffffffffffffffffffffffff02191690556001600360008573ffffffffffffffffffffffffffffffffffffffff1673ffffffffffffffffffffffffffffffffffffffff168152602001908152602001600020600082825403925050819055506001600360008473ffffffffffffffffffffffffffffffffffffffff1673ffffffffffffffffffffffffffffffffffffffff16815260200190815260200160002060008282540192505081905550816002600083815260200190815260200160002060006101000a81548173ffffffffffffffffffffffffffffffffffffffff021916908373ffffffffffffffffffffffffffffffffffffffff160217905550808273ffffffffffffffffffffffffffffffffffffffff168473ffffffffffffffffffffffffffffffffffffffff167fddf252ad1be2c89b69c2b068fc378daa952ba7f163c4a11628f55a4df523b3ef60405160405180910390a4612c7883838360016132f8565b505050565b6000612c88826114c0565b9050612c988160008460016132f2565b612ca1826114c0565b90506004600083815260200190815260200160002060006101000a81549073ffffffffffffffffffffffffffffffffffffffff02191690556001600360008373ffffffffffffffffffffffffffffffffffffffff1673ffffffffffffffffffffffffffffffffffffffff168152602001908152602001600020600082825403925050819055506002600083815260200190815260200160002060006101000a81549073ffffffffffffffffffffffffffffffffffffffff021916905581600073ffffffffffffffffffffffffffffffffffffffff168273ffffffffffffffffffffffffffffffffffffffff167fddf252ad1be2c89b69c2b068fc378daa952ba7f163c4a11628f55a4df523b3ef60405160405180910390a4612dc78160008460016132f8565b5050565b60006002600083815260200190815260200160002060009054906101000a900473ffffffffffffffffffffffffffffffffffffffff169050919050565b612e1061282e565b73ffffffffffffffffffffffffffffffffffffffff16612e2e611cee565b73ffffffffffffffffffffffffffffffffffffffff1614612e84576040517f08c379a0000000000000000000000000000000000000000000000000000000008152600401612e7b90615552565b60405180910390fd5b565b6000600760009054906101000a900473ffffffffffffffffffffffffffffffffffffffff16905081600760006101000a81548173ffffffffffffffffffffffffffffffffffffffff021916908373ffffffffffffffffffffffffffffffffffffffff1602179055508173ffffffffffffffffffffffffffffffffffffffff168173ffffffffffffffffffffffffffffffffffffffff167f8be0079c531659141344cd1fd0a4f28419497f9722a3daafe3b4186f6b6457e060405160405180910390a35050565b8173ffffffffffffffffffffffffffffffffffffffff168373ffffffffffffffffffffffffffffffffffffffff1603612fba576040517f08c379a0000000000000000000000000000000000000000000000000000000008152600401612fb1906155be565b60405180910390fd5b80600560008573ffffffffffffffffffffffffffffffffffffffff1673ffffffffffffffffffffffffffffffffffffffff16815260200190815260200160002060008473ffffffffffffffffffffffffffffffffffffffff1673ffffffffffffffffffffffffffffffffffffffff16815260200190815260200160002060006101000a81548160ff0219169083151502179055508173ffffffffffffffffffffffffffffffffffffffff168373ffffffffffffffffffffffffffffffffffffffff167f17307eab39ab6107e8899845ad3d59bd9653f200f220920489ca2b5937696c31836040516130ab9190613bc9565b60405180910390a3505050565b6130c3848484612984565b6130cf848484846132fe565b61310e576040517f08c379a000000000000000000000000000000000000000000000000000000000815260040161310590615650565b60405180910390fd5b50505050565b61312e828260405180602001604052806000815250613485565b5050565b61313b826132b1565b61317a576040517f08c379a0000000000000000000000000000000000000000000000000000000008152600401613171906156e2565b60405180910390fd5b8060066000848152602001908152602001600020908161319a91906150cc565b505050565b60606131aa826127e3565b60006006600084815260200190815260200160002080546131ca906148d9565b80601f01602080910402602001604051908101604052809291908181526020018280546131f6906148d9565b80156132435780601f1061321857610100808354040283529160200191613243565b820191906000526020600020905b81548152906001019060200180831161322657829003601f168201915b5050505050905060006132546134e0565b905060008151036132695781925050506132ac565b60008251111561329e57808260405160200161328692919061573e565b604051602081830303815290604052925050506132ac565b6132a7846134f7565b925050505b919050565b60008073ffffffffffffffffffffffffffffffffffffffff166132d383612dcb565b73ffffffffffffffffffffffffffffffffffffffff1614159050919050565b50505050565b50505050565b600061331f8473ffffffffffffffffffffffffffffffffffffffff1661355f565b15613478578373ffffffffffffffffffffffffffffffffffffffff1663150b7a0261334861282e565b8786866040518563ffffffff1660e01b815260040161336a94939291906157b7565b6020604051808303816000875af19250505080156133a657506040513d601f19601f820116820180604052508101906133a39190615818565b60015b613428573d80600081146133d6576040519150601f19603f3d011682016040523d82523d6000602084013e6133db565b606091505b506000815103613420576040517f08c379a000000000000000000000000000000000000000000000000000000000815260040161341790615650565b60405180910390fd5b805181602001fd5b63150b7a0260e01b7bffffffffffffffffffffffffffffffffffffffffffffffffffffffff1916817bffffffffffffffffffffffffffffffffffffffffffffffffffffffff19161491505061347d565b600190505b949350505050565b61348f8383613582565b61349c60008484846132fe565b6134db576040517f08c379a00000000000000000000000000000000000000000000000000000000081526004016134d290615650565b60405180910390fd5b505050565b606060405180602001604052806000815250905090565b6060613502826127e3565b600061350c6134e0565b9050600081511161352c5760405180602001604052806000815250613557565b806135368461379f565b60405160200161354792919061573e565b6040516020818303038152906040525b915050919050565b6000808273ffffffffffffffffffffffffffffffffffffffff163b119050919050565b600073ffffffffffffffffffffffffffffffffffffffff168273ffffffffffffffffffffffffffffffffffffffff16036135f1576040517f08c379a00000000000000000000000000000000000000000000000000000000081526004016135e890615891565b60405180910390fd5b6135fa816132b1565b1561363a576040517f08c379a0000000000000000000000000000000000000000000000000000000008152600401613631906158fd565b60405180910390fd5b6136486000838360016132f2565b613651816132b1565b15613691576040517f08c379a0000000000000000000000000000000000000000000000000000000008152600401613688906158fd565b60405180910390fd5b6001600360008473ffffffffffffffffffffffffffffffffffffffff1673ffffffffffffffffffffffffffffffffffffffff16815260200190815260200160002060008282540192505081905550816002600083815260200190815260200160002060006101000a81548173ffffffffffffffffffffffffffffffffffffffff021916908373ffffffffffffffffffffffffffffffffffffffff160217905550808273ffffffffffffffffffffffffffffffffffffffff16600073ffffffffffffffffffffffffffffffffffffffff167fddf252ad1be2c89b69c2b068fc378daa952ba7f163c4a11628f55a4df523b3ef60405160405180910390a461379b6000838360016132f8565b5050565b6060600060016137ae8461386d565b01905060008167ffffffffffffffff8111156137cd576137cc613e5e565b5b6040519080825280601f01601f1916602001820160405280156137ff5781602001600182028036833780820191505090505b509050600082602001820190505b600115613862578080600190039150507f3031323334353637383961626364656600000000000000000000000000000000600a86061a8153600a85816138565761385561591d565b5b0494506000850361380d575b819350505050919050565b600080600090507a184f03e93ff9f4daa797ed6e38ed64bf6a1f01000000000000000083106138cb577a184f03e93ff9f4daa797ed6e38ed64bf6a1f01000000000000000083816138c1576138c061591d565b5b0492506040810190505b6d04ee2d6d415b85acef81000000008310613908576d04ee2d6d415b85acef810000000083816138fe576138fd61591d565b5b0492506020810190505b662386f26fc10000831061393757662386f26fc10000838161392d5761392c61591d565b5b0492506010810190505b6305f5e1008310613960576305f5e10083816139565761395561591d565b5b0492506008810190505b612710831061398557612710838161397b5761397a61591d565b5b0492506004810190505b606483106139a8576064838161399e5761399d61591d565b5b0492506002810190505b600a83106139b7576001810190505b80915050919050565b828054828255906000526020600020908101928215613a39579160200282015b82811115613a385782518260006101000a81548173ffffffffffffffffffffffffffffffffffffffff021916908373ffffffffffffffffffffffffffffffffffffffff160217905550916020019190600101906139e0565b5b509050613a469190613af8565b5090565b604051806101600160405280606081526020016000815260200160608152602001606081526020016000815260200160008152602001600073ffffffffffffffffffffffffffffffffffffffff168152602001600073ffffffffffffffffffffffffffffffffffffffff168152602001600073ffffffffffffffffffffffffffffffffffffffff16815260200160006003811115613aeb57613aea6140c0565b5b8152602001606081525090565b5b80821115613b11576000816000905550600101613af9565b5090565b6000604051905090565b600080fd5b600080fd5b60007fffffffff0000000000000000000000000000000000000000000000000000000082169050919050565b613b5e81613b29565b8114613b6957600080fd5b50565b600081359050613b7b81613b55565b92915050565b600060208284031215613b9757613b96613b1f565b5b6000613ba584828501613b6c565b91505092915050565b60008115159050919050565b613bc381613bae565b82525050565b6000602082019050613bde6000830184613bba565b92915050565b600081519050919050565b600082825260208201905092915050565b60005b83811015613c1e578082015181840152602081019050613c03565b60008484015250505050565b6000601f19601f8301169050919050565b6000613c4682613be4565b613c508185613bef565b9350613c60818560208601613c00565b613c6981613c2a565b840191505092915050565b60006020820190508181036000830152613c8e8184613c3b565b905092915050565b6000819050919050565b613ca981613c96565b8114613cb457600080fd5b50565b600081359050613cc681613ca0565b92915050565b600060208284031215613ce257613ce1613b1f565b5b6000613cf084828501613cb7565b91505092915050565b600073ffffffffffffffffffffffffffffffffffffffff82169050919050565b6000613d2482613cf9565b9050919050565b613d3481613d19565b82525050565b6000602082019050613d4f6000830184613d2b565b92915050565b613d5e81613d19565b8114613d6957600080fd5b50565b600081359050613d7b81613d55565b92915050565b60008060408385031215613d9857613d97613b1f565b5b6000613da685828601613d6c565b9250506020613db785828601613cb7565b9150509250929050565b60008060408385031215613dd857613dd7613b1f565b5b6000613de685828601613cb7565b9250506020613df785828601613d6c565b9150509250929050565b600080600060608486031215613e1a57613e19613b1f565b5b6000613e2886828701613d6c565b9350506020613e3986828701613d6c565b9250506040613e4a86828701613cb7565b9150509250925092565b600080fd5b600080fd5b7f4e487b7100000000000000000000000000000000000000000000000000000000600052604160045260246000fd5b613e9682613c2a565b810181811067ffffffffffffffff82111715613eb557613eb4613e5e565b5b80604052505050565b6000613ec8613b15565b9050613ed48282613e8d565b919050565b600067ffffffffffffffff821115613ef457613ef3613e5e565b5b613efd82613c2a565b9050602081019050919050565b82818337600083830152505050565b6000613f2c613f2784613ed9565b613ebe565b905082815260208101848484011115613f4857613f47613e59565b5b613f53848285613f0a565b509392505050565b600082601f830112613f7057613f6f613e54565b5b8135613f80848260208601613f19565b91505092915050565b600080600080600060a08688031215613fa557613fa4613b1f565b5b600086013567ffffffffffffffff811115613fc357613fc2613b24565b5b613fcf88828901613f5b565b9550506020613fe088828901613cb7565b945050604086013567ffffffffffffffff81111561400157614000613b24565b5b61400d88828901613f5b565b935050606086013567ffffffffffffffff81111561402e5761402d613b24565b5b61403a88828901613f5b565b925050608061404b88828901613cb7565b9150509295509295909350565b600082825260208201905092915050565b600061407482613be4565b61407e8185614058565b935061408e818560208601613c00565b61409781613c2a565b840191505092915050565b6140ab81613c96565b82525050565b6140ba81613d19565b82525050565b7f4e487b7100000000000000000000000000000000000000000000000000000000600052602160045260246000fd5b60048110614100576140ff6140c0565b5b50565b6000819050614111826140ef565b919050565b600061412182614103565b9050919050565b61413181614116565b82525050565b600081519050919050565b600082825260208201905092915050565b6000819050602082019050919050565b600061416f83836140b1565b60208301905092915050565b6000602082019050919050565b600061419382614137565b61419d8185614142565b93506141a883614153565b8060005b838110156141d95781516141c08882614163565b97506141cb8361417b565b9250506001810190506141ac565b5085935050505092915050565b60006101608301600083015184820360008601526142048282614069565b915050602083015161421960208601826140a2565b50604083015184820360408601526142318282614069565b9150506060830151848203606086015261424b8282614069565b915050608083015161426060808601826140a2565b5060a083015161427360a08601826140a2565b5060c083015161428660c08601826140b1565b5060e083015161429960e08601826140b1565b506101008301516142ae6101008601826140b1565b506101208301516142c3610120860182614128565b506101408301518482036101408601526142dd8282614188565b9150508091505092915050565b6000602082019050818103600083015261430481846141e6565b905092915050565b60006020828403121561432257614321613b1f565b5b600061433084828501613d6c565b91505092915050565b61434281613c96565b82525050565b600060408201905061435d6000830185614339565b61436a6020830184613d2b565b9392505050565b60006020820190506143866000830184614339565b92915050565b61439581614116565b82525050565b60006101408201905081810360008301526143b6818d613c3b565b90506143c5602083018c614339565b81810360408301526143d7818b613c3b565b905081810360608301526143eb818a613c3b565b90506143fa6080830189614339565b61440760a0830188614339565b61441460c0830187613d2b565b61442160e0830186613d2b565b61442f610100830185613d2b565b61443d61012083018461438c565b9b9a5050505050505050505050565b60006060820190506144616000830186614339565b61446e6020830185613d2b565b61447b6040830184613d2b565b949350505050565b61448c81613bae565b811461449757600080fd5b50565b6000813590506144a981614483565b92915050565b600080604083850312156144c6576144c5613b1f565b5b60006144d485828601613d6c565b92505060206144e58582860161449a565b9150509250929050565b600067ffffffffffffffff82111561450a57614509613e5e565b5b61451382613c2a565b9050602081019050919050565b600061453361452e846144ef565b613ebe565b90508281526020810184848401111561454f5761454e613e59565b5b61455a848285613f0a565b509392505050565b600082601f83011261457757614576613e54565b5b8135614587848260208601614520565b91505092915050565b600080600080608085870312156145aa576145a9613b1f565b5b60006145b887828801613d6c565b94505060206145c987828801613d6c565b93505060406145da87828801613cb7565b925050606085013567ffffffffffffffff8111156145fb576145fa613b24565b5b61460787828801614562565b91505092959194509250565b600081519050919050565b600082825260208201905092915050565b6000819050602082019050919050565b600061016083016000830151848203600086015261465d8282614069565b915050602083015161467260208601826140a2565b506040830151848203604086015261468a8282614069565b915050606083015184820360608601526146a48282614069565b91505060808301516146b960808601826140a2565b5060a08301516146cc60a08601826140a2565b5060c08301516146df60c08601826140b1565b5060e08301516146f260e08601826140b1565b506101008301516147076101008601826140b1565b5061012083015161471c610120860182614128565b506101408301518482036101408601526147368282614188565b9150508091505092915050565b600061474f838361463f565b905092915050565b6000602082019050919050565b600061476f82614613565b614779818561461e565b93508360208202850161478b8561462f565b8060005b858110156147c757848403895281516147a88582614743565b94506147b383614757565b925060208a0199505060018101905061478f565b50829750879550505050505092915050565b600060208201905081810360008301526147f38184614764565b905092915050565b60008060006060848603121561481457614813613b1f565b5b600061482286828701613d6c565b935050602084013567ffffffffffffffff81111561484357614842613b24565b5b61484f86828701613f5b565b925050604061486086828701613cb7565b9150509250925092565b6000806040838503121561488157614880613b1f565b5b600061488f85828601613d6c565b92505060206148a085828601613d6c565b9150509250929050565b7f4e487b7100000000000000000000000000000000000000000000000000000000600052602260045260246000fd5b600060028204905060018216806148f157607f821691505b602082108103614904576149036148aa565b5b50919050565b7f4552433732313a20617070726f76616c20746f2063757272656e74206f776e6560008201527f7200000000000000000000000000000000000000000000000000000000000000602082015250565b6000614966602183613bef565b91506149718261490a565b604082019050919050565b6000602082019050818103600083015261499581614959565b9050919050565b7f4552433732313a20617070726f76652063616c6c6572206973206e6f7420746f60008201527f6b656e206f776e6572206f7220617070726f76656420666f7220616c6c000000602082015250565b60006149f8603d83613bef565b9150614a038261499c565b604082019050919050565b60006020820190508181036000830152614a27816149eb565b9050919050565b7f50726f64756374204944206e6f7420666f756e64000000000000000000000000600082015250565b6000614a64601483613bef565b9150614a6f82614a2e565b602082019050919050565b60006020820190508181036000830152614a9381614a57565b9050919050565b7f4e487b7100000000000000000000000000000000000000000000000000000000600052603260045260246000fd5b7f52657461696c6572206e6f7420766572696669656420746f2073656c6c20746860008201527f652070726f647563740000000000000000000000000000000000000000000000602082015250565b6000614b25602983613bef565b9150614b3082614ac9565b604082019050919050565b60006020820190508181036000830152614b5481614b18565b9050919050565b7f4e487b7100000000000000000000000000000000000000000000000000000000600052601160045260246000fd5b6000614b9582613c96565b9150614ba083613c96565b9250828202614bae81613c96565b91508282048414831517614bc557614bc4614b5b565b5b5092915050565b6000614bd782613c96565b9150614be283613c96565b9250828201905080821115614bfa57614bf9614b5b565b5b92915050565b7f437573746f6d6572206e6f7420766572696669656420746f20636c61696d207460008201527f68652077617272616e7479000000000000000000000000000000000000000000602082015250565b6000614c5c602b83613bef565b9150614c6782614c00565b604082019050919050565b60006020820190508181036000830152614c8b81614c4f565b9050919050565b7f4552433732313a2063616c6c6572206973206e6f7420746f6b656e206f776e6560008201527f72206f7220617070726f76656400000000000000000000000000000000000000602082015250565b6000614cee602d83613bef565b9150614cf982614c92565b604082019050919050565b60006020820190508181036000830152614d1d81614ce1565b9050919050565b7f57617272616e7479204578706972656400000000000000000000000000000000600082015250565b6000614d5a601083613bef565b9150614d6582614d24565b602082019050919050565b60006020820190508181036000830152614d8981614d4d565b9050919050565b7f57617272616e747920706572696f64206d75737420626520677265617465722060008201527f7468616e2030206d6f6e74687300000000000000000000000000000000000000602082015250565b6000614dec602d83613bef565b9150614df782614d90565b604082019050919050565b60006020820190508181036000830152614e1b81614ddf565b9050919050565b7f55736572206973206e6f7420612072656769737465726564204d616e7566617460008201527f757265722c2063616e27742063726561746520612070726f6475637400000000602082015250565b6000614e7e603c83613bef565b9150614e8982614e22565b604082019050919050565b60006020820190508181036000830152614ead81614e71565b9050919050565b7f77726f6e642070726f6475637420494400000000000000000000000000000000600082015250565b6000614eea601083613bef565b9150614ef582614eb4565b602082019050919050565b60006020820190508181036000830152614f1981614edd565b9050919050565b60008190508160005260206000209050919050565b60006020601f8301049050919050565b600082821b905092915050565b600060088302614f827fffffffffffffffffffffffffffffffffffffffffffffffffffffffffffffffff82614f45565b614f8c8683614f45565b95508019841693508086168417925050509392505050565b6000819050919050565b6000614fc9614fc4614fbf84613c96565b614fa4565b613c96565b9050919050565b6000819050919050565b614fe383614fae565b614ff7614fef82614fd0565b848454614f52565b825550505050565b600090565b61500c614fff565b615017818484614fda565b505050565b5b8181101561503b57615030600082615004565b60018101905061501d565b5050565b601f8211156150805761505181614f20565b61505a84614f35565b81016020851015615069578190505b61507d61507585614f35565b83018261501c565b50505b505050565b600082821c905092915050565b60006150a360001984600802615085565b1980831691505092915050565b60006150bc8383615092565b9150826002028217905092915050565b6150d582613be4565b67ffffffffffffffff8111156150ee576150ed613e5e565b5b6150f882546148d9565b61510382828561503f565b600060209050601f8311600181146151365760008415615124578287015190505b61512e85826150b0565b865550615196565b601f19841661514486614f20565b60005b8281101561516c57848901518255600182019150602085019450602081019050615147565b868310156151895784890151615185601f891682615092565b8355505b6001600288020188555050505b505050505050565b7f4552433732313a20696e76616c696420746f6b656e2049440000000000000000600082015250565b60006151d4601883613bef565b91506151df8261519e565b602082019050919050565b60006020820190508181036000830152615203816151c7565b9050919050565b7f4552433732313a2061646472657373207a65726f206973206e6f74206120766160008201527f6c6964206f776e65720000000000000000000000000000000000000000000000602082015250565b6000615266602983613bef565b91506152718261520a565b604082019050919050565b6000602082019050818103600083015261529581615259565b9050919050565b7f4d616e756661637475726572206e6f7420726567697374657265640000000000600082015250565b60006152d2601b83613bef565b91506152dd8261529c565b602082019050919050565b60006020820190508181036000830152615301816152c5565b9050919050565b600061531382613c96565b91507fffffffffffffffffffffffffffffffffffffffffffffffffffffffffffffffff820361534557615344614b5b565b5b600182019050919050565b7f4f776e61626c653a206e6577206f776e657220697320746865207a65726f206160008201527f6464726573730000000000000000000000000000000000000000000000000000602082015250565b60006153ac602683613bef565b91506153b782615350565b604082019050919050565b600060208201905081810360008301526153db8161539f565b9050919050565b7f4552433732313a207472616e736665722066726f6d20696e636f72726563742060008201527f6f776e6572000000000000000000000000000000000000000000000000000000602082015250565b600061543e602583613bef565b9150615449826153e2565b604082019050919050565b6000602082019050818103600083015261546d81615431565b9050919050565b7f4552433732313a207472616e7366657220746f20746865207a65726f2061646460008201527f7265737300000000000000000000000000000000000000000000000000000000602082015250565b60006154d0602483613bef565b91506154db82615474565b604082019050919050565b600060208201905081810360008301526154ff816154c3565b9050919050565b7f4f776e61626c653a2063616c6c6572206973206e6f7420746865206f776e6572600082015250565b600061553c602083613bef565b915061554782615506565b602082019050919050565b6000602082019050818103600083015261556b8161552f565b9050919050565b7f4552433732313a20617070726f766520746f2063616c6c657200000000000000600082015250565b60006155a8601983613bef565b91506155b382615572565b602082019050919050565b600060208201905081810360008301526155d78161559b565b9050919050565b7f4552433732313a207472616e7366657220746f206e6f6e20455243373231526560008201527f63656976657220696d706c656d656e7465720000000000000000000000000000602082015250565b600061563a603283613bef565b9150615645826155de565b604082019050919050565b600060208201905081810360008301526156698161562d565b9050919050565b7f45524337323155524953746f726167653a2055524920736574206f66206e6f6e60008201527f6578697374656e7420746f6b656e000000000000000000000000000000000000602082015250565b60006156cc602e83613bef565b91506156d782615670565b604082019050919050565b600060208201905081810360008301526156fb816156bf565b9050919050565b600081905092915050565b600061571882613be4565b6157228185615702565b9350615732818560208601613c00565b80840191505092915050565b600061574a828561570d565b9150615756828461570d565b91508190509392505050565b600081519050919050565b600082825260208201905092915050565b600061578982615762565b615793818561576d565b93506157a3818560208601613c00565b6157ac81613c2a565b840191505092915050565b60006080820190506157cc6000830187613d2b565b6157d96020830186613d2b565b6157e66040830185614339565b81810360608301526157f8818461577e565b905095945050505050565b60008151905061581281613b55565b92915050565b60006020828403121561582e5761582d613b1f565b5b600061583c84828501615803565b91505092915050565b7f4552433732313a206d696e7420746f20746865207a65726f2061646472657373600082015250565b600061587b602083613bef565b915061588682615845565b602082019050919050565b600060208201905081810360008301526158aa8161586e565b9050919050565b7f4552433732313a20746f6b656e20616c7265616479206d696e74656400000000600082015250565b60006158e7601c83613bef565b91506158f2826158b1565b602082019050919050565b60006020820190508181036000830152615916816158da565b9050919050565b7f4e487b7100000000000000000000000000000000000000000000000000000000600052601260045260246000fdfea264697066735822122034f3419693c1c76f25f9eb6bf2ebdc6e03a72476ae6298e3002f647c2b1b52e564736f6c63430008110033",
  "linkReferences": {},
  "deployedLinkReferences": {}
}