{
  "_format": "hh-sol-artifact-1",
  "contractName": "Warranty",
  "sourceName": "contracts/Warranty.sol",
  "abi": [
    {
      "inputs": [],
      "stateMutability": "nonpayable",
      "type": "constructor"
    },
    {
      "anonymous": false,
      "inputs": [
        {
          "indexed": true,
          "internalType": "address",
          "name": "owner",
          "type": "address"
        },
        {
          "indexed": true,
          "internalType": "address",
          "name": "approved",
          "type": "address"
        },
        {
          "indexed": true,
          "internalType": "uint256",
          "name": "tokenId",
          "type": "uint256"
        }
      ],
      "name": "Approval",
      "type": "event"
    },
    {
      "anonymous": false,
      "inputs": [
        {
          "indexed": true,
          "internalType": "address",
          "name": "owner",
          "type": "address"
        },
        {
          "indexed": true,
          "internalType": "address",
          "name": "operator",
          "type": "address"
        },
        {
          "indexed": false,
          "internalType": "bool",
          "name": "approved",
          "type": "bool"
        }
      ],
      "name": "ApprovalForAll",
      "type": "event"
    },
    {
      "anonymous": false,
      "inputs": [
        {
          "indexed": true,
          "internalType": "address",
          "name": "previousOwner",
          "type": "address"
        },
        {
          "indexed": true,
          "internalType": "address",
          "name": "newOwner",
          "type": "address"
        }
      ],
      "name": "OwnershipTransferred",
      "type": "event"
    },
    {
      "anonymous": false,
      "inputs": [
        {
          "indexed": true,
          "internalType": "address",
          "name": "from",
          "type": "address"
        },
        {
          "indexed": true,
          "internalType": "address",
          "name": "to",
          "type": "address"
        },
        {
          "indexed": true,
          "internalType": "uint256",
          "name": "tokenId",
          "type": "uint256"
        }
      ],
      "name": "Transfer",
      "type": "event"
    },
    {
      "inputs": [
        {
          "internalType": "uint256",
          "name": "_id",
          "type": "uint256"
        }
      ],
      "name": "activateWarranty",
      "outputs": [],
      "stateMutability": "nonpayable",
      "type": "function"
    },
    {
      "inputs": [],
      "name": "addManufacturer",
      "outputs": [],
      "stateMutability": "nonpayable",
      "type": "function"
    },
    {
      "inputs": [
        {
          "internalType": "string",
          "name": "_title",
          "type": "string"
        },
        {
          "internalType": "string",
          "name": "_product_image",
          "type": "string"
        },
        {
          "internalType": "string",
          "name": "_desc",
          "type": "string"
        },
        {
          "internalType": "uint256",
          "name": "_expiry_time",
          "type": "uint256"
        }
      ],
      "name": "addProduct",
      "outputs": [
        {
          "internalType": "uint256",
          "name": "",
          "type": "uint256"
        }
      ],
      "stateMutability": "nonpayable",
      "type": "function"
    },
    {
      "inputs": [
        {
          "internalType": "address",
          "name": "_radd",
          "type": "address"
        }
      ],
      "name": "addRetailer",
      "outputs": [],
      "stateMutability": "nonpayable",
      "type": "function"
    },
    {
      "inputs": [
        {
          "internalType": "address",
          "name": "to",
          "type": "address"
        },
        {
          "internalType": "uint256",
          "name": "tokenId",
          "type": "uint256"
        }
      ],
      "name": "approve",
      "outputs": [],
      "stateMutability": "nonpayable",
      "type": "function"
    },
    {
      "inputs": [
        {
          "internalType": "address",
          "name": "owner",
          "type": "address"
        }
      ],
      "name": "balanceOf",
      "outputs": [
        {
          "internalType": "uint256",
          "name": "",
          "type": "uint256"
        }
      ],
      "stateMutability": "view",
      "type": "function"
    },
    {
      "inputs": [
        {
          "internalType": "uint256",
          "name": "tokenId",
          "type": "uint256"
        }
      ],
      "name": "burnNft",
      "outputs": [],
      "stateMutability": "nonpayable",
      "type": "function"
    },
    {
      "inputs": [
        {
          "internalType": "uint256",
          "name": "tokenId",
          "type": "uint256"
        }
      ],
      "name": "checkActiveStatus",
      "outputs": [
        {
          "internalType": "bool",
          "name": "",
          "type": "bool"
        }
      ],
      "stateMutability": "view",
      "type": "function"
    },
    {
      "inputs": [],
      "name": "checkUser",
      "outputs": [
        {
          "internalType": "uint256",
          "name": "",
          "type": "uint256"
        }
      ],
      "stateMutability": "view",
      "type": "function"
    },
    {
      "inputs": [],
      "name": "cid",
      "outputs": [
        {
          "internalType": "uint256",
          "name": "",
          "type": "uint256"
        }
      ],
      "stateMutability": "view",
      "type": "function"
    },
    {
      "inputs": [
        {
          "internalType": "uint256",
          "name": "tokenId",
          "type": "uint256"
        }
      ],
      "name": "getApproved",
      "outputs": [
        {
          "internalType": "address",
          "name": "",
          "type": "address"
        }
      ],
      "stateMutability": "view",
      "type": "function"
    },
    {
      "inputs": [
        {
          "internalType": "uint256",
          "name": "tokenId",
          "type": "uint256"
        }
      ],
      "name": "getExpiryTimeById",
      "outputs": [
        {
          "internalType": "uint256",
          "name": "",
          "type": "uint256"
        }
      ],
      "stateMutability": "view",
      "type": "function"
    },
    {
      "inputs": [
        {
          "internalType": "uint256",
          "name": "_id",
          "type": "uint256"
        }
      ],
      "name": "getProductDetails",
      "outputs": [
        {
          "components": [
            {
              "internalType": "string",
              "name": "title",
              "type": "string"
            },
            {
              "internalType": "uint256",
              "name": "id",
              "type": "uint256"
            },
            {
              "internalType": "string",
              "name": "product_image",
              "type": "string"
            },
            {
              "internalType": "string",
              "name": "desc",
              "type": "string"
            },
            {
              "internalType": "uint256",
              "name": "activate_time",
              "type": "uint256"
            },
            {
              "internalType": "uint256",
              "name": "expiry_time",
              "type": "uint256"
            },
            {
              "internalType": "address",
              "name": "manufacturer",
              "type": "address"
            },
            {
              "internalType": "address",
              "name": "retailer",
              "type": "address"
            },
            {
              "internalType": "address",
              "name": "customer",
              "type": "address"
            },
            {
              "internalType": "enum Warranty.product_status",
              "name": "status",
              "type": "uint8"
            },
            {
              "internalType": "address[]",
              "name": "history",
              "type": "address[]"
            }
          ],
          "internalType": "struct Warranty.product_details",
          "name": "",
          "type": "tuple"
        }
      ],
      "stateMutability": "view",
      "type": "function"
    },
    {
      "inputs": [],
      "name": "getProductId",
      "outputs": [
        {
          "internalType": "uint256",
          "name": "",
          "type": "uint256"
        }
      ],
      "stateMutability": "view",
      "type": "function"
    },
    {
      "inputs": [],
      "name": "getProducts",
      "outputs": [
        {
          "components": [
            {
              "internalType": "string",
              "name": "title",
              "type": "string"
            },
            {
              "internalType": "uint256",
              "name": "id",
              "type": "uint256"
            },
            {
              "internalType": "string",
              "name": "product_image",
              "type": "string"
            },
            {
              "internalType": "string",
              "name": "desc",
              "type": "string"
            },
            {
              "internalType": "uint256",
              "name": "activate_time",
              "type": "uint256"
            },
            {
              "internalType": "uint256",
              "name": "expiry_time",
              "type": "uint256"
            },
            {
              "internalType": "address",
              "name": "manufacturer",
              "type": "address"
            },
            {
              "internalType": "address",
              "name": "retailer",
              "type": "address"
            },
            {
              "internalType": "address",
              "name": "customer",
              "type": "address"
            },
            {
              "internalType": "enum Warranty.product_status",
              "name": "status",
              "type": "uint8"
            },
            {
              "internalType": "address[]",
              "name": "history",
              "type": "address[]"
            }
          ],
          "internalType": "struct Warranty.product_details[]",
          "name": "",
          "type": "tuple[]"
        }
      ],
      "stateMutability": "view",
      "type": "function"
    },
    {
      "inputs": [
        {
          "internalType": "address",
          "name": "owner",
          "type": "address"
        },
        {
          "internalType": "address",
          "name": "operator",
          "type": "address"
        }
      ],
      "name": "isApprovedForAll",
      "outputs": [
        {
          "internalType": "bool",
          "name": "",
          "type": "bool"
        }
      ],
      "stateMutability": "view",
      "type": "function"
    },
    {
      "inputs": [
        {
          "internalType": "address",
          "name": "",
          "type": "address"
        }
      ],
      "name": "manufacturers",
      "outputs": [
        {
          "internalType": "uint256",
          "name": "id",
          "type": "uint256"
        },
        {
          "internalType": "address",
          "name": "add",
          "type": "address"
        }
      ],
      "stateMutability": "view",
      "type": "function"
    },
    {
      "inputs": [],
      "name": "name",
      "outputs": [
        {
          "internalType": "string",
          "name": "",
          "type": "string"
        }
      ],
      "stateMutability": "view",
      "type": "function"
    },
    {
      "inputs": [],
      "name": "owner",
      "outputs": [
        {
          "internalType": "address",
          "name": "",
          "type": "address"
        }
      ],
      "stateMutability": "view",
      "type": "function"
    },
    {
      "inputs": [
        {
          "internalType": "uint256",
          "name": "tokenId",
          "type": "uint256"
        }
      ],
      "name": "ownerOf",
      "outputs": [
        {
          "internalType": "address",
          "name": "",
          "type": "address"
        }
      ],
      "stateMutability": "view",
      "type": "function"
    },
    {
      "inputs": [
        {
          "internalType": "uint256",
          "name": "",
          "type": "uint256"
        }
      ],
      "name": "products",
      "outputs": [
        {
          "internalType": "string",
          "name": "title",
          "type": "string"
        },
        {
          "internalType": "uint256",
          "name": "id",
          "type": "uint256"
        },
        {
          "internalType": "string",
          "name": "product_image",
          "type": "string"
        },
        {
          "internalType": "string",
          "name": "desc",
          "type": "string"
        },
        {
          "internalType": "uint256",
          "name": "activate_time",
          "type": "uint256"
        },
        {
          "internalType": "uint256",
          "name": "expiry_time",
          "type": "uint256"
        },
        {
          "internalType": "address",
          "name": "manufacturer",
          "type": "address"
        },
        {
          "internalType": "address",
          "name": "retailer",
          "type": "address"
        },
        {
          "internalType": "address",
          "name": "customer",
          "type": "address"
        },
        {
          "internalType": "enum Warranty.product_status",
          "name": "status",
          "type": "uint8"
        }
      ],
      "stateMutability": "view",
      "type": "function"
    },
    {
      "inputs": [],
      "name": "renounceOwnership",
      "outputs": [],
      "stateMutability": "nonpayable",
      "type": "function"
    },
    {
      "inputs": [
        {
          "internalType": "uint256",
          "name": "_id",
          "type": "uint256"
        },
        {
          "internalType": "address",
          "name": "to",
          "type": "address"
        }
      ],
      "name": "resellProduct",
      "outputs": [],
      "stateMutability": "nonpayable",
      "type": "function"
    },
    {
      "inputs": [
        {
          "internalType": "address",
          "name": "",
          "type": "address"
        }
      ],
      "name": "retailers",
      "outputs": [
        {
          "internalType": "uint256",
          "name": "id",
          "type": "uint256"
        },
        {
          "internalType": "address",
          "name": "madd",
          "type": "address"
        },
        {
          "internalType": "address",
          "name": "radd",
          "type": "address"
        }
      ],
      "stateMutability": "view",
      "type": "function"
    },
    {
      "inputs": [
        {
          "internalType": "string",
          "name": "uri",
          "type": "string"
        },
        {
          "internalType": "uint256",
          "name": "tokenId",
          "type": "uint256"
        }
      ],
      "name": "safeMint",
      "outputs": [
        {
          "internalType": "uint256",
          "name": "tokenIdMinted",
          "type": "uint256"
        }
      ],
      "stateMutability": "nonpayable",
      "type": "function"
    },
    {
      "inputs": [
        {
          "internalType": "address",
          "name": "from",
          "type": "address"
        },
        {
          "internalType": "address",
          "name": "to",
          "type": "address"
        },
        {
          "internalType": "uint256",
          "name": "tokenId",
          "type": "uint256"
        }
      ],
      "name": "safeTransferFrom",
      "outputs": [],
      "stateMutability": "nonpayable",
      "type": "function"
    },
    {
      "inputs": [
        {
          "internalType": "address",
          "name": "from",
          "type": "address"
        },
        {
          "internalType": "address",
          "name": "to",
          "type": "address"
        },
        {
          "internalType": "uint256",
          "name": "tokenId",
          "type": "uint256"
        },
        {
          "internalType": "bytes",
          "name": "data",
          "type": "bytes"
        }
      ],
      "name": "safeTransferFrom",
      "outputs": [],
      "stateMutability": "nonpayable",
      "type": "function"
    },
    {
      "inputs": [
        {
          "internalType": "uint256",
          "name": "_id",
          "type": "uint256"
        },
        {
          "internalType": "address",
          "name": "_customer",
          "type": "address"
        }
      ],
      "name": "sellProduct",
      "outputs": [],
      "stateMutability": "nonpayable",
      "type": "function"
    },
    {
      "inputs": [
        {
          "internalType": "address",
          "name": "operator",
          "type": "address"
        },
        {
          "internalType": "bool",
          "name": "approved",
          "type": "bool"
        }
      ],
      "name": "setApprovalForAll",
      "outputs": [],
      "stateMutability": "nonpayable",
      "type": "function"
    },
    {
      "inputs": [
        {
          "internalType": "bytes4",
          "name": "interfaceId",
          "type": "bytes4"
        }
      ],
      "name": "supportsInterface",
      "outputs": [
        {
          "internalType": "bool",
          "name": "",
          "type": "bool"
        }
      ],
      "stateMutability": "view",
      "type": "function"
    },
    {
      "inputs": [],
      "name": "symbol",
      "outputs": [
        {
          "internalType": "string",
          "name": "",
          "type": "string"
        }
      ],
      "stateMutability": "view",
      "type": "function"
    },
    {
      "inputs": [
        {
          "internalType": "uint256",
          "name": "tokenId",
          "type": "uint256"
        }
      ],
      "name": "tokenURI",
      "outputs": [
        {
          "internalType": "string",
          "name": "",
          "type": "string"
        }
      ],
      "stateMutability": "view",
      "type": "function"
    },
    {
      "inputs": [
        {
          "internalType": "address",
          "name": "from",
          "type": "address"
        },
        {
          "internalType": "address",
          "name": "to",
          "type": "address"
        },
        {
          "internalType": "uint256",
          "name": "tokenId",
          "type": "uint256"
        }
      ],
      "name": "transferFrom",
      "outputs": [],
      "stateMutability": "nonpayable",
      "type": "function"
    },
    {
      "inputs": [
        {
          "internalType": "uint256",
          "name": "_id",
          "type": "uint256"
        },
        {
          "internalType": "address",
          "name": "_to",
          "type": "address"
        }
      ],
      "name": "transferNFT",
      "outputs": [],
      "stateMutability": "nonpayable",
      "type": "function"
    },
    {
      "inputs": [
        {
          "internalType": "address",
          "name": "newOwner",
          "type": "address"
        }
      ],
      "name": "transferOwnership",
      "outputs": [],
      "stateMutability": "nonpayable",
      "type": "function"
    }
  ],
  "bytecode": "0x60806040523480156200001157600080fd5b506040518060400160405280600b81526020017f4e465457617272616e74790000000000000000000000000000000000000000008152506040518060400160405280600481526020017f4e4654570000000000000000000000000000000000000000000000000000000081525081600090816200008f91906200041a565b508060019081620000a191906200041a565b505050620000c4620000b8620000d260201b60201c565b620000da60201b60201c565b6001600b8190555062000501565b600033905090565b6000600760009054906101000a900473ffffffffffffffffffffffffffffffffffffffff16905081600760006101000a81548173ffffffffffffffffffffffffffffffffffffffff021916908373ffffffffffffffffffffffffffffffffffffffff1602179055508173ffffffffffffffffffffffffffffffffffffffff168173ffffffffffffffffffffffffffffffffffffffff167f8be0079c531659141344cd1fd0a4f28419497f9722a3daafe3b4186f6b6457e060405160405180910390a35050565b600081519050919050565b7f4e487b7100000000000000000000000000000000000000000000000000000000600052604160045260246000fd5b7f4e487b7100000000000000000000000000000000000000000000000000000000600052602260045260246000fd5b600060028204905060018216806200022257607f821691505b602082108103620002385762000237620001da565b5b50919050565b60008190508160005260206000209050919050565b60006020601f8301049050919050565b600082821b905092915050565b600060088302620002a27fffffffffffffffffffffffffffffffffffffffffffffffffffffffffffffffff8262000263565b620002ae868362000263565b95508019841693508086168417925050509392505050565b6000819050919050565b6000819050919050565b6000620002fb620002f5620002ef84620002c6565b620002d0565b620002c6565b9050919050565b6000819050919050565b6200031783620002da565b6200032f620003268262000302565b84845462000270565b825550505050565b600090565b6200034662000337565b620003538184846200030c565b505050565b5b818110156200037b576200036f6000826200033c565b60018101905062000359565b5050565b601f821115620003ca5762000394816200023e565b6200039f8462000253565b81016020851015620003af578190505b620003c7620003be8562000253565b83018262000358565b50505b505050565b600082821c905092915050565b6000620003ef60001984600802620003cf565b1980831691505092915050565b60006200040a8383620003dc565b9150826002028217905092915050565b6200042582620001a0565b67ffffffffffffffff811115620004415762000440620001ab565b5b6200044d825462000209565b6200045a8282856200037f565b600060209050601f8311600181146200049257600084156200047d578287015190505b620004898582620003fc565b865550620004f9565b601f198416620004a2866200023e565b60005b82811015620004cc57848901518255600182019150602085019450602081019050620004a5565b86831015620004ec5784890151620004e8601f891682620003dc565b8355505b6001600288020188555050505b505050505050565b6158e180620005116000396000f3fe608060405234801561001057600080fd5b50600436106102115760003560e01c80637ac8773211610125578063a2c66c36116100ad578063c15625471161007c578063c156254714610640578063c29b2f201461065e578063c87b56dd1461067c578063e985e9c5146106ac578063f2fde38b146106dc57610211565b8063a2c66c36146105cc578063aa22a344146105d6578063aa3ec0a914610606578063b88d4fde1461062457610211565b80638ec4f505116100f45780638ec4f505146105285780639036c0501461054457806395d89b41146105605780639a268f351461057e578063a22cb465146105b057610211565b80637ac87732146104835780637acc0b20146104a15780638165fed5146104da5780638da5cb5b1461050a57610211565b80633d5efefe116101a85780636813b53b116101775780636813b53b146103b85780636b5eb09c146103e857806370a0823114610419578063715018a6146104495780637a32f2f51461045357610211565b80633d5efefe1461032057806342842e0e1461033c57806346b145e1146103585780636352211e1461038857610211565b80630b569140116101e45780630b569140146102b057806315c54951146102cc57806323b872dd146102e85780632a6627681461030457610211565b806301ffc9a71461021657806306fdde0314610246578063081812fc14610264578063095ea7b314610294575b600080fd5b610230600480360381019061022b9190613bdf565b6106f8565b60405161023d9190613c27565b60405180910390f35b61024e6107da565b60405161025b9190613cd2565b60405180910390f35b61027e60048036038101906102799190613d2a565b61086c565b60405161028b9190613d98565b60405180910390f35b6102ae60048036038101906102a99190613ddf565b6108b2565b005b6102ca60048036038101906102c59190613e1f565b6109c9565b005b6102e660048036038101906102e19190613e1f565b610d58565b005b61030260048036038101906102fd9190613e5f565b610f40565b005b61031e60048036038101906103199190613d2a565b610fa0565b005b61033a60048036038101906103359190613d2a565b611152565b005b61035660048036038101906103519190613e5f565b61115e565b005b610372600480360381019061036d9190613fe7565b61117e565b60405161037f9190614052565b60405180910390f35b6103a2600480360381019061039d9190613d2a565b61119d565b6040516103af9190613d98565b60405180910390f35b6103d260048036038101906103cd9190613d2a565b611223565b6040516103df91906142ff565b60405180910390f35b61040260048036038101906103fd9190614321565b611646565b60405161041092919061434e565b60405180910390f35b610433600480360381019061042e9190614321565b61168a565b6040516104409190614052565b60405180910390f35b610451611741565b005b61046d60048036038101906104689190613d2a565b611755565b60405161047a9190613c27565b60405180910390f35b61048b6117b8565b6040516104989190614052565b60405180910390f35b6104bb60048036038101906104b69190613d2a565b6117c5565b6040516104d19a99989796959493929190614386565b60405180910390f35b6104f460048036038101906104ef9190614437565b611a2e565b6040516105019190614052565b60405180910390f35b610512611dc3565b60405161051f9190613d98565b60405180910390f35b610542600480360381019061053d9190614321565b611ded565b005b61055e60048036038101906105599190613e1f565b611f72565b005b610568611f81565b6040516105759190613cd2565b60405180910390f35b61059860048036038101906105939190614321565b612013565b6040516105a7939291906144f2565b60405180910390f35b6105ca60048036038101906105c59190614555565b61207d565b005b6105d4612093565b005b6105f060048036038101906105eb9190613d2a565b612169565b6040516105fd9190614052565b60405180910390f35b61060e612198565b60405161061b9190614052565b60405180910390f35b61063e60048036038101906106399190614636565b61219e565b005b610648612200565b6040516106559190614052565b60405180910390f35b6106666122af565b604051610673919061487f565b60405180910390f35b61069660048036038101906106919190613d2a565b6126ae565b6040516106a39190613cd2565b60405180910390f35b6106c660048036038101906106c191906148a1565b6126c0565b6040516106d39190613c27565b60405180910390f35b6106f660048036038101906106f19190614321565b612754565b005b60007f80ac58cd000000000000000000000000000000000000000000000000000000007bffffffffffffffffffffffffffffffffffffffffffffffffffffffff1916827bffffffffffffffffffffffffffffffffffffffffffffffffffffffff191614806107c357507f5b5e139f000000000000000000000000000000000000000000000000000000007bffffffffffffffffffffffffffffffffffffffffffffffffffffffff1916827bffffffffffffffffffffffffffffffffffffffffffffffffffffffff1916145b806107d357506107d2826127d7565b5b9050919050565b6060600080546107e990614910565b80601f016020809104026020016040519081016040528092919081815260200182805461081590614910565b80156108625780601f1061083757610100808354040283529160200191610862565b820191906000526020600020905b81548152906001019060200180831161084557829003601f168201915b5050505050905090565b600061087782612841565b6004600083815260200190815260200160002060009054906101000a900473ffffffffffffffffffffffffffffffffffffffff169050919050565b60006108bd8261119d565b90508073ffffffffffffffffffffffffffffffffffffffff168373ffffffffffffffffffffffffffffffffffffffff160361092d576040517f08c379a0000000000000000000000000000000000000000000000000000000008152600401610924906149b3565b60405180910390fd5b8073ffffffffffffffffffffffffffffffffffffffff1661094c61288c565b73ffffffffffffffffffffffffffffffffffffffff16148061097b575061097a8161097561288c565b6126c0565b5b6109ba576040517f08c379a00000000000000000000000000000000000000000000000000000000081526004016109b190614a45565b60405180910390fd5b6109c48383612894565b505050565b6008805490508210610a10576040517f08c379a0000000000000000000000000000000000000000000000000000000008152600401610a0790614ab1565b60405180910390fd5b60088281548110610a2457610a23614ad1565b5b90600052602060002090600a020160060160009054906101000a900473ffffffffffffffffffffffffffffffffffffffff1673ffffffffffffffffffffffffffffffffffffffff16600a60003373ffffffffffffffffffffffffffffffffffffffff1673ffffffffffffffffffffffffffffffffffffffff16815260200190815260200160002060010160009054906101000a900473ffffffffffffffffffffffffffffffffffffffff1673ffffffffffffffffffffffffffffffffffffffff1614610b25576040517f08c379a0000000000000000000000000000000000000000000000000000000008152600401610b1c90614b72565b60405180910390fd5b4260088381548110610b3a57610b39614ad1565b5b90600052602060002090600a020160040181905550639cbf904060088381548110610b6857610b67614ad1565b5b90600052602060002090600a020160050154610b849190614bc1565b42610b8f9190614c03565b60088381548110610ba357610ba2614ad1565b5b90600052602060002090600a0201600501819055503360088381548110610bcd57610bcc614ad1565b5b90600052602060002090600a020160070160006101000a81548173ffffffffffffffffffffffffffffffffffffffff021916908373ffffffffffffffffffffffffffffffffffffffff1602179055508060088381548110610c3157610c30614ad1565b5b90600052602060002090600a020160080160006101000a81548173ffffffffffffffffffffffffffffffffffffffff021916908373ffffffffffffffffffffffffffffffffffffffff160217905550600160088381548110610c9657610c95614ad1565b5b90600052602060002090600a020160080160146101000a81548160ff02191690836003811115610cc957610cc86140d5565b5b021790555060088281548110610ce257610ce1614ad1565b5b90600052602060002090600a0201600901819080600181540180825580915050600190039060005260206000200160009091909190916101000a81548173ffffffffffffffffffffffffffffffffffffffff021916908373ffffffffffffffffffffffffffffffffffffffff1602179055505050565b6008805490508210610d9f576040517f08c379a0000000000000000000000000000000000000000000000000000000008152600401610d9690614ab1565b60405180910390fd5b3373ffffffffffffffffffffffffffffffffffffffff1660088381548110610dca57610dc9614ad1565b5b90600052602060002090600a020160080160009054906101000a900473ffffffffffffffffffffffffffffffffffffffff1673ffffffffffffffffffffffffffffffffffffffff1614610e52576040517f08c379a0000000000000000000000000000000000000000000000000000000008152600401610e4990614ca9565b60405180910390fd5b8060088381548110610e6757610e66614ad1565b5b90600052602060002090600a020160080160006101000a81548173ffffffffffffffffffffffffffffffffffffffff021916908373ffffffffffffffffffffffffffffffffffffffff16021790555060088281548110610eca57610ec9614ad1565b5b90600052602060002090600a0201600901819080600181540180825580915050600190039060005260206000200160009091909190916101000a81548173ffffffffffffffffffffffffffffffffffffffff021916908373ffffffffffffffffffffffffffffffffffffffff1602179055505050565b610f51610f4b61288c565b8261294d565b610f90576040517f08c379a0000000000000000000000000000000000000000000000000000000008152600401610f8790614d3b565b60405180910390fd5b610f9b8383836129e2565b505050565b6008805490508110610fe7576040517f08c379a0000000000000000000000000000000000000000000000000000000008152600401610fde90614ab1565b60405180910390fd5b3373ffffffffffffffffffffffffffffffffffffffff166008828154811061101257611011614ad1565b5b90600052602060002090600a020160080160009054906101000a900473ffffffffffffffffffffffffffffffffffffffff1673ffffffffffffffffffffffffffffffffffffffff161461109a576040517f08c379a000000000000000000000000000000000000000000000000000000000815260040161109190614ca9565b60405180910390fd5b600881815481106110ae576110ad614ad1565b5b90600052602060002090600a0201600501544210611101576040517f08c379a00000000000000000000000000000000000000000000000000000000081526004016110f890614da7565b60405180910390fd5b60026008828154811061111757611116614ad1565b5b90600052602060002090600a020160080160146101000a81548160ff0219169083600381111561114a576111496140d5565b5b021790555050565b61115b81612cdb565b50565b6111798383836040518060200160405280600081525061219e565b505050565b600061118a3383612e29565b6111948284612e47565b81905092915050565b6000806111a983612eb4565b9050600073ffffffffffffffffffffffffffffffffffffffff168173ffffffffffffffffffffffffffffffffffffffff160361121a576040517f08c379a000000000000000000000000000000000000000000000000000000000815260040161121190614e13565b60405180910390fd5b80915050919050565b61122b613a1e565b6008805490508210611272576040517f08c379a000000000000000000000000000000000000000000000000000000000815260040161126990614ab1565b60405180910390fd5b6008828154811061128657611285614ad1565b5b90600052602060002090600a0201604051806101600160405290816000820180546112b090614910565b80601f01602080910402602001604051908101604052809291908181526020018280546112dc90614910565b80156113295780601f106112fe57610100808354040283529160200191611329565b820191906000526020600020905b81548152906001019060200180831161130c57829003601f168201915b505050505081526020016001820154815260200160028201805461134c90614910565b80601f016020809104026020016040519081016040528092919081815260200182805461137890614910565b80156113c55780601f1061139a576101008083540402835291602001916113c5565b820191906000526020600020905b8154815290600101906020018083116113a857829003601f168201915b505050505081526020016003820180546113de90614910565b80601f016020809104026020016040519081016040528092919081815260200182805461140a90614910565b80156114575780601f1061142c57610100808354040283529160200191611457565b820191906000526020600020905b81548152906001019060200180831161143a57829003601f168201915b5050505050815260200160048201548152602001600582015481526020016006820160009054906101000a900473ffffffffffffffffffffffffffffffffffffffff1673ffffffffffffffffffffffffffffffffffffffff1673ffffffffffffffffffffffffffffffffffffffff1681526020016007820160009054906101000a900473ffffffffffffffffffffffffffffffffffffffff1673ffffffffffffffffffffffffffffffffffffffff1673ffffffffffffffffffffffffffffffffffffffff1681526020016008820160009054906101000a900473ffffffffffffffffffffffffffffffffffffffff1673ffffffffffffffffffffffffffffffffffffffff1673ffffffffffffffffffffffffffffffffffffffff1681526020016008820160149054906101000a900460ff16600381111561159b5761159a6140d5565b5b60038111156115ad576115ac6140d5565b5b81526020016009820180548060200260200160405190810160405280929190818152602001828054801561163657602002820191906000526020600020905b8160009054906101000a900473ffffffffffffffffffffffffffffffffffffffff1673ffffffffffffffffffffffffffffffffffffffff16815260200190600101908083116115ec575b5050505050815250509050919050565b60096020528060005260406000206000915090508060000154908060010160009054906101000a900473ffffffffffffffffffffffffffffffffffffffff16905082565b60008073ffffffffffffffffffffffffffffffffffffffff168273ffffffffffffffffffffffffffffffffffffffff16036116fa576040517f08c379a00000000000000000000000000000000000000000000000000000000081526004016116f190614ea5565b60405180910390fd5b600360008373ffffffffffffffffffffffffffffffffffffffff1673ffffffffffffffffffffffffffffffffffffffff168152602001908152602001600020549050919050565b611749612ef1565b6117536000612f6f565b565b60006002600381111561176b5761176a6140d5565b5b6008838154811061177f5761177e614ad1565b5b90600052602060002090600a020160080160149054906101000a900460ff1660038111156117b0576117af6140d5565b5b149050919050565b6000600880549050905090565b600881815481106117d557600080fd5b90600052602060002090600a02016000915090508060000180546117f890614910565b80601f016020809104026020016040519081016040528092919081815260200182805461182490614910565b80156118715780601f1061184657610100808354040283529160200191611871565b820191906000526020600020905b81548152906001019060200180831161185457829003601f168201915b50505050509080600101549080600201805461188c90614910565b80601f01602080910402602001604051908101604052809291908181526020018280546118b890614910565b80156119055780601f106118da57610100808354040283529160200191611905565b820191906000526020600020905b8154815290600101906020018083116118e857829003601f168201915b50505050509080600301805461191a90614910565b80601f016020809104026020016040519081016040528092919081815260200182805461194690614910565b80156119935780601f1061196857610100808354040283529160200191611993565b820191906000526020600020905b81548152906001019060200180831161197657829003601f168201915b5050505050908060040154908060050154908060060160009054906101000a900473ffffffffffffffffffffffffffffffffffffffff16908060070160009054906101000a900473ffffffffffffffffffffffffffffffffffffffff16908060080160009054906101000a900473ffffffffffffffffffffffffffffffffffffffff16908060080160149054906101000a900460ff1690508a565b6000808211611a72576040517f08c379a0000000000000000000000000000000000000000000000000000000008152600401611a6990614f37565b60405180910390fd5b3373ffffffffffffffffffffffffffffffffffffffff16600960003373ffffffffffffffffffffffffffffffffffffffff1673ffffffffffffffffffffffffffffffffffffffff16815260200190815260200160002060010160009054906101000a900473ffffffffffffffffffffffffffffffffffffffff1673ffffffffffffffffffffffffffffffffffffffff1614611b42576040517f08c379a0000000000000000000000000000000000000000000000000000000008152600401611b3990614fc9565b60405180910390fd5b600060088054905090506000836000611b5b9190614c03565b9050606060086040518061016001604052808a8152602001858152602001898152602001888152602001600081526020018481526020013373ffffffffffffffffffffffffffffffffffffffff168152602001600073ffffffffffffffffffffffffffffffffffffffff168152602001600073ffffffffffffffffffffffffffffffffffffffff16815260200160006003811115611bfc57611bfb6140d5565b5b81526020018381525090806001815401808255809150506001900390600052602060002090600a02016000909190919091506000820151816000019081611c439190615195565b50602082015181600101556040820151816002019081611c639190615195565b506060820151816003019081611c799190615195565b506080820151816004015560a0820151816005015560c08201518160060160006101000a81548173ffffffffffffffffffffffffffffffffffffffff021916908373ffffffffffffffffffffffffffffffffffffffff16021790555060e08201518160070160006101000a81548173ffffffffffffffffffffffffffffffffffffffff021916908373ffffffffffffffffffffffffffffffffffffffff1602179055506101008201518160080160006101000a81548173ffffffffffffffffffffffffffffffffffffffff021916908373ffffffffffffffffffffffffffffffffffffffff1602179055506101208201518160080160146101000a81548160ff02191690836003811115611d9057611d8f6140d5565b5b0217905550610140820151816009019080519060200190611db2929190613acc565b505050829350505050949350505050565b6000600760009054906101000a900473ffffffffffffffffffffffffffffffffffffffff16905090565b6000600960003373ffffffffffffffffffffffffffffffffffffffff1673ffffffffffffffffffffffffffffffffffffffff1681526020019081526020016000206000015414611f6f576040518060600160405280600b6000815480929190611e5590615267565b9190505581526020013373ffffffffffffffffffffffffffffffffffffffff1681526020018273ffffffffffffffffffffffffffffffffffffffff16815250600a60008373ffffffffffffffffffffffffffffffffffffffff1673ffffffffffffffffffffffffffffffffffffffff1681526020019081526020016000206000820151816000015560208201518160010160006101000a81548173ffffffffffffffffffffffffffffffffffffffff021916908373ffffffffffffffffffffffffffffffffffffffff16021790555060408201518160020160006101000a81548173ffffffffffffffffffffffffffffffffffffffff021916908373ffffffffffffffffffffffffffffffffffffffff1602179055509050505b50565b611f7d3382846129e2565b5050565b606060018054611f9090614910565b80601f0160208091040260200160405190810160405280929190818152602001828054611fbc90614910565b80156120095780601f10611fde57610100808354040283529160200191612009565b820191906000526020600020905b815481529060010190602001808311611fec57829003601f168201915b5050505050905090565b600a6020528060005260406000206000915090508060000154908060010160009054906101000a900473ffffffffffffffffffffffffffffffffffffffff16908060020160009054906101000a900473ffffffffffffffffffffffffffffffffffffffff16905083565b61208f61208861288c565b8383613035565b5050565b6040518060400160405280600b60008154809291906120b190615267565b9190505581526020013373ffffffffffffffffffffffffffffffffffffffff16815250600960003373ffffffffffffffffffffffffffffffffffffffff1673ffffffffffffffffffffffffffffffffffffffff1681526020019081526020016000206000820151816000015560208201518160010160006101000a81548173ffffffffffffffffffffffffffffffffffffffff021916908373ffffffffffffffffffffffffffffffffffffffff160217905550905050565b60006008828154811061217f5761217e614ad1565b5b90600052602060002090600a0201600501549050919050565b600b5481565b6121af6121a961288c565b8361294d565b6121ee576040517f08c379a00000000000000000000000000000000000000000000000000000000081526004016121e590614d3b565b60405180910390fd5b6121fa848484846131a1565b50505050565b600080600960003373ffffffffffffffffffffffffffffffffffffffff1673ffffffffffffffffffffffffffffffffffffffff168152602001908152602001600020600001541461225457600090506122ac565b6000600a60003373ffffffffffffffffffffffffffffffffffffffff1673ffffffffffffffffffffffffffffffffffffffff16815260200190815260200160002060000154146122a757600190506122ac565b600290505b90565b60606008805480602002602001604051908101604052809291908181526020016000905b828210156126a557838290600052602060002090600a02016040518061016001604052908160008201805461230790614910565b80601f016020809104026020016040519081016040528092919081815260200182805461233390614910565b80156123805780601f1061235557610100808354040283529160200191612380565b820191906000526020600020905b81548152906001019060200180831161236357829003601f168201915b50505050508152602001600182015481526020016002820180546123a390614910565b80601f01602080910402602001604051908101604052809291908181526020018280546123cf90614910565b801561241c5780601f106123f15761010080835404028352916020019161241c565b820191906000526020600020905b8154815290600101906020018083116123ff57829003601f168201915b5050505050815260200160038201805461243590614910565b80601f016020809104026020016040519081016040528092919081815260200182805461246190614910565b80156124ae5780601f10612483576101008083540402835291602001916124ae565b820191906000526020600020905b81548152906001019060200180831161249157829003601f168201915b5050505050815260200160048201548152602001600582015481526020016006820160009054906101000a900473ffffffffffffffffffffffffffffffffffffffff1673ffffffffffffffffffffffffffffffffffffffff1673ffffffffffffffffffffffffffffffffffffffff1681526020016007820160009054906101000a900473ffffffffffffffffffffffffffffffffffffffff1673ffffffffffffffffffffffffffffffffffffffff1673ffffffffffffffffffffffffffffffffffffffff1681526020016008820160009054906101000a900473ffffffffffffffffffffffffffffffffffffffff1673ffffffffffffffffffffffffffffffffffffffff1673ffffffffffffffffffffffffffffffffffffffff1681526020016008820160149054906101000a900460ff1660038111156125f2576125f16140d5565b5b6003811115612604576126036140d5565b5b81526020016009820180548060200260200160405190810160405280929190818152602001828054801561268d57602002820191906000526020600020905b8160009054906101000a900473ffffffffffffffffffffffffffffffffffffffff1673ffffffffffffffffffffffffffffffffffffffff1681526020019060010190808311612643575b505050505081525050815260200190600101906122d3565b50505050905090565b60606126b9826131fd565b9050919050565b6000600560008473ffffffffffffffffffffffffffffffffffffffff1673ffffffffffffffffffffffffffffffffffffffff16815260200190815260200160002060008373ffffffffffffffffffffffffffffffffffffffff1673ffffffffffffffffffffffffffffffffffffffff16815260200190815260200160002060009054906101000a900460ff16905092915050565b61275c612ef1565b600073ffffffffffffffffffffffffffffffffffffffff168173ffffffffffffffffffffffffffffffffffffffff16036127cb576040517f08c379a00000000000000000000000000000000000000000000000000000000081526004016127c290615321565b60405180910390fd5b6127d481612f6f565b50565b60007f01ffc9a7000000000000000000000000000000000000000000000000000000007bffffffffffffffffffffffffffffffffffffffffffffffffffffffff1916827bffffffffffffffffffffffffffffffffffffffffffffffffffffffff1916149050919050565b61284a8161330f565b612889576040517f08c379a000000000000000000000000000000000000000000000000000000000815260040161288090614e13565b60405180910390fd5b50565b600033905090565b816004600083815260200190815260200160002060006101000a81548173ffffffffffffffffffffffffffffffffffffffff021916908373ffffffffffffffffffffffffffffffffffffffff160217905550808273ffffffffffffffffffffffffffffffffffffffff166129078361119d565b73ffffffffffffffffffffffffffffffffffffffff167f8c5be1e5ebec7d5bd14f71427d1e84f3dd0314c0f7b2291e5b200ac8c7c3b92560405160405180910390a45050565b6000806129598361119d565b90508073ffffffffffffffffffffffffffffffffffffffff168473ffffffffffffffffffffffffffffffffffffffff16148061299b575061299a81856126c0565b5b806129d957508373ffffffffffffffffffffffffffffffffffffffff166129c18461086c565b73ffffffffffffffffffffffffffffffffffffffff16145b91505092915050565b8273ffffffffffffffffffffffffffffffffffffffff16612a028261119d565b73ffffffffffffffffffffffffffffffffffffffff1614612a58576040517f08c379a0000000000000000000000000000000000000000000000000000000008152600401612a4f906153b3565b60405180910390fd5b600073ffffffffffffffffffffffffffffffffffffffff168273ffffffffffffffffffffffffffffffffffffffff1603612ac7576040517f08c379a0000000000000000000000000000000000000000000000000000000008152600401612abe90615445565b60405180910390fd5b612ad48383836001613350565b8273ffffffffffffffffffffffffffffffffffffffff16612af48261119d565b73ffffffffffffffffffffffffffffffffffffffff1614612b4a576040517f08c379a0000000000000000000000000000000000000000000000000000000008152600401612b41906153b3565b60405180910390fd5b6004600082815260200190815260200160002060006101000a81549073ffffffffffffffffffffffffffffffffffffffff02191690556001600360008573ffffffffffffffffffffffffffffffffffffffff1673ffffffffffffffffffffffffffffffffffffffff168152602001908152602001600020600082825403925050819055506001600360008473ffffffffffffffffffffffffffffffffffffffff1673ffffffffffffffffffffffffffffffffffffffff16815260200190815260200160002060008282540192505081905550816002600083815260200190815260200160002060006101000a81548173ffffffffffffffffffffffffffffffffffffffff021916908373ffffffffffffffffffffffffffffffffffffffff160217905550808273ffffffffffffffffffffffffffffffffffffffff168473ffffffffffffffffffffffffffffffffffffffff167fddf252ad1be2c89b69c2b068fc378daa952ba7f163c4a11628f55a4df523b3ef60405160405180910390a4612cd68383836001613356565b505050565b6000612ce68261119d565b9050612cf6816000846001613350565b612cff8261119d565b90506004600083815260200190815260200160002060006101000a81549073ffffffffffffffffffffffffffffffffffffffff02191690556001600360008373ffffffffffffffffffffffffffffffffffffffff1673ffffffffffffffffffffffffffffffffffffffff168152602001908152602001600020600082825403925050819055506002600083815260200190815260200160002060006101000a81549073ffffffffffffffffffffffffffffffffffffffff021916905581600073ffffffffffffffffffffffffffffffffffffffff168273ffffffffffffffffffffffffffffffffffffffff167fddf252ad1be2c89b69c2b068fc378daa952ba7f163c4a11628f55a4df523b3ef60405160405180910390a4612e25816000846001613356565b5050565b612e4382826040518060200160405280600081525061335c565b5050565b612e508261330f565b612e8f576040517f08c379a0000000000000000000000000000000000000000000000000000000008152600401612e86906154d7565b60405180910390fd5b80600660008481526020019081526020016000209081612eaf9190615195565b505050565b60006002600083815260200190815260200160002060009054906101000a900473ffffffffffffffffffffffffffffffffffffffff169050919050565b612ef961288c565b73ffffffffffffffffffffffffffffffffffffffff16612f17611dc3565b73ffffffffffffffffffffffffffffffffffffffff1614612f6d576040517f08c379a0000000000000000000000000000000000000000000000000000000008152600401612f6490615543565b60405180910390fd5b565b6000600760009054906101000a900473ffffffffffffffffffffffffffffffffffffffff16905081600760006101000a81548173ffffffffffffffffffffffffffffffffffffffff021916908373ffffffffffffffffffffffffffffffffffffffff1602179055508173ffffffffffffffffffffffffffffffffffffffff168173ffffffffffffffffffffffffffffffffffffffff167f8be0079c531659141344cd1fd0a4f28419497f9722a3daafe3b4186f6b6457e060405160405180910390a35050565b8173ffffffffffffffffffffffffffffffffffffffff168373ffffffffffffffffffffffffffffffffffffffff16036130a3576040517f08c379a000000000000000000000000000000000000000000000000000000000815260040161309a906155af565b60405180910390fd5b80600560008573ffffffffffffffffffffffffffffffffffffffff1673ffffffffffffffffffffffffffffffffffffffff16815260200190815260200160002060008473ffffffffffffffffffffffffffffffffffffffff1673ffffffffffffffffffffffffffffffffffffffff16815260200190815260200160002060006101000a81548160ff0219169083151502179055508173ffffffffffffffffffffffffffffffffffffffff168373ffffffffffffffffffffffffffffffffffffffff167f17307eab39ab6107e8899845ad3d59bd9653f200f220920489ca2b5937696c31836040516131949190613c27565b60405180910390a3505050565b6131ac8484846129e2565b6131b8848484846133b7565b6131f7576040517f08c379a00000000000000000000000000000000000000000000000000000000081526004016131ee90615641565b60405180910390fd5b50505050565b606061320882612841565b600060066000848152602001908152602001600020805461322890614910565b80601f016020809104026020016040519081016040528092919081815260200182805461325490614910565b80156132a15780601f10613276576101008083540402835291602001916132a1565b820191906000526020600020905b81548152906001019060200180831161328457829003601f168201915b5050505050905060006132b261353e565b905060008151036132c757819250505061330a565b6000825111156132fc5780826040516020016132e492919061569d565b6040516020818303038152906040529250505061330a565b61330584613555565b925050505b919050565b60008073ffffffffffffffffffffffffffffffffffffffff1661333183612eb4565b73ffffffffffffffffffffffffffffffffffffffff1614159050919050565b50505050565b50505050565b61336683836135bd565b61337360008484846133b7565b6133b2576040517f08c379a00000000000000000000000000000000000000000000000000000000081526004016133a990615641565b60405180910390fd5b505050565b60006133d88473ffffffffffffffffffffffffffffffffffffffff166137da565b15613531578373ffffffffffffffffffffffffffffffffffffffff1663150b7a0261340161288c565b8786866040518563ffffffff1660e01b81526004016134239493929190615716565b6020604051808303816000875af192505050801561345f57506040513d601f19601f8201168201806040525081019061345c9190615777565b60015b6134e1573d806000811461348f576040519150601f19603f3d011682016040523d82523d6000602084013e613494565b606091505b5060008151036134d9576040517f08c379a00000000000000000000000000000000000000000000000000000000081526004016134d090615641565b60405180910390fd5b805181602001fd5b63150b7a0260e01b7bffffffffffffffffffffffffffffffffffffffffffffffffffffffff1916817bffffffffffffffffffffffffffffffffffffffffffffffffffffffff191614915050613536565b600190505b949350505050565b606060405180602001604052806000815250905090565b606061356082612841565b600061356a61353e565b9050600081511161358a57604051806020016040528060008152506135b5565b80613594846137fd565b6040516020016135a592919061569d565b6040516020818303038152906040525b915050919050565b600073ffffffffffffffffffffffffffffffffffffffff168273ffffffffffffffffffffffffffffffffffffffff160361362c576040517f08c379a0000000000000000000000000000000000000000000000000000000008152600401613623906157f0565b60405180910390fd5b6136358161330f565b15613675576040517f08c379a000000000000000000000000000000000000000000000000000000000815260040161366c9061585c565b60405180910390fd5b613683600083836001613350565b61368c8161330f565b156136cc576040517f08c379a00000000000000000000000000000000000000000000000000000000081526004016136c39061585c565b60405180910390fd5b6001600360008473ffffffffffffffffffffffffffffffffffffffff1673ffffffffffffffffffffffffffffffffffffffff16815260200190815260200160002060008282540192505081905550816002600083815260200190815260200160002060006101000a81548173ffffffffffffffffffffffffffffffffffffffff021916908373ffffffffffffffffffffffffffffffffffffffff160217905550808273ffffffffffffffffffffffffffffffffffffffff16600073ffffffffffffffffffffffffffffffffffffffff167fddf252ad1be2c89b69c2b068fc378daa952ba7f163c4a11628f55a4df523b3ef60405160405180910390a46137d6600083836001613356565b5050565b6000808273ffffffffffffffffffffffffffffffffffffffff163b119050919050565b60606000600161380c846138cb565b01905060008167ffffffffffffffff81111561382b5761382a613ebc565b5b6040519080825280601f01601f19166020018201604052801561385d5781602001600182028036833780820191505090505b509050600082602001820190505b6001156138c0578080600190039150507f3031323334353637383961626364656600000000000000000000000000000000600a86061a8153600a85816138b4576138b361587c565b5b0494506000850361386b575b819350505050919050565b600080600090507a184f03e93ff9f4daa797ed6e38ed64bf6a1f0100000000000000008310613929577a184f03e93ff9f4daa797ed6e38ed64bf6a1f010000000000000000838161391f5761391e61587c565b5b0492506040810190505b6d04ee2d6d415b85acef81000000008310613966576d04ee2d6d415b85acef8100000000838161395c5761395b61587c565b5b0492506020810190505b662386f26fc10000831061399557662386f26fc10000838161398b5761398a61587c565b5b0492506010810190505b6305f5e10083106139be576305f5e10083816139b4576139b361587c565b5b0492506008810190505b61271083106139e35761271083816139d9576139d861587c565b5b0492506004810190505b60648310613a0657606483816139fc576139fb61587c565b5b0492506002810190505b600a8310613a15576001810190505b80915050919050565b604051806101600160405280606081526020016000815260200160608152602001606081526020016000815260200160008152602001600073ffffffffffffffffffffffffffffffffffffffff168152602001600073ffffffffffffffffffffffffffffffffffffffff168152602001600073ffffffffffffffffffffffffffffffffffffffff16815260200160006003811115613abf57613abe6140d5565b5b8152602001606081525090565b828054828255906000526020600020908101928215613b45579160200282015b82811115613b445782518260006101000a81548173ffffffffffffffffffffffffffffffffffffffff021916908373ffffffffffffffffffffffffffffffffffffffff16021790555091602001919060010190613aec565b5b509050613b529190613b56565b5090565b5b80821115613b6f576000816000905550600101613b57565b5090565b6000604051905090565b600080fd5b600080fd5b60007fffffffff0000000000000000000000000000000000000000000000000000000082169050919050565b613bbc81613b87565b8114613bc757600080fd5b50565b600081359050613bd981613bb3565b92915050565b600060208284031215613bf557613bf4613b7d565b5b6000613c0384828501613bca565b91505092915050565b60008115159050919050565b613c2181613c0c565b82525050565b6000602082019050613c3c6000830184613c18565b92915050565b600081519050919050565b600082825260208201905092915050565b60005b83811015613c7c578082015181840152602081019050613c61565b60008484015250505050565b6000601f19601f8301169050919050565b6000613ca482613c42565b613cae8185613c4d565b9350613cbe818560208601613c5e565b613cc781613c88565b840191505092915050565b60006020820190508181036000830152613cec8184613c99565b905092915050565b6000819050919050565b613d0781613cf4565b8114613d1257600080fd5b50565b600081359050613d2481613cfe565b92915050565b600060208284031215613d4057613d3f613b7d565b5b6000613d4e84828501613d15565b91505092915050565b600073ffffffffffffffffffffffffffffffffffffffff82169050919050565b6000613d8282613d57565b9050919050565b613d9281613d77565b82525050565b6000602082019050613dad6000830184613d89565b92915050565b613dbc81613d77565b8114613dc757600080fd5b50565b600081359050613dd981613db3565b92915050565b60008060408385031215613df657613df5613b7d565b5b6000613e0485828601613dca565b9250506020613e1585828601613d15565b9150509250929050565b60008060408385031215613e3657613e35613b7d565b5b6000613e4485828601613d15565b9250506020613e5585828601613dca565b9150509250929050565b600080600060608486031215613e7857613e77613b7d565b5b6000613e8686828701613dca565b9350506020613e9786828701613dca565b9250506040613ea886828701613d15565b9150509250925092565b600080fd5b600080fd5b7f4e487b7100000000000000000000000000000000000000000000000000000000600052604160045260246000fd5b613ef482613c88565b810181811067ffffffffffffffff82111715613f1357613f12613ebc565b5b80604052505050565b6000613f26613b73565b9050613f328282613eeb565b919050565b600067ffffffffffffffff821115613f5257613f51613ebc565b5b613f5b82613c88565b9050602081019050919050565b82818337600083830152505050565b6000613f8a613f8584613f37565b613f1c565b905082815260208101848484011115613fa657613fa5613eb7565b5b613fb1848285613f68565b509392505050565b600082601f830112613fce57613fcd613eb2565b5b8135613fde848260208601613f77565b91505092915050565b60008060408385031215613ffe57613ffd613b7d565b5b600083013567ffffffffffffffff81111561401c5761401b613b82565b5b61402885828601613fb9565b925050602061403985828601613d15565b9150509250929050565b61404c81613cf4565b82525050565b60006020820190506140676000830184614043565b92915050565b600082825260208201905092915050565b600061408982613c42565b614093818561406d565b93506140a3818560208601613c5e565b6140ac81613c88565b840191505092915050565b6140c081613cf4565b82525050565b6140cf81613d77565b82525050565b7f4e487b7100000000000000000000000000000000000000000000000000000000600052602160045260246000fd5b60048110614115576141146140d5565b5b50565b600081905061412682614104565b919050565b600061413682614118565b9050919050565b6141468161412b565b82525050565b600081519050919050565b600082825260208201905092915050565b6000819050602082019050919050565b600061418483836140c6565b60208301905092915050565b6000602082019050919050565b60006141a88261414c565b6141b28185614157565b93506141bd83614168565b8060005b838110156141ee5781516141d58882614178565b97506141e083614190565b9250506001810190506141c1565b5085935050505092915050565b6000610160830160008301518482036000860152614219828261407e565b915050602083015161422e60208601826140b7565b5060408301518482036040860152614246828261407e565b91505060608301518482036060860152614260828261407e565b915050608083015161427560808601826140b7565b5060a083015161428860a08601826140b7565b5060c083015161429b60c08601826140c6565b5060e08301516142ae60e08601826140c6565b506101008301516142c36101008601826140c6565b506101208301516142d861012086018261413d565b506101408301518482036101408601526142f2828261419d565b9150508091505092915050565b6000602082019050818103600083015261431981846141fb565b905092915050565b60006020828403121561433757614336613b7d565b5b600061434584828501613dca565b91505092915050565b60006040820190506143636000830185614043565b6143706020830184613d89565b9392505050565b6143808161412b565b82525050565b60006101408201905081810360008301526143a1818d613c99565b90506143b0602083018c614043565b81810360408301526143c2818b613c99565b905081810360608301526143d6818a613c99565b90506143e56080830189614043565b6143f260a0830188614043565b6143ff60c0830187613d89565b61440c60e0830186613d89565b61441a610100830185613d89565b614428610120830184614377565b9b9a5050505050505050505050565b6000806000806080858703121561445157614450613b7d565b5b600085013567ffffffffffffffff81111561446f5761446e613b82565b5b61447b87828801613fb9565b945050602085013567ffffffffffffffff81111561449c5761449b613b82565b5b6144a887828801613fb9565b935050604085013567ffffffffffffffff8111156144c9576144c8613b82565b5b6144d587828801613fb9565b92505060606144e687828801613d15565b91505092959194509250565b60006060820190506145076000830186614043565b6145146020830185613d89565b6145216040830184613d89565b949350505050565b61453281613c0c565b811461453d57600080fd5b50565b60008135905061454f81614529565b92915050565b6000806040838503121561456c5761456b613b7d565b5b600061457a85828601613dca565b925050602061458b85828601614540565b9150509250929050565b600067ffffffffffffffff8211156145b0576145af613ebc565b5b6145b982613c88565b9050602081019050919050565b60006145d96145d484614595565b613f1c565b9050828152602081018484840111156145f5576145f4613eb7565b5b614600848285613f68565b509392505050565b600082601f83011261461d5761461c613eb2565b5b813561462d8482602086016145c6565b91505092915050565b600080600080608085870312156146505761464f613b7d565b5b600061465e87828801613dca565b945050602061466f87828801613dca565b935050604061468087828801613d15565b925050606085013567ffffffffffffffff8111156146a1576146a0613b82565b5b6146ad87828801614608565b91505092959194509250565b600081519050919050565b600082825260208201905092915050565b6000819050602082019050919050565b6000610160830160008301518482036000860152614703828261407e565b915050602083015161471860208601826140b7565b5060408301518482036040860152614730828261407e565b9150506060830151848203606086015261474a828261407e565b915050608083015161475f60808601826140b7565b5060a083015161477260a08601826140b7565b5060c083015161478560c08601826140c6565b5060e083015161479860e08601826140c6565b506101008301516147ad6101008601826140c6565b506101208301516147c261012086018261413d565b506101408301518482036101408601526147dc828261419d565b9150508091505092915050565b60006147f583836146e5565b905092915050565b6000602082019050919050565b6000614815826146b9565b61481f81856146c4565b935083602082028501614831856146d5565b8060005b8581101561486d578484038952815161484e85826147e9565b9450614859836147fd565b925060208a01995050600181019050614835565b50829750879550505050505092915050565b60006020820190508181036000830152614899818461480a565b905092915050565b600080604083850312156148b8576148b7613b7d565b5b60006148c685828601613dca565b92505060206148d785828601613dca565b9150509250929050565b7f4e487b7100000000000000000000000000000000000000000000000000000000600052602260045260246000fd5b6000600282049050600182168061492857607f821691505b60208210810361493b5761493a6148e1565b5b50919050565b7f4552433732313a20617070726f76616c20746f2063757272656e74206f776e6560008201527f7200000000000000000000000000000000000000000000000000000000000000602082015250565b600061499d602183613c4d565b91506149a882614941565b604082019050919050565b600060208201905081810360008301526149cc81614990565b9050919050565b7f4552433732313a20617070726f76652063616c6c6572206973206e6f7420746f60008201527f6b656e206f776e6572206f7220617070726f76656420666f7220616c6c000000602082015250565b6000614a2f603d83613c4d565b9150614a3a826149d3565b604082019050919050565b60006020820190508181036000830152614a5e81614a22565b9050919050565b7f50726f64756374204944206e6f7420666f756e64000000000000000000000000600082015250565b6000614a9b601483613c4d565b9150614aa682614a65565b602082019050919050565b60006020820190508181036000830152614aca81614a8e565b9050919050565b7f4e487b7100000000000000000000000000000000000000000000000000000000600052603260045260246000fd5b7f52657461696c6572206e6f7420766572696669656420746f2073656c6c20746860008201527f652070726f647563740000000000000000000000000000000000000000000000602082015250565b6000614b5c602983613c4d565b9150614b6782614b00565b604082019050919050565b60006020820190508181036000830152614b8b81614b4f565b9050919050565b7f4e487b7100000000000000000000000000000000000000000000000000000000600052601160045260246000fd5b6000614bcc82613cf4565b9150614bd783613cf4565b9250828202614be581613cf4565b91508282048414831517614bfc57614bfb614b92565b5b5092915050565b6000614c0e82613cf4565b9150614c1983613cf4565b9250828201905080821115614c3157614c30614b92565b5b92915050565b7f437573746f6d6572206e6f7420766572696669656420746f20636c61696d207460008201527f68652077617272616e7479000000000000000000000000000000000000000000602082015250565b6000614c93602b83613c4d565b9150614c9e82614c37565b604082019050919050565b60006020820190508181036000830152614cc281614c86565b9050919050565b7f4552433732313a2063616c6c6572206973206e6f7420746f6b656e206f776e6560008201527f72206f7220617070726f76656400000000000000000000000000000000000000602082015250565b6000614d25602d83613c4d565b9150614d3082614cc9565b604082019050919050565b60006020820190508181036000830152614d5481614d18565b9050919050565b7f57617272616e7479204578706972656400000000000000000000000000000000600082015250565b6000614d91601083613c4d565b9150614d9c82614d5b565b602082019050919050565b60006020820190508181036000830152614dc081614d84565b9050919050565b7f4552433732313a20696e76616c696420746f6b656e2049440000000000000000600082015250565b6000614dfd601883613c4d565b9150614e0882614dc7565b602082019050919050565b60006020820190508181036000830152614e2c81614df0565b9050919050565b7f4552433732313a2061646472657373207a65726f206973206e6f74206120766160008201527f6c6964206f776e65720000000000000000000000000000000000000000000000602082015250565b6000614e8f602983613c4d565b9150614e9a82614e33565b604082019050919050565b60006020820190508181036000830152614ebe81614e82565b9050919050565b7f57617272616e747920706572696f64206d75737420626520677265617465722060008201527f7468616e2030206d6f6e74687300000000000000000000000000000000000000602082015250565b6000614f21602d83613c4d565b9150614f2c82614ec5565b604082019050919050565b60006020820190508181036000830152614f5081614f14565b9050919050565b7f55736572206973206e6f7420612072656769737465726564204d616e7566617460008201527f757265722c2063616e27742063726561746520612070726f6475637400000000602082015250565b6000614fb3603c83613c4d565b9150614fbe82614f57565b604082019050919050565b60006020820190508181036000830152614fe281614fa6565b9050919050565b60008190508160005260206000209050919050565b60006020601f8301049050919050565b600082821b905092915050565b60006008830261504b7fffffffffffffffffffffffffffffffffffffffffffffffffffffffffffffffff8261500e565b615055868361500e565b95508019841693508086168417925050509392505050565b6000819050919050565b600061509261508d61508884613cf4565b61506d565b613cf4565b9050919050565b6000819050919050565b6150ac83615077565b6150c06150b882615099565b84845461501b565b825550505050565b600090565b6150d56150c8565b6150e08184846150a3565b505050565b5b81811015615104576150f96000826150cd565b6001810190506150e6565b5050565b601f8211156151495761511a81614fe9565b61512384614ffe565b81016020851015615132578190505b61514661513e85614ffe565b8301826150e5565b50505b505050565b600082821c905092915050565b600061516c6000198460080261514e565b1980831691505092915050565b6000615185838361515b565b9150826002028217905092915050565b61519e82613c42565b67ffffffffffffffff8111156151b7576151b6613ebc565b5b6151c18254614910565b6151cc828285615108565b600060209050601f8311600181146151ff57600084156151ed578287015190505b6151f78582615179565b86555061525f565b601f19841661520d86614fe9565b60005b8281101561523557848901518255600182019150602085019450602081019050615210565b86831015615252578489015161524e601f89168261515b565b8355505b6001600288020188555050505b505050505050565b600061527282613cf4565b91507fffffffffffffffffffffffffffffffffffffffffffffffffffffffffffffffff82036152a4576152a3614b92565b5b600182019050919050565b7f4f776e61626c653a206e6577206f776e657220697320746865207a65726f206160008201527f6464726573730000000000000000000000000000000000000000000000000000602082015250565b600061530b602683613c4d565b9150615316826152af565b604082019050919050565b6000602082019050818103600083015261533a816152fe565b9050919050565b7f4552433732313a207472616e736665722066726f6d20696e636f72726563742060008201527f6f776e6572000000000000000000000000000000000000000000000000000000602082015250565b600061539d602583613c4d565b91506153a882615341565b604082019050919050565b600060208201905081810360008301526153cc81615390565b9050919050565b7f4552433732313a207472616e7366657220746f20746865207a65726f2061646460008201527f7265737300000000000000000000000000000000000000000000000000000000602082015250565b600061542f602483613c4d565b915061543a826153d3565b604082019050919050565b6000602082019050818103600083015261545e81615422565b9050919050565b7f45524337323155524953746f726167653a2055524920736574206f66206e6f6e60008201527f6578697374656e7420746f6b656e000000000000000000000000000000000000602082015250565b60006154c1602e83613c4d565b91506154cc82615465565b604082019050919050565b600060208201905081810360008301526154f0816154b4565b9050919050565b7f4f776e61626c653a2063616c6c6572206973206e6f7420746865206f776e6572600082015250565b600061552d602083613c4d565b9150615538826154f7565b602082019050919050565b6000602082019050818103600083015261555c81615520565b9050919050565b7f4552433732313a20617070726f766520746f2063616c6c657200000000000000600082015250565b6000615599601983613c4d565b91506155a482615563565b602082019050919050565b600060208201905081810360008301526155c88161558c565b9050919050565b7f4552433732313a207472616e7366657220746f206e6f6e20455243373231526560008201527f63656976657220696d706c656d656e7465720000000000000000000000000000602082015250565b600061562b603283613c4d565b9150615636826155cf565b604082019050919050565b6000602082019050818103600083015261565a8161561e565b9050919050565b600081905092915050565b600061567782613c42565b6156818185615661565b9350615691818560208601613c5e565b80840191505092915050565b60006156a9828561566c565b91506156b5828461566c565b91508190509392505050565b600081519050919050565b600082825260208201905092915050565b60006156e8826156c1565b6156f281856156cc565b9350615702818560208601613c5e565b61570b81613c88565b840191505092915050565b600060808201905061572b6000830187613d89565b6157386020830186613d89565b6157456040830185614043565b818103606083015261575781846156dd565b905095945050505050565b60008151905061577181613bb3565b92915050565b60006020828403121561578d5761578c613b7d565b5b600061579b84828501615762565b91505092915050565b7f4552433732313a206d696e7420746f20746865207a65726f2061646472657373600082015250565b60006157da602083613c4d565b91506157e5826157a4565b602082019050919050565b60006020820190508181036000830152615809816157cd565b9050919050565b7f4552433732313a20746f6b656e20616c7265616479206d696e74656400000000600082015250565b6000615846601c83613c4d565b915061585182615810565b602082019050919050565b6000602082019050818103600083015261587581615839565b9050919050565b7f4e487b7100000000000000000000000000000000000000000000000000000000600052601260045260246000fdfea264697066735822122052541a09f140eb3d902e381c057aa61bff09c0f42d4632b8dfa21017ee21583964736f6c63430008110033",
  "linkReferences": {},
  "deployedLinkReferences": {}
}